:100000000C94CE170C94F8170C94F8170C94F8175E
:100010000C94F8170C94F8170C94F8170C94F81724
:100020000C94F8170C94F8170C94F8170C94F81714
:100030000C94F8170C9420620C94F8170C94F81791
:100040000C94F8170C94BF6E0C945DC80C94F817C0
:100050000C94A9C70C94F8170C94F8170C94F81783
:100060000C94F8170C94F8170C94F8170C94F817D4
:100070000C94F8170C94F8170C94F8170C94F817C4
:100080000C94F8170C94F8170C94F817668569858A
:100090005C856085808580856D85718577857B85AC
:1000A0003E86438648865286808680865C86648645
:1000B0006C86768629DDF0DB27DC65DD27DC27DC36
:1000C00027DC27DC27DC27DC27DC27DC27DC27DC18
:1000D00027DC27DC27DC27DC27DC27DC27DC27DC08
:1000E00027DC27DC27DC27DC27DC27DC27DC27DCF8
:1000F0005FDD27DC27DC27DC27DC27DC27DC27DCAF
:1001000027DC38DD27DC27DC27DC27DC27DC27DCC5
:1001100027DC27DC27DC27DC7CDD24DC4E414E4954
:100120004E495459494E46CDCCCC3D0AD7233C17B5
:10013000B7D13877CC2B329595E6241FB14F0A0002
:100140000020410000C84200401C4620BCBE4CCAF2
:100150001B0E5AAEC59D74434F4D4D554E494341FC
:1001600054494F4E0044525952554E004552524F39
:10017000525300494E464F004543484F00536C656B
:1001800065702E2E2E00486F6D65205859206669C7
:100190007273740A00486F6D652058592066697241
:1001A000737400205A3A200020593A2000426564B6
:1001B00020583A20004D65736820706F696E742076
:1001C00063616E6E6F74206265207265736F6C760A
:1001D00065640A00436C69636B20746F20726573F9
:1001E000756D652E2E2E004E6F206D6F76652E007C
:1001F000456E642066696C65206C6973740A004200
:100200006567696E2066696C65206C6973740A00A5
:10021000286E6F2066696C652900534420707269EE
:100220006E74696E67206279746520004E6F742069
:100230005344207072696E74696E670A0043757268
:1002400072656E742066696C653A200025697300DA
:1002500025696D20256973002569682025696D2051
:1002600025697300256964202569682025696D204A
:10027000256973002569792025696420256968202E
:1002800025696D20256973005072696E7420746948
:100290006D653A2000780173016C01650157016FAB
:1002A00066660044454255473A004B494C4C45442C
:1002B0002E20004D3131332053006F6B00555074A8
:1002C000616E69756D2045332041424C204F666652
:1002D0002E002C20002C2000544845524D414C5FEC
:1002E00050524F54454354494F4E004155544F527C
:1002F00045504F52545F53445F535441545553003B
:10030000454D455247454E43595F50415253455222
:1003100000434153455F4C494748545F4252494767
:1003200048544E45535300544F47474C455F4C4942
:100330004748545300534F4654574152455F504F1E
:10034000574552004255494C445F50455243454E33
:1003500054004C4556454C494E475F44415441007A
:100360005A5F50524F4245004155544F4C455645F7
:100370004C005052494E545F4A4F420050524F4732
:1003800052455353004155544F5245504F52545FBC
:1003900054454D5000564F4C554D4554524943001D
:1003A000454550524F4D0053455249414C5F584FBF
:1003B0004E5F584F4646004649524D574152455FA1
:1003C0004E414D453A4D61726C696E20312E312E91
:1003D0003920284769746875622920534F55524364
:1003E000455F434F44455F55524C3A68747470738F
:1003F0003A2F2F6769746875622E636F6D2F4D6198
:10040000726C696E4669726D776172652F4D6172AB
:100410006C696E2050524F544F434F4C5F564552BB
:1004200053494F4E3A312E30204D414348494E45B5
:100430005F545950453A555074616E69756D204549
:10044000332041424C2045585452554445525F4355
:100450004F554E543A3120555549443A63656465C9
:10046000326132662D343161322D343734382D39D2
:100470006231322D63353563363266333637666620
:100480000A002F2F20004D31343520533C696E6413
:1004900065783E206F7574206F662072616E6765A7
:1004A0002028302D31290A002054002052004163B9
:1004B00063656C65726174696F6E3A2050005741D4
:1004C000524E494E4721204C6F77205A204A657280
:1004D0006B206D6179206C65616420746F20756E8E
:1004E00077616E746564207061757365732E0A00A0
:1004F0004F666673657473206170706C6965640023
:100500004572723A20546F6F206661722100546FF9
:100510006F206661722066726F6D2072656665720B
:10052000656E636520706F696E740A0020466C6F9B
:10053000773A200000010F150E12FFFFFFFF16177C
:100540000E13FFFFFFFF03021A14FFFFFFFFFFFF61
:10055000FF0C04FFFFFF01000EFFFFFF0C190DFF52
:100560001820643A0020693A0020703A00496E76FB
:10057000616C69642065787472756465720A004301
:10058000290A0061626C656420286D696E207465BB
:100590006D702000436F6C642065787472756465BB
:1005A000732061726520004E6F2063617365206C5B
:1005B000696768740A004D65736820706F696E74AE
:1005C0002063616E6E6F74206265207265736F6C5C
:1005D0007665640A004D34323120696E636F727241
:1005E00065637420706172616D65746572207573E6
:1005F0006167650A00454550524F4D204F4B0A0038
:100600003F5A206F7574206F662072616E67652097
:10061000282D323020746F203230290A003A200011
:1006200050726F6265205A204F6666736574004190
:1006300063746976652045787472756465723A20D2
:1006400000496E76616C69642065787472756465C2
:10065000720A0042696C696E656172204C6576654C
:100660006C696E67004578747275646572733A20C0
:100670003100687474703A2F2F6D61726C696E6608
:10068000772E6F726700555074616E69756D2045E5
:10069000332041424C00323031382D30382D30314A
:1006A00000312E312E39004D61726C696E00546834
:1006B00065726D6973746F727300426F617264204A
:1006C000496E666F005072696E74657220496E667D
:1006D0006F004D61696E0057726974696E672074AE
:1006E0006F2066696C653A20006F70656E206661E8
:1006F000696C65642C2046696C653A20006F7065F2
:100700006E206661696C65642C2046696C653A20D0
:100710000046696C652073656C65637465640A00E6
:100720002053697A653A200046696C65206F7065D0
:100730006E65643A20002066696C653A2000646F3B
:10074000696E67006672657368004E6F77200045BA
:100750004E4420535542524F5554494E450A0022AB
:1007600020706F73002220706172656E743A2200EF
:10077000535542524F5554494E452043414C4C200D
:100780007461726765743A22004B494C4C45442EA3
:100790002000747279696E6720746F2063616C6CDD
:1007A000207375622D67636F64652066696C65737D
:1007B000207769746820746F6F206D616E79206C8A
:1007C0006576656C732E204D4158206C6576656C9E
:1007D0002069733A004572726F723A006F70656EED
:1007E000206661696C65642C2046696C653A20005E
:1007F00043616E6E6F74206F70656E2073756264F6
:10080000697220006563686F3A0020746F6F206C16
:100810006F6E6720657874727573696F6E20707281
:100820006576656E7465640A0020636F6C6420658C
:100830007874727573696F6E2070726576656E7408
:1008400065640A00526573656E643A20006F6B0040
:1008500020746F6F206C6F6E67206578747275738B
:10086000696F6E2070726576656E7465640A00202B
:10087000636F6C6420657874727573696F6E207035
:10088000726576656E7465640A00627573793A20E4
:1008900070617573656420666F7220696E7075741F
:1008A0000A00627573793A20706175736564206619
:1008B0006F7220757365720A00627573793A2070E1
:1008C000726F63657373696E670A004B494C4C45E0
:1008D000442E20004B494C4C2063617573656420A5
:1008E000627920746F6F206D75636820696E616333
:1008F000746976652074696D65202D206375727248
:10090000656E7420636F6D6D616E643A2000506C8B
:1009100065617365207265736574005052494E5469
:1009200045522048414C544544005072696E7465EC
:10093000722068616C7465642E206B696C6C282968
:100940002063616C6C6564210A00656E7175657564
:1009500065696E67202200000000000000000000B2
:1009600000000000004842000048420000804000B3
:100970000000005761726E696E673A20486F6D69BA
:100980006E672042756D702044697669736F7220BE
:100990003C20310A000202040000A0400000A040F8
:1009A00000000040000070430000704300008243DC
:1009B000FFFFFF4578747275646572004D6F766550
:1009C000205A004D6F76652059004D6F766520588E
:1009D000005072657061726500496E697469616C7E
:1009E000697A6520454550524F4D00436F6E7472D1
:1009F0006F6C00526573746F7265206661696C7309
:100A0000616665004C6F61642073657474696E671C
:100A10007300496E697469616C697A652045455057
:100A2000524F4D0053746F72652073657474696E14
:100A300067730046696C616D656E74004D6F746913
:100A40006F6E0054656D7065726174757265004DEE
:100A500061696E004D3330332055312045256920C2
:100A600053256900507265686561742041425320C6
:100A7000636F6E66005072656865617420504C410A
:100A800020636F6E6600504944204175746F747521
:100A90006E6500504944204175746F74756E650031
:100AA000504944204175746F74756E650050494417
:100AB0002D44005049442D44005049442D490050D4
:100AC00049442D49005049442D50005049442D506F
:100AD000002008204661637400200820466163748A
:100AE000002008204D6178002008204D617800200A
:100AF00008204D6178002008204D696E00200820F4
:100B00004D696E002008204D696E004F6666004FEB
:100B10006E20004175746F74656D700046616E20C3
:100B200073706565640046616E207370656564006E
:100B300046616E20737065656400426564004265BD
:100B40006400426564004E6F7A7A6C65004E6F7A7D
:100B50007A6C65004E6F7A7A6C6500436F6E7472C2
:100B60006F6C0053746F72652073657474696E677F
:100B700073004265640042656400426564004E6F24
:100B80007A7A6C65004E6F7A7A6C65004E6F7A7A6D
:100B90006C650046616E2073706565640046616E29
:100BA0002073706565640046616E207370656564CE
:100BB0000054656D70657261747572650024F4D4BB
:100BC0003050C38E20C2A24017828B7011127A91CE
:100BD0000D816CD90AA861E108C7586607615143C5
:100BE000061E4B5D05C145A7041A411104093D9835
:100BF00003713931034036DB0265339102D430543E
:100C000002802E1D02632CEE01752AC501B028A0BA
:100C100001102781018F2564012B244B01E0223430
:100C200001AC211F018D200D01801FFC00841EEDF1
:100C300000971DDF00B81CD200E61BC600201BBCBD
:100C400000641AB200B219A8000A19A0006A189923
:100C500000D117910040178B00B516840031167E25
:100C600000B31579003A157300C7146F0058146A61
:100C700000EE1366008813630025135E00C7125B45
:100C8000006C12570015125400C111510070114F21
:100C90000021114B00D61049008D1047004610442A
:100CA0000002104200C00F4000800F3E00420F3C87
:100CB00000060F3B00CB0E3800930E37005C0E355C
:100CC00000270E3400F30D3200C10D3100900D30BD
:100CD00000600D2E00320D2D00050D2C00D90C2BBF
:100CE00000AE0C2900850C29005C0C2700350C2770
:100CF000000E0C2600E80B2400C40B2400A00B23DC
:100D0000007D0B23005A0B2100390B2100180B200A
:100D100000F80A1F00D90A1E00BB0A1E009D0A1D0A
:100D200000800A1D00630A1C00470A1B002C0A1BD6
:100D300000110A1A00F7091A00DD091900C409197F
:100D400000AB091900920917007B09180063091705
:100D5000004C09160036091600200916000A09156C
:100D600000F5081500E0081400CC081400B80814B9
:100D700000A4081400900813007D0812006B0813EB
:100D80000058081200460812003408110023081108
:100D9000001208110001081100F0071000E0071010
:100DA00000D0071000C0071000B0070F00A1071007
:100DB0000091070E0083070F0074070F0065070EF0
:100DC0000057070E0049070E003B070D002E070EC7
:100DD0000020070D0013070D0006070D00F9060C93
:100DE00000ED060D00E0060C00D4060C00C8060C51
:100DF00000BC060C00B0060C00A4060B0099060C03
:100E0000008D060B0082060B0077060B006C060BAC
:100E10000061060A0057060B004C060A0042060A4B
:100E20000038060A002E060A0024060A001A060ADE
:100E3000001006090007060A00FD050900F405096F
:100E400000EB050900E2050900D9050900D00509F4
:100E500000C7050900BE050900B5050800AD050875
:100E600000A50509009C050800940508008C0508EC
:100E700000840508007C050800740508006C05075F
:100E800000650508005D050700560508004E0507CA
:100E90000047050700400508003805070031050731
:100EA000002A050700230507001C05060016050794
:100EB000000F0507000805060002050700FB0406F1
:100EC00000F5040700EE040600E8040600E204074B
:100ED00000DB040600D5040600CF040600C90406A2
:100EE00000C3040600BD040600B7040600B10405F3
:100EF00000AC040600A6040600A00405009B04063E
:100F00000095040500900406008A04050085040588
:100F100000800406007A04050075040500700405CD
:100F2000006B04050066040500610405005C04050F
:100F30000057040500520405004D0405004804054F
:100F400000430405003E0404003A0405003504058E
:100F500000300404002C04050027040400230405C9
:100F6000001E0404001A0404001604050011040401
:100F7000000D040400090405000404040000040436
:100F800000FC030400F8030400F4030400F003046D
:100F900000EC030400E8030400E4030400E003049D
:100FA00000DC030400D8030400D4030400D00304CD
:100FB00000CC030400C8030300C503030024F404A9
:100FC000D9201BC40C5C0E9804C4095F026507712C
:100FD00001F405F900FB04B30048048700C103696C
:100FE000005803550003034500BE023A0084023155
:100FF0000053022A002902250004022000E4011CFB
:1010000000C8011900AF01170098011400840113F2
:1010100000710110006101100051010E0043010D2B
:101020000036010B002B010B0020010B00150109FC
:10103000000C01090003010800FB000800F3000890
:1010400000EB000700E4000600DE000600D8000602
:1010500000D2000600CC000500C7000500C2000554
:1010600000BD000400B9000400B5000400B1000494
:1010700000AD000400A9000400A5000300A20003C5
:10108000009F0004009B00030098000300950002ED
:101090000093000300900003008D0002008B00030A
:1010A0000088000200860002008400030081000224
:1010B000007F0002007D0002007B00020079000238
:1010C0000077000100760002007400020072000147
:1010D00000710002006F0002006D0001006C000250
:1010E000006A00010069000200670001006600015B
:1010F000006500010064000200620001006100015F
:1011000000600001005F0002005D0001005C000162
:10111000005B0001005A0001005900010058000165
:101120000057000100560001005500010054000165
:101130000053000000530001005200010051000163
:1011400000500001004F0001004E0000004E000161
:10115000004D0001004C0001004B0000004B00015D
:10116000004A000100490001004800000048000159
:101170000047000100460000004600010045000055
:10118000004500010044000100430000004300014D
:101190000042000000420001004100000041000147
:1011A00000400001003F0000003F0001003E000041
:1011B000003E0001003D0000003D0001003C000039
:1011C000003C0000003C0001003B0000003B00012F
:1011D000003A0000003A0001003900000039000127
:1011E000003800000038000000380001003700001F
:1011F0000037000100360000003600000036000114
:10120000003500000035000000350001003400000A
:1012100000340000003400010033000000330000FF
:1012200000330001003200000032000000320001F3
:1012300000310000003100000031000100300000EA
:101240000030000000300001002F0000002F0000DF
:10125000002F0000002F0001002E0000002E0000D3
:10126000002E0001002D0000002D0000002D0000C8
:10127000002D0001002C0000002C0000002C0000BC
:10128000002C0001002B0000002B0000002B0000B0
:10129000002B0001002A0000002A0000002A0000A4
:1012A000002A000100290000002900000029000098
:1012B000002900000029000100280000002800008B
:1012C000002800000028000000280001002700007E
:1012D0000027000000270000002700000027000171
:1012E0000026000000260000002600000026000066
:1012F0000026000100250000002500000025000058
:101300000025000000250000002500010024000049
:10131000002400000024000000240000002400013C
:101320000023000000230000002300000023000031
:101330000023000000230000002300010022000021
:101340000022000000220000002200000022000015
:101350000022000100210000002100000021000007
:1013600000210000002100000021000000210001F8
:1013700000200000002000000020000000200000ED
:1013800000200000002000000020000000200001DC
:10139000001F0000001F0000001F0000001F0000D1
:1013A000001F0000001F0000001F0001001E0000C1
:1013B000001E0000001E0000001E00000004370098
:1013C000001E290000511B000058100000100900E9
:1013D00000CC040000780200004101000062656456
:1013E0000A002C2073797374656D2073746F7070AC
:1013F000656421204865617465725F49443A200044
:101400004265642068656174696E67206661696C15
:1014100065640048656174696E67206661696C6522
:10142000640045312048656174696E6720666169B2
:101430006C65640048656174696E67206661696CFB
:1014400065640070012C0190012701B0012201C0E8
:10145000011D01F00118011002130130020E01609C
:1014600002090190020401C002FF000003FA0040DB
:1014700003F5008003F000D003EB002004E60070C9
:1014800004E100E004DC004005D700C005D20040C4
:1014900006CD00D006C8008007C3003008BE00F0AB
:1014A00008B900C009B400B00AAF00B00BAA00D060
:1014B0000CA500000EA000500F9B00C0109600501D
:1014C00012910000148C00C0158700B0178200B084
:1014D000197D00D01B7800001E730040206E009024
:1014E000226900F024640040275F0090295A00E040
:1014F0002B5500102E500020304B0010324600E0DB
:1015000033410090353C001037370070383200A06E
:10151000392D00B03A2800A03B2300603C1E00108B
:101520003D1900903D1400103E0F00703E0A00C0AF
:101530003E0500003F0000403FFBFF803FF6FFC03C
:101540003FF1FF453120544845524D414C20525502
:101550004E415741590042454420544845524D415F
:101560004C2052554E4157415900546865726D6187
:101570006C2052756E617761790045312045727239
:101580003A204D415854454D50004572723A204D15
:10159000415854454D5020424544004D4158544512
:1015A0004D5020747269676765726564004531202B
:1015B0004572723A204D494E54454D500045727265
:1015C0003A204D494E54454D5020424544004D4926
:1015D0004E54454D502074726967676572656400AA
:1015E0004D383420582059205A204500202F002003
:1015F00042403A0020403A0000060900FE00000088
:10160000000001090008FE0000050808060000406F
:10161000F0C88888987810050808060000C0F88887
:1016200088888888F80505050600012030F83020F4
:101630000508080600002070F820202020E0050999
:10164000090600FF2070A8A8B8888870200509093D
:101650000600FFE080C0B0A8283028280509090648
:1016600000FFF8A88888888888A8F8050A0A060074
:10167000FE205050505088A8A8887003030306002D
:101680000340A04025753A2530327500253032756B
:101690003A253032750025756420253032753A259B
:1016A00030327500202020202020005A00590020D0
:1016B0002020200058000920000000000000000049
:1016C00000000000003FFFF00000000000000000EC
:1016D0000000000038007000000000000000000062
:1016E00000000030FC30000000000000000000009E
:1016F000000020FC100000000000000000000000BE
:101700000020781000000000000000000000000031
:101710002030100000000000000000000000002C3D
:1017200000D03FC0000000000000002082002E31E9
:10173000D07FE0000000000000001041002F7BD0AF
:101740007FE0000000000000001041002F7BD07FF0
:10175000E0000000000000002082002E31D03FC0D9
:10176000000000000000004104002C00D03FC00039
:101770000000000000008208002030107FE0000020
:1017800000000000008208002078107FE0000000C8
:101790000000000041040020FC107FE00000000079
:1017A00000000020820030FC301F8000000000009C
:1017B00000000000003800700F0000000000000072
:1017C00000FFFFC03FFFF006000000000000000027
:1017D000FFFFC0000000000000000000000000004B
:1017E00000003FFFF00000000000000000000000CB
:1017F0000038007000000000000000000000000041
:1018000031863000000000000000000000000023CE
:101810008710000000000000000000000000278783
:10182000900000000000000000000000002F87D0A2
:101830000000000000000000000000002F03D03F67
:10184000C0000000000000002082002030107FE077
:10185000000000000000001041002078107FE00030
:101860000000000000001041002078107FE0000020
:1018700000000000002082002030103FC000000067
:10188000000000004104002F03D03FC00000000012
:101890000000008208002F87D07FE00000000000D9
:1018A00000008208002787907FE000000000000011
:1018B000004104002387107FE000000000000000CA
:1018C0002082003186301F800000000000000000F0
:1018D00000003800700F0000000000000000FFFF53
:1018E000C03FFFF0060000000000000000FFFFC046
:1018F00000000020496E76616C696420657874721E
:101900007564657220000000000000000000000007
:1019100000000000704300007043000082434269F1
:101920006C696E656172204C6576656C696E6720C6
:10193000477269643A0A00202844525952554E2988
:1019400000473239204175746F20426564204C6530
:1019500076656C696E67003F20284C2C522C462C13
:101960004229206F7574206F6620626F756E6473F4
:101970002E0A003F2856296572626F7365206C65D8
:1019800076656C20697320696D706C61757369622E
:101990006C652028302D34292E0A00426164205ABB
:1019A0002076616C75650A004E6F2062696C696E05
:1019B00065617220677269640A0046696C6520641B
:1019C000656C657465643A0044656C6574696F6E36
:1019D000206661696C65642C2046696C653A20005C
:1019E00000002100240027002A000000220025001A
:1019F00028002B00000020002300260029000202FE
:101A000002020202020204040404040404040303A4
:101A100003030303030301010101010101010102A9
:101A200004081020408001020408102040800102B8
:101A300004081020408080402010080402010000AB
:101A400000010200090A000000000403080700006A
:101A50000000000000000000000000000000000086
:101A6000000000C0000000000000000000000000B6
:101A7000000003F000000000000000000000000073
:101A800000000FFC0000000000000000000000004B
:101A900000003FFE00000000000000000000000009
:101AA0000000FFFF800000000000000000000000B8
:101AB0000001FFFFC0000000000000000000000067
:101AC0000003FFFFF0000000000000000000000025
:101AD000001FFFFFFE0000000000000000000000EB
:101AE000003FFFFFFE0000000000000000000000BB
:101AF00000FFFFFFFFC0000000000000000000002A
:101B000003FFFFFFFFE000000000000000000000F6
:101B10000FFFFFFFFFF800000000000000000000C2
:101B20003FFFFFFFFFFE000000000000000000007C
:101B30007FFFFFFFFFFF80000000000000000000AB
:101B4000001FFFFFFE00000000000000000000007A
:101B5000001FFFFFFE00000000000000000000006A
:101B6000001FFFFFFE00000000000000000000005A
:101B7000001FFFFFFE00000000000000000000004A
:101B8000001FFFFFFE00000000000000000000003A
:101B90000000000000000000000000000000000045
:101BA0000000000000000000000000000000000035
:101BB000001FFFFFFE00000000000000000000000A
:101BC000001FFFFFFE0000000000000000000000FA
:101BD000001FFFFFFE0000000000000000000000EA
:101BE000001FFFFFFE0000000000000000000000DA
:101BF00000000000000000000000000000000000E5
:101C000000000000000000000000000000000000D4
:101C1000001FFFFFFE0000000000000000000000A9
:101C2000001FFFFFFE000000000000000000000099
:101C3000001FFFFFFE000000000000000000000089
:101C40000000000000000000000000000000000094
:101C50000000000000000000000000000000000084
:101C6000001FFFFFFE000000000000000000000059
:101C7000001FFFFFFE000000000000000000000049
:101C80000000000000000000000000000000000054
:101C90000000000000000000000000000000000044
:101CA0000000000000000000000000000000000331
:101CB000FFFFFFFFFFFFE000000000000000000347
:101CC000FFFFFFFFFFFFE000000000000000000337
:101CD000FFFFFFFFFFFFE000000000000000000327
:101CE000FFFFFFFFFFFFE00000000000000000001A
:101CF00000000000000000000000000000000000E4
:101D000000000000000000000000000000000000D3
:101D100000000000000000000000000000000000C3
:101D200000000000000000000000000000000000B3
:101D300000000000000000000000000000000000A3
:101D40000000000000000000000000000000000093
:101D50000000000000000000000000000000000083
:101D60000000000000000000000000000000000073
:101D7000000000000000000000000000000007CF8D
:101D80001FF008000000380000000000000007CF2E
:101D90001FF818000000380000000000000007CF06
:101DA0001FFC7E7F1F7803E7DF79E000000007CF8C
:101DB0001F3CFEFF9FFC8BE7DFFFF000000007CF1A
:101DC0001F3DFEFFDFFEFBE7DFFFF800000007CF4F
:101DD0001FFCF887DF3EFBE7DF3CF800000007CF81
:101DE0001FF8F87FDF3EFBE7DF3CF800000007FF4D
:101DF0001F70F8FFDF3EFBE7DF3CF800000007FF45
:101E00001F00FEE7DF3EFBE7DF3CF800000003FEBB
:101E10001F00FEE7DF3EFBFFDF3CF800000001FC97
:101E20001F007EFFDF3EF9FFDF3CF800000000F8F6
:101E30001F003E7BDF3EF8F7DF3CF80000000000AB
:101E40000000000000000000000000000000000092
:101E500000000000000000000000000000001FFF64
:101E6000FFFFFFFFFF600000000001FF40000000D7
:101E70000000FF8000000000007F83CF00000C30D6
:101E80003F87FF80000C301F867980000C000F8C8C
:101E900030C7838C30E78C30CFC7CC31F38C30DC4B
:101EA000ECEC33B98C30D86C6C33198C30D06C0CB2
:101EB00033198C30D86C0C33198C30DC6C0E3B1918
:101EC0008C30CF7C079F198C30C77C038F19400062
:101ED0000000000002600000000000061FFFFFFF7E
:101EE000FFFFF82020506C616E6E65724275666669
:101EF000657242797465733A2000204672656520E8
:101F00004D656D6F72793A2000436F6D70696C6535
:101F1000643A204A616E20323320323031390A006F
:101F2000207C20417574686F723A20285550746186
:101F30006E69756D2C20456E6465722D33290A001B
:101F4000323031382D30382D303100204C617374EF
:101F500020557064617465643A2000312E312E3949
:101F60000A004D61726C696E0020536F6674776170
:101F700072652052657365740A0020576174636846
:101F8000646F672052657365740A002042726F7730
:101F90006E206F75742052657365740A0020457851
:101FA0007465726E616C2052657365740A00506FBF
:101FB00077657255700A0073746172740A006175F6
:101FC000746F25692E67006572726F72207772696F
:101FD00074696E6720746F2066696C650A00456ECF
:101FE0006473746F7073202563202563202563203C
:101FF000256300205A3A0020593A0020583A0065DB
:102000006E6473746F7073206869743A2000446F53
:102010006E6520736176696E672066696C652E0A4D
:10202000004D32390050726F7465637465642050DE
:10203000696E0A0020573A004520436F6F6C696E45
:10204000672E2E2E00452048656174696E672E2E1E
:102050002E0020573A0042656420636F6F6C696EF2
:10206000672E2E2E004265642068656174696E6774
:102070002E2E2E00205A3A0020593A0020436F7528
:102080006E7420583A0020453A00205A3A002059F0
:102090003A00583A003A004361703A00205A002052
:1020A0005900580020204D61783A2000205A002025
:1020B0005900580020204D696E3A20004F6E2000D4
:1020C0004F666600536F667420656E6473746F703C
:1020D000733A200023646566696E65204445464175
:1020E000554C545F4B64200023646566696E65201F
:1020F00044454641554C545F4B6920002364656656
:10210000696E652044454641554C545F4B70200034
:10211000504944204175746F74756E652066696E10
:102120006973686564212050757420746865206C3B
:10213000617374204B702C204B6920616E64204BBE
:102140006420636F6E7374616E74732066726F6D5A
:102150002062656C6F7720696E746F20436F6E66C6
:10216000696775726174696F6E2E680A0050494420
:10217000204175746F74756E65206661696C656465
:10218000212074696D656F75740A004531205448CB
:1021900045524D414C2052554E41574159005468CB
:1021A00065726D616C2052756E61776179004531A1
:1021B0002048656174696E67206661696C656400BA
:1021C00048656174696E67206661696C656400507A
:1021D0004944204175746F74756E65206661696C41
:1021E0006564212054656D70657261747572652037
:1021F000746F6F20686967680A00204B643A20009A
:10220000204B693A2000204B703A20000A20436C92
:10221000617373696320504944200A002054753A61
:102220002000204B753A2000206D61783A20002074
:102230006D696E3A200020643A2000206269617363
:102240003A2000504944204175746F74756E6520C2
:102250006661696C656421204261642065787472EE
:1022600075646572206E756D6265720A005049442E
:10227000204175746F74756E652073746172740A91
:1022800000426564204C6576656C696E6720004687
:1022900061696C656420746F20656E61626C652095
:1022A000426564204C6576656C696E670A00205350
:1022B000697A653A2000496E6465783A2000F40135
:1022C0000000F4010000640000008813000000001A
:1022D000FA430000FA43000070410000C8410000CA
:1022E000A0420000A0420000C8430000BE42486F68
:1022F0006D696E67206661696C6564005452494778
:102300004745524544006F70656E003A20007A5F81
:102310006D696E00795F6D696E00785F6D696E0042
:102320005265706F7274696E6720656E6473746F46
:1023300070207374617475730A004572726F722035
:1023400077726974696E6720746F20454550524FEB
:102350004D210A00454550524F4D20646174617310
:10236000697A65206572726F722E0A004573746512
:1023700070732F6D6D004573746570732F6D6D00F4
:102380005A73746570732F6D6D005A737465707332
:102390002F6D6D005973746570732F6D6D005973D7
:1023A000746570732F6D6D005873746570732F6D45
:1023B0006D005873746570732F6D6D004D6F746987
:1023C0006F6E0053746570732F6D6D004A65726B8C
:1023D00000416363656C65726174696F6E00566578
:1023E0006C6F636974790050726F6265205A204F78
:1023F00066667365740050726F6265205A204F667E
:102400006673657400436F6E74726F6C0046696C1E
:102410002E204469612E0046696C2E204469612E8D
:10242000004F6666004F6E20004520696E206D6D7E
:102430003300436F6E74726F6C0043616E6E6F7425
:1024400020656E746572207375626469723A20004B
:10245000022E2E000152656672657368004D616937
:102460006E004D61782054656D703A203132350030
:102470004D696E2054656D703A2035005442656494
:102480003A4550434F53203130304B004D61782056
:1024900054656D703A20323735004D696E205465B1
:1024A0006D703A20350054303A204550434F532048
:1024B0003130304B005053553A2047656E65726994
:1024C000630050726F746F636F6C3A20312E30006E
:1024D000426175643A20313135323030004D656CDF
:1024E0007A692028437265616C69747929007C3CA3
:1024F0003E5E2B3D3F2F5B5D3B2C2A225C005072E1
:10250000656865617420504C4120456E64005072CE
:10251000656865617420504C4120426564005072CA
:10252000656865617420504C41005072657061723D
:102530006500507265686561742041425320456EA4
:1025400064005072656865617420414253204265A1
:102550006400507265686561742041425300507296
:102560006570617265004D3432380050726568657F
:10257000617420504C4100436F6F6C646F776E0044
:10258000507265686561742041425300446973610B
:10259000626C65207374657070657273004D3834B9
:1025A0000053657420686F6D65206F66667365748F
:1025B00073004F6666004F6E2000426564204C65D4
:1025C00076656C696E67004C6576656C2062656443
:1025D000004732380A473239004175746F20686FFE
:1025E0006D6500473238004D6F76652061786973FC
:1025F000004D61696E004D6F76652058004D6F7615
:10260000652059004D6F7665205A004578747275C3
:10261000646572004D6F766520302E316D6D004D12
:102620006F766520316D6D004D6F76652031306DB0
:102630006D004D6F7665206178697300457874721E
:1026400075646572004D6F7665205A004D6F766532
:102650002059004D6F76652058004D3234004D32C0
:102660003320257300556E6B6E6F776E20636F6D30
:102670006D616E643A20220050726F62696E67204D
:102680006661696C65640A0050726F62696E6720EA
:102690006661696C656400205A3A200020593A202E
:1026A0000042656420583A200053442063617264FC
:1026B000206F6B0A006F70656E526F6F74206661D9
:1026C000696C65640A00766F6C756D652E696E695C
:1026D00074206661696C65640A00534420696E6900
:1026E00074206661696C0A00486F6D65202573254A
:1026F000732573206669727374002066697273743F
:102700000A005A0059005800486F6D6520004B4977
:102710004C4C45442E200053544F505045442E20DD
:10272000005072696E7465722073746F70706564A6
:102730002064756520746F206572726F72732E202D
:1027400046697820746865206572726F7220616EC8
:102750006420757365204D39393920746F20726596
:1027600073746172742E202854656D706572617483
:102770007572652069732072657365742E205365C8
:102780007420697420616674657220726573746167
:102790007274696E67290A004E6F20436865636B27
:1027A00073756D2077697468206C696E65206E752D
:1027B0006D6265722C204C617374204C696E653AB1
:1027C00020004E6F20436865636B73756D207769D9
:1027D0007468206C696E65206E756D6265722C2060
:1027E0004C617374204C696E653A200063686563C0
:1027F0006B73756D206D69736D617463682C204C0B
:10280000617374204C696E653A20004C696E6520D6
:102810004E756D626572206973206E6F74204C6115
:102820007374204C696E65204E756D6265722B3134
:102830002C204C617374204C696E653A20004D3138
:102840003130004D3331005344207265616420659E
:1028500072726F720A00446F6E65207072696E74D6
:10286000696E672066696C650A0000060900FE074C
:1028700001920321207FFF07FF07FF0000000600F1
:10288000000107070602008080808080008003022C
:1028900002060105A0A00507070600005050F850E9
:1028A000F850500507070600002078A07028F02097
:1028B000050707060000C0C8102040981805070744
:1028C0000600006090A040A890680203030601047F
:1028D000C040800307070601002040808080402020
:1028E00003070706010080402020204080050505E1
:1028F00006000120A870A82005050506000120207B
:10290000F820200203030602FFC0408005010106F3
:102910000003F8020202060200C0C0050505060019
:10292000010810204080050707060000708888888D
:1029300088887003070706010040C040404040E01F
:10294000050707060000708808708080F8050707F3
:10295000060000F81020100808F005070706000020
:1029600010305090F81010050707060000F880F0AE
:1029700008088870050707060000708080F08888C6
:1029800070050707060000F8081020202020050722
:1029900007060000708888708888700507070600A1
:1029A0000070888878080870020505060200C0C01B
:1029B00000C0C00206060602FFC0C000C04080047E
:1029C0000707060000102040804020100503030682
:1029D0000002F800F80407070601008040201020DC
:1029E00040800507070600007088081020002005B9
:1029F000070706000070880868A8A8700507070682
:102A00000000708888F8888888050707060000F0AD
:102A10008888F08888F005070706000070888080A5
:102A2000808870050707060000F08888888888F08D
:102A3000050707060000F88080F08080F80507078A
:102A4000060000F88080F0808080050707060000FF
:102A5000708880B888887005070706000088888815
:102A6000F8888888010707060200808080808080BF
:102A70008005070706000038101010109060050749
:102A8000070600008890A0C0A090880507070600F0
:102A900000808080808080F805070706000088D8C5
:102AA000A8888888880507070600008888C8A8982D
:102AB0008888050707060000708888888888700560
:102AC0000707060000F08888F08080800507070669
:102AD000000070888888A89068050707060000F045
:102AE0008888F0A09088050707060000788080702D
:102AF0000808F0050707060000F820202020202005
:102B000005070706000088888888888870050707F9
:102B1000060000888888888850200507070600007E
:102B20008888888888A8500507070600008888508C
:102B300020508888050707060000888888502020D4
:102B400020050707060000F80810204080F803075A
:102B500007060100E08080808080E0050505060012
:102B6000018040201008030707060100E020202014
:102B70002020E0050303060004205088050101061B
:102B80000000F80202020602058040050505060065
:102B90000070087888780507070600008080B0C8B4
:102BA0008888F0050505060000708080887005079C
:102BB000070600000808689888887805050506005B
:102BC000007088F880700507070600003048E04074
:102BD0004040400506060600FF70888878087005AA
:102BE00007070600008080B0C888888801070706AC
:102BF0000200800080808080800308080601FF209A
:102C00000020202020A040040707060000808090BC
:102C1000A0C0A090030707060100C040404040400C
:102C2000E0050505060000D0A8A8A8A8050505062A
:102C30000000B0C8888888050505060000708888EF
:102C400088700506060600FFF08888F0808005067B
:102C5000060600FF78888878080805050506000044
:102C6000B0C880808005050506000070807008F0FF
:102C70000407070600004040E040404030050505DD
:102C80000600008888889868050505060000888881
:102C90008850200505050600008888A8A85005056D
:102CA0000506000088502050880506060600FF88AB
:102CB0008888780870050505060000F8102040F89F
:102CC000030707060100204040804040200107071D
:102CD0000602008080808080808003070706010054
:102CE00080404020404080050202060002689000BB
:102CF00000000600005654726176206D696E005621
:102D000054726176206D696E005654726176206D42
:102D1000696E00566D696E00566D696E00566D697C
:102D20006E00566D6178204500566D617820450033
:102D3000566D6178204500566D6178205A00566DB9
:102D40006178205A00566D6178205A00566D61787E
:102D5000205900566D6178205900566D61782059D0
:102D600000566D6178205800566D617820580056E5
:102D70006D61782058004D6F74696F6E00416D6110
:102D800078204500416D6178204500416D617820D3
:102D90005A00416D6178205A00416D6178205900D8
:102DA000416D6178205900416D6178205800416D76
:102DB0006178205800412D74726176656C00412D58
:102DC00074726176656C00412D7265747261637412
:102DD00000412D7265747261637400416363656CB8
:102DE00000416363656C004D6F74696F6E005665DA
:102DF0002D6A65726B0056652D6A65726B005665AB
:102E00002D6A65726B00567A2D6A65726B00567A70
:102E10002D6A65726B0056792D6A65726B00567962
:102E20002D6A65726B0056792D6A65726B00567853
:102E30002D6A65726B0056782D6A65726B00567844
:102E40002D6A65726B004D6F74696F6E005550741A
:102E5000616E69756D2045332041424C2052656199
:102E600064792E005072696E74696E672E2E2E0082
:102E70005072696E74207061757365640050726978
:102E80006E742061626F7274656400496E69742E9D
:102E90002053442063617264004D3231004E6F2034
:102EA00053442063617264004368616E6765205318
:102EB000442063617264004D3231005072696E7457
:102EC0002066726F6D2053440053746F70207072CF
:102ED000696E7400526573756D65207072696E74E9
:102EE0000041626F7574205072696E746572005093
:102EF00061757365207072696E7400436F6E7472D1
:102F00006F6C00507265706172650054756E65007B
:102F1000496E666F2073637265656E004261627907
:102F200073746570205A0042616279737465702011
:102F30005A00466C6F7700466C6F7700466C6F776F
:102F40000046616E2073706565640046616E207393
:102F5000706565640046616E20737065656400424B
:102F600065640042656400426564004E6F7A7A6C65
:102F700065004E6F7A7A6C65004E6F7A7A6C6500E8
:102F800053706565640053706565640053706565D2
:102F900064004D61696E00002CE1D7E111241FBE71
:102FA000CFEFD0E4DEBFCDBF12E0A0E0B1E0EAE8B1
:102FB000FDEE01E00BBF02C007900D92A436B107F1
:102FC000D9F723E1A4E6B2E001C01D92A137B20710
:102FD000E1F717E1CDECD7E104C02197FE010E9493
:102FE0001CF6CC3CD107C9F70E9446E40C94B8F615
:102FF0000C9400002F923F924F925F926F927F92BB
:103000008F929F92AF92BF92CF92DF92EF92FF92F8
:103010000F931F93CF93DF93CDB7DEB7E2970FB631
:10302000F894DEBF0FBECDBF21E020936E068091E5
:103030006A138D3409F481C3843511F40C94A329E7
:10304000873411F00C94EF298091681390916913E3
:103050008D31910509F408C164F48430910509F4B7
:10306000AEC01CF4029768F164C34C9709F4E5C044
:1030700060C38A35910509F49DC244F48E319105EF
:1030800009F4F6C08A9709F4C8C153C38B3591057A
:1030900009F494C28C35910509F04BC3E3E62E2E5A
:1030A000E1E03E2EFCE7EF2EF6E0FF2E84EE9EE000
:1030B0009FA38EA3A4EDCA2EAEE0DA2E00E010E0AE
:1030C000BCC280912901882311F40C94F12913E6E4
:1030D000812E11E0912E08E8E02E06E0F02E04EE9D
:1030E0001EE084EDA82E8EE0B82E94E6C92E92E064
:1030F000D92E712CD4018D914D010E9496C3882345
:1031000019F10E9463C3F6012081211104C02091AE
:103110006802222341F0D8012D913D914D915C919F
:103120000E94C8F30AC0B3E07B1639F0F501208194
:103130003181428153810E94C7F3D7016D937D9302
:103140008D939C9313970AC0F80180819181A2818D
:10315000B381F70180839183A283B3837394F4E0F6
:10316000EF0EF11C0C5F1F4F24E0A20EB11C3FEFCD
:10317000C31AD30A44E07412BDCF86E40E94DFC3B1
:103180008823C9F00E9463C320E030E0A9010E94B7
:103190004BF5181684F40E9463C320E030E040E74A
:1031A00052E40E944BF46093530170935401809356
:1031B0005501909356010E94A5510C94F12980E588
:1031C0000E94DFC3882329F00E941FC36B017C018A
:1031D00003C0C12CD12C760183E50E94DFC3882374
:1031E00061F00E9463C320E030E04AE754E40E94AB
:1031F000EAEF0E94C4F46B017C010E94694B80914C
:103200000111811105C060E08DE791E00E94D8CEE8
:103210000E9451C8C60ED71EE81EF91E0E9451C852
:10322000DC01CB018C199D09AE09BF09B7FD02C0B5
:103230000C94F1290E94E84EF1CF8091D30E877053
:10324000873011F00C94F6298FE40E94DFC38823A5
:1032500019F00E9453C303C08FE40E9496C38111EA
:103260000C94F1290C94F6290E947D7F0C94F1298D
:10327000C090E40ED090E50EE090E60EF090E70EE0
:1032800088E50E94DFC3811109C020E030E048E3F7
:1032900052E4C701B6010E94C7F302C00E9463C393
:1032A00068A379A38AA39BA3C090E80ED090E90EEF
:1032B000E090EA0EF090EB0E89E50E94DFC38111E9
:1032C00009C020E030E040E451E4C701B6010E94AB
:1032D000C7F302C00E9463C39B01AC0169837A8378
:1032E0008B839C8368A179A18AA19BA10E94E74D51
:1032F000882311F40C94F12980E00E94137D0E9430
:10330000AA7D85E40E94DFC3882321F00E9453C375
:10331000182F04C085E40E9496C311E086E50E9440
:10332000DFC3882321F00E942FC3262F01C021E094
:10333000412FBE016F5F7F4FCE0180960E94DDBDA1
:103340006B017C019B01AC010E94C9F581115FC03A
:1033500088A099A0AAA0BBA020E030E0A901C501E7
:10336000B4010E9484EF87FF05C027E137EB41E5F8
:1033700058EB04C027E137EB41E558E3C501B40140
:103380000E94C8F3AB01BC018DEA91E00E9476690E
:1033900089809A80AB80BC8020E030E0A901C50123
:1033A000B4010E9484EF87FF05C027E137EB41E5B8
:1033B00058EB04C027E137EB41E558E3C501B40100
:1033C0000E94C8F3AB01BC0188EA91E00E947669D3
:1033D00020E030E0A901C701B6010E9484EF87FF19
:1033E00005C027E137EB41E558EB04C027E137EB97
:1033F00041E558E3C701B6010E94C8F3AB01BC0127
:1034000083EA91E00E9476698AE00E94FCC30E94F0
:10341000917D0E94438C0C94F1298091290188238D
:1034200011F40C94F12989E40E94DFC3082F88234A
:1034300021F00E942FC3E62E01C0E12C8AE40E94F5
:10344000DFC3182F882321F00E942FC3F62E01C05E
:10345000F12C002319F032E03E1528F0112389F0F9
:1034600042E04F1570F4E5EBF1E084918F010F5FBE
:103470001F4F882311F40C94F1290E94FCC3F8011A
:10348000F4CF0E94F2C30023F1F02091B60E3091E8
:10349000B70E4E2D4203B001439F700D1124809151
:1034A0009A0E90919B0E680F791F072E000C880BC7
:1034B000990B0E948BEF6093880670938906809326
:1034C0008A0690938B061123F1F02091B80E30916B
:1034D000B90E4F2D4203B001439F700D112480910E
:1034E0009C0E90919D0E680F791F072E000C880B83
:1034F000990B0E948BEF60938C0670938D068093DE
:103500008E0690938F0680E50E94DFC38823E9F042
:103510000E9453C38823A9F10023D9F020E030E0B2
:1035200048E352E4609188067091890680918A068A
:1035300090918B060E94C8F3609388067093890669
:1035400080938A0690938B0604C080E50E9496C300
:10355000E1CF1123B1F020E030E040E451E460918C
:103560008C0670918D0680918E0690918F060E9438
:10357000C8F360938C0670938D0680938E069093AB
:103580008F0686E40E94DFC3882309F414CE0E94CC
:1035900063C36B017C0120E030E0A9010E944BF580
:1035A00018160CF008CE20E030E040E752E4C701E6
:1035B000B601F7CD109268020C94F12920936802AD
:1035C0000C94F1290E9463C32B013C01133049F094
:1035D000F60120813181428153810E94C7F32B0182
:1035E0003C01AEA1BFA12D913D914D915C91C301D4
:1035F000B2010E94C7F34B015C012DEB37E346E8B3
:1036000055EB0E944BF587FD20C02DEB37E346E8D4
:1036100055E3C501B4010E9484EF1816B4F01F5F92
:10362000B4E0EB0EF11CEEA1FFA13496FFA3EEA3D4
:10363000F4E0CF0ED11C143039F1D1018D911D0170
:103640000E94DFC3882359F3BDCF133051F4409259
:10365000F00E5092F10E6092F20E7092F30E01E0B5
:10366000DECFA5019401F701608171818281938190
:103670000E94C8F3D7016D937D938D939C9313970C
:10368000812F0E94F883CBCF002309F44EC020E0A5
:1036900030E0A9016091F00E7091F10E8091F20E70
:1036A0009091F30E0E94C8F32091AD0E3091AE0EB2
:1036B0004091AF0E5091B00E0E94EAEF0E9450F57B
:1036C0006093F7027093F8028093F9029093FA02E4
:1036D0009091D5028091D602981719F00E940B4B59
:1036E00024C00E94694B80916F00982F927081FFD7
:1036F00005C080916F008D7F80936F004091F7022D
:103700005091F8026091F9027091FA024093DC0B3B
:103710005093DD0B6093DE0B7093DF0B992329F040
:1037200080916F00826080936F000E94438C0C94A4
:10373000F1290E9477C00C94F1298091681390912F
:1037400069138537910509F48BC70CF0B8C08C3428
:10375000910509F492C40CF050C08931910509F427
:103760009BC21CF58431910509F4A8C17CF4813118
:10377000910509F41DC22CF4029708F4A2C10C941F
:10378000A029429709F4FCC50C94A0298631910523
:1037900009F45BC20CF455C28731910509F45BC290
:1037A000489709F46EC20C94A0298E31910509F452
:1037B00029C384F48B31910509F482C20CF472C2DE
:1037C0008C31910509F414C34D9711F40C94F1292F
:1037D0000C94A0298032910509F418C30CF462C33B
:1037E0008A32910509F414C48B34910511F00C94BC
:1037F000A0290E9496610C94F1298A36910509F45A
:1038000076C5B4F58435910509F4BAC5E4F481357B
:10381000910509F49CC54CF48D34910511F00C947C
:10382000A0290E94CF610C94F1298235910509F4F9
:10383000A3C58335910511F00C94A02981E08093F4
:1038400067020C94F1298C35910509F4E9C534F42B
:103850008535910509F4C9C50C94A02988369105D0
:1038600009F40FC48936910509F4D9C40C94A02930
:103870008F36910509F447C484F48C36910509F418
:1038800095C40CF452C58D36910509F40AC58E36DF
:10389000910509F425C40C94A0298137910509F4F8
:1038A00091C40CF487C48237910509F441C683376B
:1038B000910511F00C94A029E7EBF3E076C68C3269
:1038C00031E0930711F40C9425270CF07CC0893C5F
:1038D000910511F40C945C247CF58C38910509F465
:1038E000E4C4ACF48737910509F415C70CF4C7C6D6
:1038F0008837910509F412C78937910511F00C94A6
:10390000A0291092D30C1092D20C0C94F1298B396F
:10391000910509F49FC434F48139910509F404C771
:103920000C94A0298E3B910509F4DDC4883C9105D7
:1039300009F472C70C94A029833D910511F40C94ED
:10394000722644F58C3C910511F40C9494246CF48B
:103950008B3C910511F00C94A02913E6E12E11E0A7
:10396000F12E07EC12E10C9485248D3C910511F4A5
:103970000C9409258E3C910511F00C94A029A3E626
:10398000CA2EA1E0DA2EB5EDEB2EBCE0FB2E10E046
:103990000C9490258D3D910511F40C9482263CF4F5
:1039A0008C3D910511F40C9475260C94A029823E4F
:1039B000910511F40C94F1268232914011F40C948B
:1039C0001A270C94A029853AB1E09B0711F40C94B6
:1039D0006A28B4F58039F1E09F0711F40C945B2854
:1039E000C4F48E3231E0930711F40C94EE2714F4F2
:1039F0000C944E278F32A1E09A0711F40C944228C0
:103A00008336914011F00C94A029E5EDF7E00C9479
:103A100048288239E1E09E0711F40C94642814F4DC
:103A20000C945E288A3921E0920709F4C7C3843ACE
:103A3000914011F00C94A0290E940D8D0C94F12955
:103A4000883F41E0940711F40C940329ECF4843F7F
:103A5000B1E09B0711F40C94FD283CF48C3A9140A2
:103A600011F40C94A2250C94A029853F21E0920723
:103A700011F40C940029863F914011F00C94A02978
:103A80000E941E960C94F1298B3843E0940711F4A0
:103A90000C94F1293CF48335934011F40C942629BD
:103AA0000C94A029803AE3E09E0709F4EEC1873E1A
:103AB000934011F40C948B290C94A029EFEFF1E0C2
:103AC00082C0A0906613B090671380E50E94DFC3A8
:103AD000882359F00E941FC36B017C0111E0672B02
:103AE000682B692B31F410E004C010E0C12CD12CFC
:103AF000760183E50E94DFC3882311F40C94BB2B6D
:103B00000E9463C320E030E04AE754E40E94EAEFF9
:103B10000E94C4F46B017C0111110BC0672B682B50
:103B2000692B39F4A114B10421F0D5018C918111D4
:103B300002C010E001C011E00E94694B112329F07E
:103B400061E0C5010E9414CF05C060E084ED91E002
:103B50000E94D8CE83E080936E0681E0809380023D
:103B6000C114D104E104F104B1F00E9451C8C60EA1
:103B7000D71EE81EF91E0E9451C8DC01CB018C192A
:103B80009D09AE09BF09B7FF0DC080918002811168
:103B90000C94C02B07C080918002882319F00E94EA
:103BA000E84EF9CF0E943AD7109280020C94F12986
:103BB00060E087EE91E00E94D8CE5E985E981598FE
:103BC0005E980C94F12984918F010F5F1F4F882319
:103BD00021F00E94FCC3F801F6CF1092BF0582E7E6
:103BE00093E00E94A6AE8BE1E2E7F3E0DE011596DA
:103BF00001900D928A95E1F7809170039091710385
:103C00009C838B8381E891E09A83898340E050E034
:103C1000BE016F5F7F4F80E090E00E94EC38CE01E4
:103C200001960E94684EE0EFF1E084918F010F5FF2
:103C30001F4F882311F40C94F1290E94FCC3F80152
:103C4000F4CF0E9481BC0C94F12910921B031092B6
:103C50001C030C94F129E0916613F09167138081A5
:103C6000882329F0803209F410823196F8CF40E0A1
:103C700061E080916613909167130E94B13B0C94B0
:103C8000F12980911C03882319F081E080931B03A4
:103C90000E9496610C94F12910921B030E94BA6154
:103CA0000C94F12980911C03882311F40C94F129C0
:103CB00083E50E94DFC381110C94C42B0C94F1297D
:103CC00083E40E9496C3882309F450C0EDE3F2E038
:103CD00084918F010F5F1F4F882321F00E94FCC346
:103CE000F801F6CF80910D05811103C0E0E1F2E00B
:103CF00012C0BE016F5F7F4F8AE095E00E946DADFC
:103D00008E010F5F1F4FF80181918F01882349F1C8
:103D10000E94FCC3F8CF84918F010F5F1F4F88234F
:103D200001F10E94FCC3F801F6CF65E9C62E62E0FE
:103D3000D62EE12CF12C20E08091CB0590E00E2CCA
:103D400002C0959587950A94E2F780FD0CC24FEF6B
:103D5000E41AF40A82E0C80ED11C95E0E916F104D9
:103D600059F78AE00E94FCC30C94F12980911C034E
:103D7000882339F080911B03882319F0EAE1F2E0EF
:103D800003C0ECE2F2E028C084918F010F5F1F4F67
:103D9000882321F00E94FCC3F801F6CF6091BB0597
:103DA0007091BC058091BD059091BE054AE00E94CE
:103DB000ABC68FE20E94FCC36091B7057091B80555
:103DC0008091B9059091BA054AE00E94ABC68AE09D
:103DD0000E94FCC30C94F12984918F010F5F1F4F47
:103DE000882311F40C94F1290E94FCC3F801F4CF4C
:103DF00040E060E080916613909167130E94B13BB0
:103E00000C94F1290E947A840C94F12980911B036F
:103E100081110E94694B80911C03882311F40C943A
:103E2000F12980E50E94DFC3882319F00E9453C363
:103E300003C080E50E9496C3182F482F61E080914F
:103E40006613909167130E94B13B83E50E94DFC324
:103E5000882381F00E942FC3AB01BC014093BB05B6
:103E60005093BC056093BD057093BE058AE095E054
:103E70000E945EAC80911C03882319F081E080933E
:103E80001B0311110C94F12903CF809166139091BB
:103E9000671321E020931A0340E060E00E94B13BE9
:103EA0000C94F1290E9447617B018C0120E831E5E7
:103EB00041E050E00E948BF3C9016DE671E00E9481
:103EC000D5F54B015C01C801B70120E13EE040E0BF
:103ED00050E00E948BF3CA01B90128E130E040E0D4
:103EE00050E00E948BF3762E672EC62ED72E7CE3F1
:103EF000272E312C412C512CC801B701A201910170
:103F00000E948BF3F62EE72ECA01B901A20191019E
:103F10000E948BF3CB018E010F5F1F4F8114910420
:103F200099F0EF92FF927F936F936F927F92BF927F
:103F3000AF929F928F9284E792E09F938F931F930B
:103F40000F930E941CEF13C0A114B104B1F0EF92C3
:103F5000FF927F936F936F927F92BF92AF9284E6AE
:103F600092E09F938F931F930F930E941CEF0FB6C5
:103F7000F894DEBF0FBECDBF30C0CD2879F0EF92F0
:103F8000FF927F936F936F927F9288E592E09F9369
:103F90008F931F930F930E941CEFE9CF892B69F039
:103FA000EF92FF927F936F9380E592E09F938F93C0
:103FB0001F930F930E941CEFDACFEF92FF928CE4D5
:103FC00092E09F938F931F930F930E941CEF0F908B
:103FD0000F900F900F900F900F9060E0C8010E941B
:103FE00014CFE4E0F8E084917F012FEFE21AF20AA7
:103FF000882321F00E94FCC3F701F5CFB80188E8BF
:1040000092E00E94AC698AE00E94FCC30C94F12902
:1040100083E50E94DFC3882311F40C94F1290E94E8
:104020003FC3E82E80E50E94DFC3882311F40C947F
:10403000F1290E943FC3182F87FF02C00C94F12979
:1040400089E40E94DFC3882341F00E9453C3811199
:104050000C946A2CE4E3F5E00BC089E40E9496C35B
:10406000F6CF319635E0E136F30711F40C946A2C63
:1040700084911813F6CF0C94042C0E94BA610C940E
:10408000F12988E690E00E94388481110C94F1298E
:104090008091CB0583FF02C00C94F12983E50E9437
:1040A000DFC38823C9F00E9463C30E94BDF47093EC
:1040B0003C1360933B1380E00E94436F0E9463C3F4
:1040C00020E030E04AEA52E40E9484EF181624F01F
:1040D0000E94CF610E943AD70E94C7690C94F129CF
:1040E0008EE40E94DFC3882311F40C94F1290E940E
:1040F0002FC360938E0270938F02809390029093EF
:1041000091020C94F12983E50E9496C3882359F00B
:1041100083E50E94DFC3882319F00E943FC301C0DA
:1041200080E08093CB05E4E0F8E084918F010F5F9D
:104130001F4F811103C0E3EAF2E004C00E94FCC3F8
:10414000F801F3CF84918F010F5F1F4F882321F077
:104150000E94FCC3F801F6CF8091CB058111E5CD1B
:10416000EFE9F2E018C0BB24B394B20E222319F099
:104170008CE20E94FCC3F60185919491FC0184912C
:104180008F010F5F1F4F882321F00E94FCC3F801AD
:10419000F6CF2B2DDCCD84918F010F5F1F4F88232D
:1041A00009F4DFCD0E94FCC3F801F5CF1092330172
:1041B0000C94F1298AEA92E00E94844E0E94C38600
:1041C0000C94F12983E50E94DFC3811103C0E4E070
:1041D000F8E00DC00E943FC38D3320F480930D01A1
:1041E0000C94F1298CE380930D010C94F1298491B6
:1041F0008F010F5F1F4F882321F00E94FCC3F8013D
:10420000F6CF40910D0150E060E070E083EB92E06A
:104210000E9459698AE00E94FCC30C94F12989E646
:1042200090E00E943884811111C0EAEBF2E08491A1
:104230008F010F5F1F4F882321F00E94FCC3F801FC
:10424000F6CF0E94B86C8AE00E94FCC310926E0602
:104250000C947F2C83E50E94DFC3882311F40C9417
:10426000F1290E943FC3182F8D3308F01CE31093EF
:104270007B060E9451C86B017C01212F30E0A8EE23
:10428000B3E00E94B8F3C60ED71EE81EF91EC09216
:104290007706D0927806E0927906F0927A060C942E
:1042A000F1290E9464900C94F1298091CB0583FF41
:1042B00002C00C94F12983E50E94DFC3882311F426
:1042C0000C94F1290E9463C30E94BDF46D377105FF
:1042D00014F06DE770E070933A13609339130E9405
:1042E000F76E0C94F1290E948B8E0C94F12980E5D5
:1042F0000E94DFC3811106C083E50E94DFC38823CB
:1043000061F006C00E943FC381110C94F129F4CFE3
:104310000E942FC36F3F710510F06FEF70E0709334
:104320003E1360933D130C94F12980E50E94DFC396
:10433000811106C010923E1310923D130C94F12986
:104340000E942FC3672B11F00C94F129F3CF0E9428
:104350008F6F0E94EF9210923E1310923D1368EE01
:1043600073E080E090E00E94E9CD60E08DEB92E0A8
:104370000E94D8CE0C94F129109267020C94F12976
:1043800083E50E94DFC38823A1F00E9463C320E07D
:1043900030E04AE754E40E94EAEF0E94C4F46093DC
:1043A0000E0170930F0180931001909311010C94F2
:1043B000F12988E50E9496C381110C94D52B89E5DB
:1043C0000E9496C381110C94D52B8AE50E9496C356
:1043D00081110C94D52B85E40E9496C381110C9415
:1043E000D52B0E94EF920C94F12983E50E9496C38D
:1043F000882311F40C94F1290E9463C320E030E07B
:104400004AE754E40E94EAEF0E94C4F46093730602
:104410007093740680937506909376060C94F12938
:1044200043E6C42E41E0D42E51EAE52E5EE0F52E9F
:1044300010E0D6018D916D010E9496C3882309F486
:104440006DC0133009F063C00E9463C34B015C016F
:1044500020E030E040EA51E40E9484EF87FF4EC044
:10446000A50194016091AD0E7091AE0E8091AF0EDA
:104470009091B00E0E944BF42B013C019B01AC01CA
:104480006091FF12709100138091011390910213BB
:104490000E94EAEF6093FF12709300138093011360
:1044A00090930213A30192016091D3127091D412E0
:1044B0008091D5129091D6120E94EAEF6093D312A8
:1044C0007093D4128093D5129093D6126091D80530
:1044D0007091D9058091DA059091DB050E9489EFF2
:1044E000A30192010E94EAEF0E94C4F46093D805F0
:1044F0007093D9058093DA059093DB058092AD0E19
:104500009092AE0EA092AF0EB092B00E07C00E9475
:1045100063C3F70160837183828393831F5FF4E039
:10452000EF0EF11C143009F084CF0E94F76959C7CF
:104530000E94694B83E50E94DFC3882309F4F5C814
:104540000E942FC36230710509F0EFC80E94BD556B
:104550008BE50E94FCC36091C60E7091C70E8091DE
:10456000C80E9091C90E42E00E9434C74091CA0E15
:104570005091CB0E6091CC0E7091CD0E85ED92E0F6
:104580000E9476694091CE0E5091CF0E6091D00E70
:104590007091D10E82ED92E00E9476698DE50E94C5
:1045A000FCC38AE00E94FCC31CC784918F010F5F8B
:1045B0001F4F882321F00E94FCC3F801F6CF60E072
:1045C00087EA93E00E940C8C61E080EA93E00E940D
:1045D0000C8C61E085E993E00E940C8C61E085E839
:1045E00093E00E940C8C60E08CE793E00E940C8CBE
:1045F00061E082E793E00E940C8C61E088E693E042
:104600000E940C8C61E080E693E00E940C8C61E0DB
:1046100082E593E00E940C8C60E084E493E00E94C9
:104620000C8C60E085E393E00E940C8C60E087E2F4
:1046300093E00E940C8C60E081E193E00E940C8C7E
:1046400060E080E093E00E940C8C60E08BEE92E0F2
:104650000E940C8C61E088ED92E00E940C8CC1C637
:104660008091661390916713DC012C91222321F035
:1046700060E00E9414CFB5C60E943AD7B2C600913E
:1046800066131091671383E0D12C40E08150E1F074
:10469000F8019081292F2B7F2134C1F7218121330B
:1046A000A9F7913421F0953421F441E002C0DD24D2
:1046B000D39498012E5F3F4F89012F5F3F4FD80160
:1046C0009C919032C9F3E2CF442369F0E4E0F8E032
:1046D00084917F01BFEFEB1AFB0A882321F00E942F
:1046E000FCC3F701F5CFDD2069F0E2E8F4E0849146
:1046F0007F012FEFE21AF20A882321F00E94FCC307
:10470000F701F5CFD8018D918D01882309F429CBCC
:104710000E94FCC3F7CF0E94E89563C681E08093B6
:10472000D30C8093D20C5DC683E50E94DFC388233F
:1047300019F00E942FC302C060E070E08B011127C6
:1047400002301105D4F0E5EDF7E084918F010F5FA1
:104750001F4F811103C0E6E8F4E004C00E94FCC3CF
:10476000F801F3CF84918F010F5F1F4F882309F465
:1047700038C60E94FCC3F801F5CF88E40E94DFC36D
:104780008823A9F00E942FC36A3A71053CF0653076
:10479000B1E07B072CF064E071E002C06AEA70E0EF
:1047A000F801EE0FFF1FEF51F94F7183608386E42C
:1047B0000E94DFC38823A9F00E942FC3F801EE0FE7
:1047C000FF1FEB51F94F718360836F3F710519F043
:1047D00014F06FEF70E077FF02C060E070E071836B
:1047E000608382E40E94DFC3882309F4FAC50E9433
:1047F0002FC36530710534F06F3671052CF06EE60D
:1048000070E002C065E070E0000F111FF801E35294
:10481000F94F71836083E5C588EC90E00E9438848D
:104820008111DFC584E40E9496C3882309F441C046
:104830000E9463C36B017C0111E020E030E0A9011C
:104840000E9484EF811101C010E01093B50E20E0AA
:1048500030E0A901C701B6010E9484EF882349F125
:104860000E9463C3E091380C24E0E29FF001112420
:10487000EF54F14F608371838283938320E030E0B3
:10488000A9016091B10E7091B20E8091B30E90911A
:10489000B40E0E9484EF81110CC080E090E0A0EE85
:1048A000BFE38093B10E9093B20EA093B30EB0937A
:1048B000B40E0E94579295C503E6E02E01E0F02E5B
:1048C00007ED12E187EEC82E82E1D82ED7018D9137
:1048D0007D010E9496C3882349F00E9463C30E9411
:1048E000C4F4F80160837183828393830C5F1F4F4C
:1048F000C016D10659F70E946B3D73C50C5F1F4F60
:10490000F2E1073D1F0709F46CC5D7018D917D01C8
:104910000E9496C3882391F30E9463C3F8016083C9
:10492000718382839383EACF83E50E94DFC3882368
:10493000A1F00E9463C36093EF127093F012809312
:10494000F1129093F2126093E7127093E812809341
:10495000E9129093EA1210E001C011E080E50E9494
:10496000DFC3882359F00E9463C36093EF127093F2
:10497000F0128093F1129093F21210E082E50E94FF
:10498000DFC3882359F00E9463C36093EB127093D6
:10499000EC128093ED129093EE1210E084E50E94E9
:1049A000DFC3882359F00E9463C36093E7127093BA
:1049B000E8128093E9129093EA1213C5112309F4C7
:1049C00010C54091EF125091F0126091F112709168
:1049D000F2128EEA94E00E9476694091EB125091B7
:1049E000EC126091ED127091EE128BEA94E00E944D
:1049F00076694091E7125091E8126091E912709146
:104A0000EA1288EA94E00E9476698AE00E94FCC378
:104A1000E8C481E50E9496C3882351F00E941FC319
:104A20006093C6057093C7058093C8059093C90528
:104A300083E50E9496C3882351F00E9463C360936C
:104A4000C3127093C4128093C5129093C61284E56A
:104A50000E9496C3882351F00E9463C36093BF12E3
:104A60007093C0128093C1129093C21288E50E9485
:104A700096C3882351F00E9463C36093F31270932E
:104A8000F4128093F5129093F61289E50E9496C372
:104A9000882351F00E9463C36093F7127093F81259
:104AA0008093F9129093FA128AE50E9496C38823A4
:104AB000F1F00E9463C36093FB127093FC12809329
:104AC000FD129093FE122DEC3CEC4CEC5DE30E9449
:104AD00084EF181664F0EEEBF4E084918F010F5F21
:104AE0001F4F882321F00E94FCC3F801F6CF85E414
:104AF0000E9496C3882309F474C40E9463C3609320
:104B0000FF1270930013809301139093021369C4F2
:104B10001F5FF4E0EF0EF11C133011F40C94951BA1
:104B2000D6018D916D010E9496C3882389F30E945E
:104B300063C3F7016083718382839383812F0E9413
:104B4000F883E6CF0E94EFBB81114BC407E519E063
:104B500024EE3EE03FA32EA3CE0101964C01F0EBE4
:104B6000AF2EF9E0BF2E1C01F8016591759185917A
:104B70009491AEA1BFA1CD90DD90ED90FD90BFA32B
:104B8000AEA3A70196010E94C7F32B013C01F101DE
:104B9000608371838283938320E030E040EA51ECAC
:104BA0000E944BF587FD0AC020E030E040EA51E466
:104BB000C301B2010E9484EF18162CF4F501849110
:104BC00018160CF417C6D101CD90DD90ED90FD9034
:104BD0001D0120E030E040EA51ECC701B6010E941F
:104BE0004BF587FD0AC020E030E040EA51E4C70100
:104BF000B6010E9484EF181684F5E5EDF7E0849184
:104C00008F010F5F1F4F811103C0EEE0F5E004C07C
:104C10000E94FCC3F801F3CF84918F010F5F1F4FF7
:104C2000882321F00E94FCC3F801F6CF61E080E008
:104C300095E00E94D8CE0E941C7488E290E099A36F
:104C400088A388EC90E09DA38CA3BE01605E7F4F9B
:104C5000CE0184960E94B838C4C30C5F1F4FBFEFCB
:104C6000AB1ABB0AE9E003361E0709F07DCFE5ED7C
:104C7000EE2EECE0FE2E10E0F40181919191A191D5
:104C8000B1914F01F70181939193A193B1937F016A
:104C9000812F0E94F8831F5F133071F70E94438CAD
:104CA00060E080EF94E00E94D8CE83E992E09DA37B
:104CB0008CA304E610E019A308A3BE016C5D7F4F2E
:104CC000CE0180960E94B8388AEB92E09DA38CA317
:104CD00019A308A3BE016C5D7F4FCE0180960E9490
:104CE000B8387FC30E942E8B7CC383E50E94DFC34C
:104CF000882309F476C30E942FC370935F016093E9
:104D00005E016FC38DED90E00E943884811169C30C
:104D100083E50E94DFC3811103C0E4E0F8E03BC0FB
:104D20000091380C10E00E942FC3000F111FF801F2
:104D3000E45AFE4F718360838091380C90E08C01BF
:104D4000000F111F000F111F9801285A3E4F7901C3
:104D5000880F991FFC01E45AFE4F60817181072E74
:104D6000000C880B990B0E948BEF2AE037ED43E291
:104D70005CE30E94EAEFF801E65EFC4E208131819F
:104D8000428153810E94EAEFD7016D937D938D9309
:104D90009C93139726C384918F010F5F1F4F882325
:104DA00021F00E94FCC3F801F6CF85E40E94FCC309
:104DB0008091380C805D0E94FCC3E091380CF0E0DB
:104DC000EE0FFF1FE45AFE4F608171818CE295E087
:104DD0000E94936985E20E94FCC38AE00E94FCC3A2
:104DE00000C380E50E9496C3882309F4FAC20E949A
:104DF0002FC36B017C0183E50E94DFC3882321F070
:104E00000E942FC38B0102C00FEF1FEFC801019654
:104E1000039708F0E6C2D7FCE4C28C2DE4E3F5E08A
:104E20009491891709F4F0C43196B5E0E136FB0797
:104E3000B9F7EDC48AE50E94DFC3811110C583E58F
:104E40000E94DFC381110BC5CCC283E50E94DFC382
:104E5000882319F00E942FC302C064E071E079A397
:104E600068A380E50E94DFC3882339F00E942FC326
:104E70006938E3E17E0730F402C068EE73E07A83BC
:104E8000698304C088E893E19A838983BE01605EE8
:104E90007F4FCE0101960E94B838A3C285E40E94DC
:104EA000DFC3811110C080E50E9496C3882391F072
:104EB0000E9463C36093D0067093D1068093D2069C
:104EC0009093D30607C00E943FC3882361F3E5EDAA
:104ED000F7E071C089E40E9496C3882381F00E94A4
:104EE00063C32CEA35EC47E25EE30E94EAEF60938D
:104EF000D8067093D9068093DA069093DB0684E493
:104F00000E9496C3882381F00E9463C32CEA35EC8B
:104F100047E25EE30E944BF46093D4067093D5069B
:104F20008093D6069093D706E4E0F8E084918F0151
:104F30000F5F1F4F882321F00E94FCC3F801F6CFBA
:104F40004091D0065091D1066091D2067091D3065F
:104F500089E695E00E9476692CEA35EC47E25EE34B
:104F60006091D8067091D9068091DA069091DB069F
:104F70000E944BF4AB01BC0185E695E00E94766986
:104F80002CEA35EC47E25EE36091D4067091D506D9
:104F90008091D6069091D7060E94EAEFAB01BC0142
:104FA00081E695E00E9476698AE00E94FCC319C2FE
:104FB0000E94FCC3F80184918F010F5F1F4F811184
:104FC000F7CFEDE6F5E084918F010F5F1F4F882347
:104FD00009F407C20E94FCC3F801F5CF83E50E94E3
:104FE00096C3182F882371F00E9463C30E94BDF4FA
:104FF000709302016093010121E0672B09F020E02A
:105000002093CA0580E50E9496C3882359F0209119
:10501000010130910201232B11F00E9453C38093B0
:10502000CA05DFC11111DDC1E4E0F8E084918F0110
:105030000F5F1F4F882321F00E94FCC3F801F6CFB9
:105040008091CA05882319F06FE272E002C062E322
:1050500072E084E995E00E94AC6960910101709171
:10506000020183E895E00E949369EFE7F5E08491FF
:105070008F010F5F1F4F882309F4B3C10E94FCC347
:10508000F801F5CF0E940087ACC10E94FCC3F80173
:1050900084918F010F5F1F4F8111F7CFE7EAF5E091
:1050A00084918F010F5F1F4F882309F49AC10E94DA
:1050B000FCC3F801F5CF0E94694B93C181E00E94C7
:1050C000DB7E0E94438C8DC180E00E94DB7E0E94CB
:1050D000438C87C189E40E94DFC3882321F00E94AA
:1050E0002FC3162F01C01FEF8AE40E94DFC388235D
:1050F00021F00E942FC3062F01C00FEF8AE50E9406
:1051000096C3F82E811105C081E50E9496C3D82E62
:1051100001C0D12C17FD06C007FD04C0F1101CC052
:10512000D1101AC0E5EDF7E084918F010F5F1F4F9A
:10513000811103C0E5EDF5E004C00E94FCC3F80155
:10514000F3CF84918F010F5F1F4F882309F449C16A
:105150000E94FCC3F801F5CF133010F40330D0F0F7
:10516000E5EDF7E084918F010F5F1F4F811103C0C0
:10517000E6EBF5E004C00E94FCC3F801F3CF849194
:105180008F010F5F1F4F882309F42BC10E94FCC3BE
:10519000F801F5CFE12E110FFF08002E000C110BC6
:1051A0000E9463C3D701AA0FBB1FDD2081F0FD0160
:1051B000EE0DFF1DE00FF11FEE0FFF1FEE0FFF1FA3
:1051C000EA58F14F208131814281538103C020E0B0
:1051D00030E0A901EA0EFB1E0E0D1F1D000F111F6E
:1051E000000F111F0A58114F0E94C8F3D8016D9388
:1051F0007D938D939C931397F4C00E94A79CF1C05C
:105200000E94049CEEC020939F0E0E94269710924D
:105210009F0E882309F4E5C0E4E0F8E084918F0153
:105220000F5F1F4F811103C0E5EFF5E004C00E943E
:10523000FCC3F801F3CF84918F010F5F1F4F8823C8
:1052400009F4CFC00E94FCC3F801F5CF8AE50E94A3
:10525000DFC3811103C0E4E0F8E03BC00E9463C3F8
:105260006B017C0120E030E040EA51EC0E944BF5FC
:1052700087FD0AC020E030E040EA51E4C701B601F2
:105280000E9484EF18161CF4E5EDF7E00CC0C09204
:10529000E00ED092E10EE092E20EF092E30EA1C099
:1052A0000E94FCC3F80184918F010F5F1F4F811191
:1052B000F7CFE0E0F6E084918F010F5F1F4F882366
:1052C00009F48FC00E94FCC3F801F5CF0E94FCC313
:1052D000F80184918F010F5F1F4F8111F7CFE0E23A
:1052E000F6E084918F010F5F1F4F882321F00E9409
:1052F000FCC3F801F6CF4091E00E5091E10E6091B1
:10530000E20E7091E30E8DE196E00E9476698AE0EC
:105310000E94FCC366C081E0809329011092441171
:1053200083E50E94DFC3882339F00E9453C38111B3
:1053300058C00E94F15755C083E50E9496C3F7CF2D
:105340000E9477C04EC0F09068130E94694B109184
:10535000BA0E80E00E94137DFF2029F1E4E0F8E01E
:1053600084918F010F5F1F4F882321F00E94FCC39F
:10537000F801F6CF84E50E94FCC36F2D70E080E059
:1053800090E04AE00E94ABC680E20E94FCC3E1E4E8
:10539000F6E084918F010F5F1F4F882311F10E9467
:1053A000FCC3F801F6CF10926D02812F0E94137D8D
:1053B000E4E0F8E084918F010F5F1F4F882321F014
:1053C0000E94FCC3F801F6CF60916D0270E08FE29D
:1053D00096E00E9493698AE00E94FCC302C00E948A
:1053E00077C010926E060E94D45789C20E94694B02
:1053F00080E00E94137D0E94AA7D11E01093D30CDF
:1054000088E50E9496C3382E89E50E9496C3882EAF
:105410008AE50E9496C3282E311005C0811005C070
:10542000B22CB12605C0811002C0B12C01C0B22C33
:105430000E94F2C382E50E94DFC3882361F00E94CC
:1054400063C36B017C0120E030E0A9010E9484EF7E
:10545000882379F106C0C12CD12CB0EAEB2EB0E440
:10546000FB2EB11005C0311003C0882009F411C112
:10547000C0929006D0929106E0929206F092930626
:10548000A70196016091EC0E7091ED0E8091EE0EE9
:105490009091EF0E0E9484EF87FF0BC019821A8251
:1054A0001B821C82BE016F5F7F4F80E996E00E94E5
:1054B000BC7EB1100DC0311003C08110E5C0E9C041
:1054C000811006C080E00E94874CBB20B1F3DCC095
:1054D0001092E80E1092E90E1092EA0E1092EB0E66
:1054E0001092E40E1092E50E1092E60E1092E70E66
:1054F0000E94D8C2E0EBF9E084918AABE4EAF9E0DB
:10550000C590D590E590F490E8EAF9E04590559083
:1055100065907490A7019601C301B2010E9484EFC7
:1055200087FF05C0A7019601C301B20104C0A30112
:105530009201C701B6010E944BF46EA77FA788AB0A
:1055400099ABE7E6F9E085919591A591B4918EA389
:105550009FA3A8A7B9A7E3E6F9E085919591A59146
:10556000B4918AA79BA7ACA7BDA79C01AD016EA172
:105570007FA188A599A50E944BF518162CF4AAA422
:105580000BA51CA59DA404C0AEA00FA118A599A4AD
:105590002EA53FA548A959A9CA01B9010E94EAEF61
:1055A00020E030E040E85FE30E94C8F30E9489F504
:1055B0002A2D302F412F592D0E94EAEF69837A83DB
:1055C0008B839C83E1EBF9E014918091EC0E909138
:1055D000ED0EA091EE0EB091EF0E8EA39FA3A8A7A3
:1055E000B9A720E030E040EC5FE3C301B2010E94C4
:1055F000EAEF2B013C01612F110F770B880B990B00
:105600000E948BEF9B01AC01C301B2010E94EAEF43
:105610002B013C0120E030E040EC5FE3C701B60124
:105620000E94EAEF6B017C01AAA96A2FAA0F770BEF
:10563000880B990B0E948BEF9B01AC01C701B6014F
:105640000E94EAEFFE0131966F01EEA0FFA008A5CF
:1056500019A5A30192010E94C97D0E941396109280
:10566000E80E1092E90E1092EA0E1092EB0E1092D4
:10567000E40E1092E50E1092E60E1092E70EB110B5
:1056800021CF31101FCF19CF81E00E94874CB1107C
:1056900003C0222009F461C08091D30E837083304F
:1056A000F9F060E085E991E00E94D8CEE4E0F8E00E
:1056B00084918F010F5F1F4F811103C0E6E8F1E075
:1056C00004C00E94FCC3F801F3CF84918F010F5FE7
:1056D0001F4F882309F441C00E94FCC3F801F5CF95
:1056E0000E94D8C2E090EC0EF090ED0E0091EE0E0C
:1056F0001091EF0EE0929006F092910600939206C0
:105700001093930680E090E0A3E2B3E480938806D0
:1057100090938906A0938A06B0938B0680E090E070
:10572000A1E0B3E480938C0690938D06A0938E063F
:10573000B0938F0619821A821B821C829E012F5FF2
:105740003F4F69019C01AD0160E070E083E293E4AA
:105750000E94C97D82E00E94874C0E94D8C280913D
:10576000D20C8093D30C0E94917D83E080935701EB
:105770000E94438C36CE11110C94991D0C94921DED
:105780000E94E84E0C94BB1D0E942FC3AB01BC01CC
:105790004093BB055093BC056093BD057093BE0557
:1057A0008AE095E00E945EAC1CCE0E94694B88E5C1
:1057B0000E9496C3882331F05E9A8091D30E8E7F2B
:1057C0008093D30E89E50E9496C3882331F05E9AB8
:1057D0008091D30E8D7F8093D30E8AE50E9496C36D
:1057E000882309F4FECD159A8091D30E8B7F809388
:1057F000D30EF7CDF7FAF094F7F8F094F101C082E8
:10580000D182E282F382DFC90E94E4E8EACD0E94FD
:10581000694BBC2C60E08C2D0E94DB850F3FFFEFB5
:105820001F0759F48C2D0E94838531E020E0892BDD
:1058300009F030E0032F122F05C00130110561F48B
:1058400001E010E08B2D0E9483858017910709F4F9
:10585000C8CD0E94E84EF6CF00E010E0F3CF0E94E2
:1058600063C320E030E040E050EC0E9484EF87FD0D
:1058700012C00E9463C320E030E040E050E40E9488
:105880004BF518161CF00E9463C309C060E070E07D
:1058900080E090E404C060E070E080E090EC209153
:1058A000D30E22FF9ECD0091181310911913209151
:1058B000A90E3091AA0E4091AB0E5091AC0E0E94F1
:1058C000EAEF0E94BDF4600F711F7093191360938B
:1058D000181387CD61E0812F0E94DB856E2D812F0B
:1058E0000E94AC85F12CB701812F0E9417861430DD
:1058F00009F077CDF0923E13E0923D1372CDE2961F
:105900000FB6F894DEBF0FBECDBFDF91CF911F91D0
:105910000F91FF90EF90DF90CF90BF90AF909F904E
:105920008F907F906F905F904F903F902F90089551
:10593000CF92DF92EF92FF920F931F93CF93DF935B
:1059400000D000D0CDB7DEB78091261390912713F9
:10595000A0912813B0912913B7FF08C01092261305
:1059600010922713109228131092291380912A1352
:1059700090912B13A0912C13B0912D1340912613CD
:10598000509127136091281370912913841795075C
:10599000A607B70744F48093261390932713A09388
:1059A0002813B093291380915701882379F14091EE
:1059B0002613509127136091281370912913809119
:1059C0002E1390912F13A0913013B09131136A01CF
:1059D0007B01C80ED91EEA1EFB1EC701B6010E943C
:1059E00089EF20E030E048EC52E40E94EAEF69835E
:1059F0007A838B839C83CE0101960E9464CBBC0189
:105A000080913413909135130E943A7410917E0264
:105A100011110AC080913613882309F442C0809185
:105A20005701882309F43DC0409126135091271354
:105A3000609128137091291380912E1390912F1348
:105A4000A0913013B09131136A017B01C80ED91EA9
:105A5000EA1EFB1EC701B6010E9489EF20E030E07C
:105A600048EC52E40E94EAEF0E94C4F4E091321341
:105A7000F0913313309721F0608371838283938395
:105A8000E0913713F0913813309731F0809136134D
:105A9000811101C01111099580917E0281110E942E
:105AA000237410927E020F900F900F900F90DF9151
:105AB000CF911F910F91FF90EF90DF90CF900895BD
:105AC000CF92DF92EF92FF920F931F93CF93DF93CA
:105AD00000D000D0CDB7DEB7809126139091271368
