:100000000C94D8170C9402180C9402180C94021833
:100010000C9402180C9402180C9402180C940218F8
:100020000C9402180C9402180C9402180C940218E8
:100030000C9402180C94FF570C9402180C9402189C
:100040000C9402180C949E640C9424DF0C940218F7
:100050000C9415CF0C9402180C9402180C940218EE
:100060000C9402180C9402180C9402180C940218A8
:100070000C9402180C9402180C9402180C94021898
:100080000C9402180C9402180C9402187DDB44DACC
:100090007BDAB9DB7BDA7BDA7BDA7BDA7BDA7BDA79
:1000A0007BDA7BDA7BDA7BDA7BDA7BDA7BDA7BDAA8
:1000B0007BDA7BDA7BDA7BDA7BDA7BDA7BDA7BDA98
:1000C0007BDA7BDA7BDA7BDAB3DB7BDA7BDA7BDA4F
:1000D0007BDA7BDA7BDA7BDA7BDA8CDB7BDA7BDA66
:1000E0007BDA7BDA7BDA7BDA7BDA7BDA7BDA7BDA68
:1000F000D0DB78DA63DC66DC59DC5DDC7DDC7DDC62
:100100006ADC6EDC74DC78DC93DE98DE9DDEA7DED4
:10011000D5DED5DEB1DEB9DEC1DECBDE4E414E49E5
:100120004E495459494E46CDCCCC3D0AD7233C17B5
:10013000B7D13877CC2B329595E6241FB14F0A0002
:100140000020410000C84200401C4620BCBE4CCAF2
:100150001B0E5AAEC59D74434F4D4D554E494341FC
:1001600054494F4E0044525952554E004552524F39
:10017000525300494E464F004543484F00536C656B
:1001800065702E2E2E00486F6D65205859206669C7
:100190007273740A00486F6D652058592066697241
:1001A000737400205A3A200020593A2000426564B6
:1001B00020583A20004D65736820706F696E742076
:1001C00063616E6E6F74206265207265736F6C760A
:1001D00065640A00436C69636B20746F20726573F9
:1001E000756D652E2E2E004E6F206D6F76652E007C
:1001F000456E642066696C65206C6973740A004200
:100200006567696E2066696C65206C6973740A00A5
:10021000286E6F2066696C652900534420707269EE
:100220006E74696E67206279746520004E6F742069
:100230005344207072696E74696E670A0043757268
:1002400072656E742066696C653A200025697300DA
:1002500025696D20256973002569682025696D2051
:1002600025697300256964202569682025696D204A
:10027000256973002569792025696420256968202E
:1002800025696D20256973005072696E7420746948
:100290006D653A2000780173016C01650157016FAB
:1002A00066660044454255473A004B494C4C45442C
:1002B0002E20004D3131332053006F6B00555074A8
:1002C000616E69756D2045332041424C2076312E98
:1002D00031204F66662E002C20002C20005448450B
:1002E000524D414C5F50524F54454354494F4E007C
:1002F0004155544F5245504F52545F53445F5354ED
:100300004154555300454D455247454E43595F5062
:10031000415253455200434153455F4C494748546D
:100320005F4252494748544E45535300544F474744
:100330004C455F4C494748545300534F465457412E
:1003400052455F504F574552004255494C445F500B
:10035000455243454E54004C4556454C494E475F27
:1003600044415441005A5F50524F42450041555458
:100370004F4C4556454C005052494E545F4A4F42EF
:100380000050524F4752455353004155544F524528
:10039000504F52545F54454D5000564F4C554D45AB
:1003A0005452494300454550524F4D005345524920
:1003B000414C5F584F4E5F584F4646004649524D9C
:1003C000574152455F4E414D453A4D61726C696EE1
:1003D00020312E312E392028476974687562292012
:1003E000534F555243455F434F44455F55524C3A36
:1003F00068747470733A2F2F6769746875622E631E
:100400006F6D2F4D61726C696E4669726D776172A6
:10041000652F4D61726C696E2050524F544F434F9F
:100420004C5F56455253494F4E3A312E30204D4184
:100430004348494E455F545950453A555074616E92
:1004400069756D2045332041424C2076312E312094
:1004500045585452554445525F434F554E543A31D6
:1004600020555549443A63656465326132662D34DE
:100470003161322D343734382D396231322D6335C4
:10048000356336326633363766660A002F2F200012
:100490004D31343520533C696E6465783E206F756C
:1004A00074206F662072616E67652028302D3129B7
:1004B0000A00205400205200416363656C6572613C
:1004C00074696F6E3A2050005741524E494E472191
:1004D000204C6F77205A204A65726B206D6179201D
:1004E0006C65616420746F20756E77616E746564ED
:1004F000207061757365732E0A004F6666736574AC
:1005000073206170706C696564004572723A2054A2
:100510006F6F206661722100546F6F2066617220D8
:1005200066726F6D207265666572656E63652070B8
:100530006F696E740A0020466C6F773A20000001E4
:100540000F150E12FFFFFFFF16170E13FFFFFFFF21
:1005500003021A14FFFFFFFFFFFFFF0C04FFFFFF62
:1005600001000EFFFFFF0C190DFF1820643A002058
:10057000693A0020703A00496E76616C69642065C2
:10058000787472756465720A0043290A0061626CAE
:10059000656420286D696E2074656D702000436F5E
:1005A0006C6420657874727564657320617265206F
:1005B000004E6F2063617365206C696768740A0080
:1005C0004D65736820706F696E742063616E6E6F25
:1005D00074206265207265736F6C7665640A004DE5
:1005E00034323120696E636F72726563742070619A
:1005F00072616D657465722075736167650A004587
:100600004550524F4D204F4B0A003F5A206F757492
:10061000206F662072616E676520282D323020744D
:100620006F203230290A003A200050726F62652034
:100630005A204F666673657400416374697665205D
:1006400045787472756465723A2000496E76616C03
:1006500069642065787472756465720A00577269FE
:1006600074696E6720746F2066696C653A20006F4C
:1006700070656E206661696C65642C2046696C65E6
:100680003A20006F70656E206661696C65642C208D
:1006900046696C653A200046696C652073656C6537
:1006A000637465640A002053697A653A20004669DC
:1006B0006C65206F70656E65643A20002066696C19
:1006C000653A2000646F696E670066726573680042
:1006D0004E6F772000454E4420535542524F55549B
:1006E000494E450A002220706F730022207061720B
:1006F000656E743A2200535542524F5554494E4547
:100700002043414C4C207461726765743A22004B5F
:10071000494C4C45442E2000747279696E672074F0
:100720006F2063616C6C207375622D67636F646505
:100730002066696C6573207769746820746F6F2018
:100740006D616E79206C6576656C732E204D415815
:10075000206C6576656C2069733A004572726F7221
:100760003A006F70656E206661696C65642C204686
:10077000696C653A200043616E6E6F74206F70651E
:100780006E2073756264697220006563686F3A0059
:1007900020746F6F206C6F6E67206578747275734C
:1007A000696F6E2070726576656E7465640A0020EC
:1007B000636F6C6420657874727573696F6E2070F6
:1007C000726576656E7465640A00526573656E6461
:1007D0003A20006F6B0020746F6F206C6F6E672083
:1007E000657874727573696F6E2070726576656E68
:1007F0007465640A0020636F6C6420657874727598
:1008000073696F6E2070726576656E7465640A0038
:10081000627573793A2070617573656420666F72D2
:1008200020696E7075740A00627573793A20706180
:100830007573656420666F7220757365720A006255
:100840007573793A2070726F63657373696E670AA6
:10085000004B494C4C45442E20004B494C4C2063E6
:10086000617573656420627920746F6F206D7563A4
:100870006820696E6163746976652074696D6520AE
:100880002D2063757272656E7420636F6D6D616E7D
:10089000643A2000506C65617365207265736574FD
:1008A000005052494E5445522048414C5445440052
:1008B0005072696E7465722068616C7465642E2074
:1008C0006B696C6C28292063616C6C6564210A007B
:1008D000656E7175657565696E67202200000000A0
:1008E0000000000000000000000000484200004836
:1008F0004200008040000000005761726E696E6720
:100900003A20486F6D696E672042756D70204469AA
:100910007669736F72203C20310A000202040000E5
:10092000A0400000A0400000004000007043000014
:10093000704300008243FFFFFF4578747275646561
:1009400072004D6F7665205A004D6F766520590014
:100950004D6F766520580050726570617265004970
:100960006E697469616C697A6520454550524F4DD6
:1009700000436F6E74726F6C00526573746F7265B2
:10098000206661696C73616665004C6F61642073F9
:10099000657474696E677300496E697469616C6926
:1009A0007A6520454550524F4D0053746F72652053
:1009B00073657474696E67730046696C616D656E0A
:1009C00074004D6F74696F6E0054656D706572616F
:1009D00074757265004D61696E004D33303320557A
:1009E000312045256920532569005072656865618D
:1009F000742041425320636F6E66005072656865D3
:100A0000617420504C4120636F6E66005049442051
:100A10004175746F74756E6500504944204175745A
:100A20006F74756E6500504944204175746F74751C
:100A30006E65005049442D44005049442D440050F7
:100A400049442D49005049442D49005049442D50F6
:100A5000005049442D500020082046616374002056
:100A6000082046616374002008204D61780020084A
:100A7000204D6178002008204D6178002008204D2D
:100A8000696E002008204D696E002008204D696EB7
:100A9000004F6666004F6E20004175746F74656D7F
:100AA000700046616E2073706565640046616E205B
:100AB00073706565640046616E20737065656400DF
:100AC0004265640042656400426564004E6F7A7A54
:100AD0006C65004E6F7A7A6C65004E6F7A7A6C6541
:100AE00000436F6E74726F6C0053746F7265207385
:100AF000657474696E6773004265640042656400E2
:100B0000426564004E6F7A7A6C65004E6F7A7A6C3B
:100B100065004E6F7A7A6C650046616E2073706571
:100B200065640046616E2073706565640046616EA1
:100B30002073706565640054656D706572617475CD
:100B400072650024F4D43050C38E20C2A2401782B4
:100B50008B7011127A910D816CD90AA861E108C7D6
:100B6000586607615143061E4B5D05C145A7041A2F
:100B7000411104093D9803713931034036DB0265A8
:100B8000339102D4305402802E1D02632CEE017585
:100B90002AC501B028A001102781018F2564012BEF
:100BA000244B01E0223401AC211F018D200D018076
:100BB0001FFC00841EED00971DDF00B81CD200E66C
:100BC0001BC600201BBC00641AB200B219A8000AA0
:100BD00019A0006A189900D117910040178B00B531
:100BE00016840031167E00B31579003A157300C7DC
:100BF000146F0058146A00EE136600881363002512
:100C0000135E00C7125B006C12570015125400C12E
:100C100011510070114F0021114B00D61049008D69
:100C20001047004610440002104200C00F400080F0
:100C30000F3E00420F3C00060F3B00CB0E380093E6
:100C40000E37005C0E3500270E3400F30D3200C164
:100C50000D3100900D3000600D2E00320D2D00057D
:100C60000D2C00D90C2B00AE0C2900850C29005C42
:100C70000C2700350C27000E0C2600E80B2400C4BE
:100C80000B2400A00B23007D0B23005A0B210039FD
:100C90000B2100180B2000F80A1F00D90A1E00BB08
:100CA0000A1E009D0A1D00800A1D00630A1C0047E1
:100CB0000A1B002C0A1B00110A1A00F7091A00DD92
:100CC000091900C4091900AB091900920917007B22
:100CD000091800630917004C091600360916002090
:100CE0000916000A091500F5081500E0081400CCE3
:100CF000081400B8081400A4081400900813007D1C
:100D00000812006B0813005808120046081200343D
:100D1000081100230811001208110001081100F049
:100D2000071000E0071000D0071000C0071000B047
:100D3000070F00A107100091070E0083070F007432
:100D4000070F0065070E0057070E0049070E003B0E
:100D5000070D002E070E0020070D0013070D0006DB
:100D6000070D00F9060C00ED060D00E0060C00D49E
:100D7000060C00C8060C00BC060C00B0060C00A453
:100D8000060B0099060C008D060B0082060B0077FF
:100D9000060B006C060B0061060A0057060B004CA0
:100DA000060A0042060A0038060A002E060A002437
:100DB000060A001A060A001006090007060A00FDC6
:100DC000050900F4050900EB050900E2050900D951
:100DD000050900D0050900C7050900BE050900B5D1
:100DE000050800AD050800A50509009C050800944C
:100DF0000508008C050800840508007C05080074BF
:100E00000508006C050700650508005D050700562C
:100E10000508004E05070047050700400508003893
:100E2000050700310507002A050700230507001CF8
:100E3000050600160507000F050700080506000255
:100E4000050700FB040600F5040700EE040600E8B1
:100E5000040600E2040700DB040600D5040600CF08
:100E6000040600C9040600C3040600BD040600B75A
:100E7000040600B1040500AC040600A6040600A0A8
:100E80000405009B04060095040500900406008AF2
:100E900004050085040500800406007A0405007539
:100EA000040500700405006B04050066040500617C
:100EB0000405005C04050057040500520405004DBC
:100EC00004050048040500430405003E0404003AFC
:100ED00004050035040500300404002C0405002737
:100EE000040400230405001E0404001A0404001670
:100EF000040500110404000D0404000904050004A5
:100F000004040000040400FC030400F8030400F4DB
:100F1000030400F0030400EC030400E8030400E40D
:100F2000030400E0030400DC030400D8030400D43D
:100F3000030400D0030400CC030400C8030300C56D
:100F400003030024F404D9201BC40C5C0E9804C4D1
:100F5000095F0265077101F405F900FB04B300485D
:100F6000048700C10369005803550003034500BE10
:100F7000023A008402310053022A002902250004AB
:100F8000022000E4011C00C8011900AF01170098FD
:100F9000011400840113007101100061011000515F
:100FA000010E0043010D0036010B002B010B002048
:100FB000010B00150109000C01090003010800FBE9
:100FC000000800F3000800EB000700E4000600DE64
:100FD000000600D8000600D2000600CC000500C7BD
:100FE000000500C2000500BD000400B9000400B502
:100FF000000400B1000400AD000400A9000400A535
:10100000000300A20003009F0004009B000300985F
:101010000003009500020093000300900003008D80
:101020000002008B0003008800020086000200849A
:10103000000300810002007F0002007D0002007BAF
:1010400000020079000200770001007600020074BF
:1010500000020072000100710002006F0002006DCA
:101060000001006C0002006A0001006900020067D4
:1010700000010066000100650001006400020062DA
:1010800000010061000100600001005F0002005DDE
:101090000001005C0001005B0001005A00010059E2
:1010A00000010058000100570001005600010055E2
:1010B00000010054000100530000005300010052E1
:1010C00000010051000100500001004F0001004EDE
:1010D0000000004E0001004D0001004C0001004BDB
:1010E0000000004B0001004A0001004900010048D7
:1010F00000000048000100470001004600000046D3
:1011000000010045000000450001004400010043CB
:1011100000000043000100420000004200010041C5
:1011200000000041000100400001003F0000003FBE
:101130000001003E0000003E0001003D0000003DB7
:101140000001003C0000003C0000003C0001003BAE
:101150000000003B0001003A0000003A00010039A5
:10116000000000390001003800000038000000389D
:101170000001003700000037000100360000003693
:101180000000003600010035000000350000003589
:10119000000100340000003400000034000100337E
:1011A0000000003300000033000100320000003274
:1011B0000000003200010031000000310000003169
:1011C0000001003000000030000000300001002F5E
:1011D0000000002F0000002F0000002F0001002E53
:1011E0000000002E0000002E0001002D0000002D48
:1011F0000000002D0000002D0001002C0000002C3C
:101200000000002C0000002C0001002B0000002B2F
:101210000000002B0000002B0001002A0000002A23
:101220000000002A0000002A000100290000002917
:10123000000000290000002900000029000100280A
:1012400000000028000000280000002800000028FE
:1012500000010027000000270000002700000027F1
:1012600000000027000100260000002600000026E4
:1012700000000026000000260001002500000025D7
:1012800000000025000000250000002500000025CA
:1012900000010024000000240000002400000024BD
:1012A00000000024000100230000002300000023B0
:1012B00000000023000000230000002300000023A2
:1012C0000001002200000022000000220000002295
:1012D0000000002200000022000100210000002187
:1012E000000000210000002100000021000000217A
:1012F000000000210001002000000020000000206C
:10130000000000200000002000000020000000205D
:10131000000000200001001F0000001F0000001F4F
:101320000000001F0000001F0000001F0000001F41
:101330000001001E0000001E0000001E0000001E34
:10134000000000043700001E290000511B00005857
:1013500010000010090000CC0400007802000041D9
:101360000100006265640A002C2073797374656D56
:101370002073746F707065642120486561746572B4
:101380005F49443A20004265642068656174696E73
:1013900067206661696C65640048656174696E67A1
:1013A000206661696C656400453120486561746937
:1013B0006E67206661696C65640048656174696E7A
:1013C00067206661696C65640070012C01900127DB
:1013D00001B0012201C0011D01F00118011002132A
:1013E0000130020E016002090190020401C002FFF7
:1013F000000003FA004003F5008003F000D003EB87
:10140000002004E6007004E100E004DC004005D7A1
:1014100000C005D2004006CD00D006C8008007C33A
:10142000003008BE00F008B900C009B400B00AAF2F
:1014300000B00BAA00D00CA500000EA000500F9B1E
:1014400000C01096005012910000148C00C0158747
:1014500000B0178200B0197D00D01B7800001E7309
:101460000040206E0090226900F024640040275F55
:101470000090295A00E02B5500102E500020304BD0
:101480000010324600E033410090353C0010373701
:101490000070383200A0392D00B03A2800A03B235C
:1014A00000603C1E00103D1900903D1400103E0FDE
:1014B00000703E0A00C03E0500003F0000403FFBB8
:1014C000FF803FF6FFC03FF1FF45312054484552B1
:1014D0004D414C2052554E41574159004245442000
:1014E000544845524D414C2052554E4157415900A8
:1014F000546865726D616C2052756E617761790018
:101500004531204572723A204D415854454D5000A6
:101510004572723A204D415854454D502042454441
:10152000004D415854454D5020747269676765728B
:101530006564004531204572723A204D494E54454C
:101540004D50004572723A204D494E54454D502041
:10155000424544004D494E54454D502074726967D0
:101560006765726564004D383420582059205A2030
:101570004500202F002042403A0020403A0000065B
:101580000900FE000000000001090008FE0000053F
:10159000080806000040F0C88888987810050808F8
:1015A000060000C0F88888888888F80505050600C8
:1015B000012030F830200508080600002070F820CF
:1015C000202020E00509090600FF2070A8A8B8889F
:1015D0008870200509090600FFE080C0B0A8283007
:1015E00028280509090600FFF8A88888888888A89F
:1015F000F8050A0A0600FE205050505088A8A88816
:101600007003030306000340A04025753A253032DD
:101610007500253032753A25303275002575642005
:10162000253032753A2530327500202020202020C8
:10163000005A0059002020202000580009200000F6
:1016400000000000000000000000003FFFF000006C
:1016500000000000000000000000380070000000E2
:1016600000000000000000000030FC30000000001E
:10167000000000000000000020FC1000000000003E
:1016800000000000000000207810000000000000B2
:1016900000000000000020301000000000000000EA
:1016A00000000000002C00D03FC00000000000003F
:1016B000002082002E31D07FE000000000000000FA
:1016C0001041002F7BD07FE00000000000000010E0
:1016D00041002F7BD07FE00000000000000020824E
:1016E000002E31D03FC00000000000000041040087
:1016F0002C00D03FC0000000000000008208002045
:1017000030107FE000000000000000820800207818
:10171000107FE00000000000000041040020FC10E9
:101720007FE00000000000000020820030FC301F3D
:1017300080000000000000000000003800700F0072
:1017400000000000000000FFFFC03FFFF0060000A7
:10175000000000000000FFFFC000000000000000CB
:1017600000000000000000003FFFF000000000004B
:1017700000000000000000380070000000000000C1
:101780000000000000003186300000000000000072
:10179000000000000023871000000000000000008F
:1017A00000000000278790000000000000000000FB
:1017B0000000002F87D000000000000000000000A3
:1017C00000002F03D03FC000000000000000208276
:1017D000002030107FE000000000000000104100F9
:1017E0002078107FE0000000000000001041002081
:1017F00078107FE000000000000000208200203010
:10180000103FC0000000000000004104002F03D082
:101810003FC0000000000000008208002F87D07F3A
:10182000E0000000000000008208002787907FE0B1
:10183000000000000000004104002387107FE0004A
:101840000000000000002082003186301F80000070
:1018500000000000000000003800700F00000000D1
:1018600000000000FFFFC03FFFF006000000000086
:10187000000000FFFFC000000000060900FE070195
:10188000920321207FFF07FF07FF000000060000F2
:10189000010707060200808080808000800302022A
:1018A000060105A0A00507070600005050F850F8F3
:1018B00050500507070600002078A07028F020058A
:1018C0000707060000C0C810204098180507070643
:1018D00000006090A040A89068020303060104C0C5
:1018E00040800307070601002040808080402003DD
:1018F00007070601008040202020408005050506DE
:10190000000120A870A8200505050600012020F888
:1019100020200203030602FFC040800501010600EB
:1019200003F8020202060200C0C005050506000118
:101930000810204080050707060000708888888806
:10194000887003070706010040C040404040E005A2
:101950000707060000708808708080F805070706F2
:101960000000F81020100808F00507070600001016
:10197000305090F81010050707060000F880F008B6
:10198000088870050707060000708080F08888705E
:10199000050707060000F80810202020200507078B
:1019A00006000070888870888870050707060000A8
:1019B00070888878080870020505060200C0C0001B
:1019C000C0C00206060602FFC0C000C04080040777
:1019D0000706000010204080402010050303060089
:1019E00002F800F80407070601008040201020409C
:1019F00080050707060000708808102000200507F2
:101A00000706000070880868A8A870050707060088
:101A100000708888F8888888050707060000F08825
:101A200088F08888F00507070600007088808080AD
:101A30008870050707060000F08888888888F00508
:101A40000707060000F88080F08080F80507070689
:101A50000000F88080F08080800507070600007095
:101A60008880B8888870050707060000888888F88D
:101A70008888880107070602008080808080808037
:101A800005070706000038101010109060050707C2
:101A90000600008890A0C0A09088050707060000F7
:101AA000808080808080F805070706000088D8A81D
:101AB000888888880507070600008888C8A898884D
:101AC00088050707060000708888888888700507E1
:101AD00007060000F08888F0808080050707060070
:101AE0000070888888A89068050707060000F088BD
:101AF00088F0A090880507070600007880807008AD
:101B000008F0050707060000F82020202020200507
:101B100007070600008888888888887005070706F8
:101B200000008888888888502005070706000088FC
:101B300088888888A85005070706000088885020F4
:101B400050888805070706000088888850202020D4
:101B5000050707060000F80810204080F803070773
:101B6000060100E08080808080E005050506000118
:101B70008040201008030707060100E020202020F5
:101B800020E005030306000420508805010106003B
:101B900000F8020202060205804005050506000065
:101BA00070087888780507070600008080B0C8882C
:101BB00088F005050506000070808088700507071D
:101BC0000600000808689888887805050506000062
:101BD0007088F880700507070600003048E0404034
:101BE00040400506060600FF7088887808700507E3
:101BF000070600008080B0C88888880107070602B1
:101C000000800080808080800308080601FF20009B
:101C100020202020A040040707060000808090A01C
:101C2000C0A090030707060100C04040404040E0CC
:101C3000050505060000D0A8A8A8A805050506000A
:101C400000B0C88888880505050600007088888867
:101C5000700506060600FFF08888F08080050606FD
:101C60000600FF788888780808050505060000B09A
:101C7000C880808005050506000070807008F004AB
:101C800007070600004040E04040403005050506DB
:101C900000008888889868050505060000888888FF
:101CA00050200505050600008888A8A850050505F0
:101CB00006000088502050880506060600FF888828
:101CC00088780870050505060000F8102040F80324
:101CD000070706010020404080404020010707061A
:101CE00002008080808080808003070706010080DA
:101CF000404020404080050202060002689000003B
:101D00000006000020496E76616C69642065787475
:101D10007275646572200000000000000000000081
:101D20000000000000704300007043000082434246
:101D3000696C696E656172204C6576656C696E6769
:101D400020477269643A0A00202844525952554E7D
:101D50002900473239204175746F20426564204C58
:101D60006576656C696E67003F20284C2C522C46C6
:101D70002C4229206F7574206F6620626F756E6427
:101D8000732E0A003F2856296572626F7365206CB6
:101D90006576656C20697320696D706C6175736917
:101DA000626C652028302D34292E0A00426164209F
:101DB0005A2076616C75650A004E6F2062696C6905
:101DC0006E65617220677269640A0046696C6520FD
:101DD00064656C657465643A0044656C6574696F2C
:101DE0006E206661696C65642C2046696C653A20DA
:101DF0000050726F7465637465642050696E0A00E8
:101E000020573A004520436F6F6C696E672E2E2E67
:101E100000452048656174696E672E2E2E0020579C
:101E20003A0042656420636F6F6C696E672E2E2ED8
:101E3000004265642068656174696E672E2E2E000D
:101E4000205A3A0020593A0020436F756E7420588A
:101E50003A0020453A00205A3A0020593A00583AB0
:101E6000003A004361703A00205A0020590058009F
:101E700020204D61783A2000205A00205900580057
:101E800020204D696E3A20004F6E20004F6666009C
:101E9000536F667420656E6473746F70733A2000BC
:101EA00023646566696E652044454641554C545F20
:101EB0004B64200023646566696E65204445464195
:101EC000554C545F4B69200023646566696E65203C
:101ED00044454641554C545F4B70200050494420C6
:101EE0004175746F74756E652066696E6973686597
:101EF00064212050757420746865206C61737420AF
:101F00004B702C204B6920616E64204B6420636F02
:101F10006E7374616E74732066726F6D2062656C8F
:101F20006F7720696E746F20436F6E666967757294
:101F30006174696F6E2E680A0050494420417574BF
:101F40006F74756E65206661696C656421207469C3
:101F50006D656F75740A00453120544845524D41F6
:101F60004C2052554E4157415900546865726D617D
:101F70006C2052756E61776179004531204865614A
:101F800074696E67206661696C6564004865617498
:101F9000696E67206661696C656400504944204140
:101FA00075746F74756E65206661696C6564212057
:101FB00054656D706572617475726520746F6F2001
:101FC000686967680A00204B643A2000204B693A30
:101FD0002000204B703A20000A20436C6173736923
:101FE0006320504944200A002054753A2000204BB9
:101FF000753A2000206D61783A2000206D696E3AB4
:10200000200020643A200020626961733A20005069
:102010004944204175746F74756E65206661696C02
:10202000656421204261642065787472756465720C
:10203000206E756D6265720A0050494420417574C6
:102040006F74756E652073746172740A0042656402
:10205000204C6576656C696E6720004661696C6529
:102060006420746F20656E61626C65204265642037
:102070004C6576656C696E670A002053697A653A2B
:102080002000496E6465783A2000F4010000F401F4
:10209000000064000000881300000000FA43000004
:1020A000FA43000070410000C8410000A042000057
:1020B000A0420000C8430000BE42486F6D696E67D1
:1020C000206661696C656400545249474745524532
:1020D00044006F70656E003A20007A5F6D696E0093
:1020E000795F6D696E00785F6D696E005265706F23
:1020F0007274696E6720656E6473746F7020737498
:10210000617475730A0056652D6A65726B005665B9
:102110002D6A65726B0056652D6A65726B00567A82
:102120002D6A65726B00567A2D6A65726B0056795E
:102130002D6A65726B0056792D6A65726B0056794F
:102140002D6A65726B0056782D6A65726B00567841
:102150002D6A65726B0056782D6A65726B004D6F43
:1021600074696F6E004573746570732F6D6D0045F3
:1021700073746570732F6D6D005A73746570732F6F
:102180006D6D005A73746570732F6D6D00597374A3
:102190006570732F6D6D005973746570732F6D6D5D
:1021A000005873746570732F6D6D0058737465708B
:1021B000732F6D6D004D6F74696F6E005374657091
:1021C000732F6D6D004A65726B00416363656C65CA
:1021D000726174696F6E0056656C6F636974790023
:1021E00050726F6265205A204F66667365740050A6
:1021F000726F6265205A204F666673657400436F84
:102200006E74726F6C0046696C2E204469612E00FA
:1022100046696C2E204469612E004F6666004F6E41
:1022200020004520696E206D6D3300436F6E74721F
:102230006F6C0043616E6E6F7420656E7465722002
:102240007375626469723A2000022E2E0001526595
:102250006672657368004D61696E004572726F72D7
:102260002077726974696E6720746F2045455052FB
:102270004F4D210A00454550524F4D206461746115
:1022800073697A65206572726F722E0A007C3C3E1B
:102290005E2B3D3F2F5B5D3B2C2A225C004D323490
:1022A000004D323320257300556E6B6E6F776E20B4
:1022B000636F6D6D616E643A20220050726F6269C7
:1022C0006E67206661696C65640A0050726F6269AE
:1022D0006E67206661696C656400205A3A200020B0
:1022E000593A200042656420583A20005344206344
:1022F000617264206F6B0A006F70656E526F6F744D
:10230000206661696C65640A00766F6C756D652E78
:10231000696E6974206661696C65640A00534420C3
:10232000696E6974206661696C0A00486F6D65208A
:10233000257325732573206669727374002066699E
:102340007273740A005A0059005800486F6D652076
:10235000005072656865617420504C4120456E6480
:10236000005072656865617420504C41204265647C
:10237000005072656865617420504C410050726570
:1023800070617265005072656865617420414253E6
:1023900020456E6400507265686561742041425347
:1023A0002042656400507265686561742041425343
:1023B0000050726570617265004D343238005072A1
:1023C000656865617420504C4100436F6F6C646FA9
:1023D000776E005072656865617420414253004415
:1023E000697361626C6520737465707065727300E7
:1023F0004D38340053657420686F6D65206F6666D4
:1024000073657473004F6666004F6E20004265640A
:10241000204C6576656C696E67004C6576656C204E
:10242000626564004732380A473239004175746F7B
:1024300020686F6D6500473238004D6F766520610A
:10244000786973004D61696E004D6F7665205800A4
:102450004D6F76652059004D6F7665205A0045789E
:10246000747275646572004D6F766520302E316D23
:102470006D004D6F766520316D6D004D6F76652076
:1024800031306D6D004D6F76652061786973004560
:1024900078747275646572004D6F7665205A004DD0
:1024A0006F76652059004D6F76652058000000005A
:1024B0000000C0000000000000000000000000005C
:1024C0000003F00000000000000000000000000019
:1024D000000FFC00000000000000000000000000F1
:1024E000003FFE00000000000000000000000000AF
:1024F00000FFFF800000000000000000000000005E
:1025000001FFFFC00000000000000000000000000C
:1025100003FFFFF0000000000000000000000000CA
:102520001FFFFFFE00000000000000000000000090
:102530003FFFFFFE00000000000000000000000060
:10254000FFFFFFFFC00000000000000000000003CC
:10255000FFFFFFFFE0000000000000000000000F90
:10256000FFFFFFFFF8000000000000000000003F38
:10257000FFFFFFFFFE000000000000000000007FE2
:10258000FFFFFFFFFF8000000000000000000000D0
:102590001FFFFFFE00000000000000000000000020
:1025A0001FFFFFFE00000000000000000000000010
:1025B0001FFFFFFE00000000000000000000000000
:1025C0001FFFFFFE000000000000000000000000F0
:1025D0001FFFFFFE000000000000000000000000E0
:1025E00000000000000000000000000000000000EB
:1025F00000000000000000000000000000000000DB
:102600001FFFFFFE000000000000000000000000AF
:102610001FFFFFFE0000000000000000000000009F
:102620001FFFFFFE0000000000000000000000008F
:102630001FFFFFFE0000000000000000000000007F
:10264000000000000000000000000000000000008A
:10265000000000000000000000000000000000007A
:102660001FFFFFFE0000000000000000000000004F
:102670001FFFFFFE0000000000000000000000003F
:102680001FFFFFFE0000000000000000000000002F
:10269000000000000000000000000000000000003A
:1026A000000000000000000000000000000000002A
:1026B0001FFFFFFE000000000000000000000000FF
:1026C0001FFFFFFE000000000000000000000000EF
:1026D00000000000000000000000000000000000FA
:1026E00000000000000000000000000000000000EA
:1026F000000000000000000000000000000003FFD8
:10270000FFFFFFFFFFE0000000000000000003FFEC
:10271000FFFFFFFFFFE0000000000000000003FFDC
:10272000FFFFFFFFFFE0000000000000000003FFCC
:10273000FFFFFFFFFFE000000000000000000000BE
:102740000000000000000000000000000000000089
:102750000000000000000000000000000000000079
:102760000000000000000000000000000000000069
:102770000000000000000000000000000000000059
:102780000000000000000000000000000000000049
:102790000000000000000000000000000000000039
:1027A0000000000000000000000000000000000029
:1027B0000000000000000000000000000000000019
:1027C0000000000000000000000000000007CF1F14
:1027D000F008000000380000000000000007CF1FD4
:1027E000F818000000380000000000000007CF1FAC
:1027F000FC7E7F1F7803E7DF79E000000007CF1F32
:102800003CFEFF9FFC8BE7DFFFF000000007CF1FBF
:102810003DFEFFDFFEFBE7DFFFF800000007CF1FF4
:10282000FCF887DF3EFBE7DF3CF800000007CF1F26
:10283000F8F87FDF3EFBE7DF3CF800000007FF1FF2
:1028400070F8FFDF3EFBE7DF3CF800000007FF1FEA
:1028500000FEE7DF3EFBE7DF3CF800000003FE1F61
:1028600000FEE7DF3EFBFFDF3CF800000001FC1F3D
:10287000007EFFDF3EF9FFDF3CF800000000F81F9C
:10288000003E7BDF3EF8F7DF3CF800000000000070
:102890000000000000000000000000000000000038
:1028A000000000000000000000000000001FFFFF0B
:1028B000FFFFFFFF600000000001FF40000000007C
:1028C00000FF8000000000007F83CF00000C303F3D
:1028D00087FF80000C301F867980000C000F8C3041
:1028E000C7838C30E78C30CFC7CC31F38C30DCEC35
:1028F000EC33B98C30D86C6C33198C30D06C0C3311
:10290000198C30D86C0C33198C30DC6C0E3B198C64
:1029100030CF7C079F198C30C77C038F1940000093
:1029200000000002600000000000061FFFFFFFFF24
:10293000FFF82020506C616E6E65724275666665A8
:102940007242797465733A20002046726565204DA5
:10295000656D6F72793A2000436F6D70696C6564C4
:102960003A204D617920203120323031390A00205F
:102970007C20417574686F723A2028555074616EDE
:1029800069756D2C20456E6465722D33290A0032FD
:102990003031382D30382D303100204C61737420A7
:1029A000557064617465643A2000312E312E390A05
:1029B000004D61726C696E0020536F6674776172AE
:1029C000652052657365740A0020576174636864FA
:1029D0006F672052657365740A002042726F776ECC
:1029E000206F75742052657365740A0020457874F1
:1029F00065726E616C2052657365740A00506F7762
:102A0000657255700A0073746172740A006175749E
:102A10006F25692E67006572726F72207772697414
:102A2000696E6720746F2066696C650A00456E6484
:102A300073746F7073202563202563202563202520
:102A40006300205A3A0020593A0020583A00656E37
:102A50006473746F7073206869743A2000446F6EF9
:102A60006520736176696E672066696C652E0A0061
:102A70004D3239004D61782054656D703A20313205
:102A800035004D696E2054656D703A203500544212
:102A900065643A4550434F53203130304B004D610F
:102AA000782054656D703A20323735004D696E20BC
:102AB00054656D703A20350054303A204550434FEC
:102AC00053203130304B005053553A2047656E65E6
:102AD0007269630050726F746F636F6C3A20312EAD
:102AE0003000426175643A20313135323030004D6A
:102AF000656C7A692028437265616C697479290074
:102B000042696C696E656172204C6576656C696EB0
:102B100067004578747275646572733A2031006895
:102B20007474703A2F2F6D61726C696E66772E6FB8
:102B3000726700555074616E69756D204533204190
:102B4000424C2076312E3100323031382D30382D44
:102B5000303100312E312E39004D61726C696E00BA
:102B6000546865726D6973746F727300426F61723D
:102B70006420496E666F005072696E7465722049F8
:102B80006E666F004D61696E004B494C4C45442E9A
:102B9000200053544F505045442E20005072696E0F
:102BA0007465722073746F7070656420647565203D
:102BB000746F206572726F72732E2046697820746C
:102BC0006865206572726F7220616E64207573652E
:102BD000204D39393920746F2072657374617274B5
:102BE0002E202854656D7065726174757265206958
:102BF000732072657365742E205365742069742088
:102C000061667465722072657374617274696E674F
:102C1000290A004E6F20436865636B73756D2077DA
:102C2000697468206C696E65206E756D6265722CC2
:102C3000204C617374204C696E653A20004E6F2001
:102C4000436865636B73756D2077697468206C6980
:102C50006E65206E756D6265722C204C61737420F8
:102C60004C696E653A2000636865636B73756D200F
:102C70006D69736D617463682C204C617374204CB2
:102C8000696E653A20004C696E65204E756D62650F
:102C900072206973206E6F74204C617374204C69CC
:102CA0006E65204E756D6265722B312C204C617300
:102CB00074204C696E653A20004D313130004D333F
:102CC000310053442072656164206572726F720A2C
:102CD00000446F6E65207072696E74696E6720665D
:102CE000696C650A005654726176206D696E0056F3
:102CF00054726176206D696E005654726176206D53
:102D0000696E00566D696E00566D696E00566D698C
:102D10006E00566D6178204500566D617820450043
:102D2000566D6178204500566D6178205A00566DC9
:102D30006178205A00566D6178205A00566D61788E
:102D4000205900566D6178205900566D61782059E0
:102D500000566D6178205800566D617820580056F5
:102D60006D61782058004D6F74696F6E00416D6120
:102D700078204500416D6178204500416D617820E3
:102D80005A00416D6178205A00416D6178205900E8
:102D9000416D6178205900416D6178205800416D86
:102DA0006178205800412D74726176656C00412D68
:102DB00074726176656C00412D7265747261637422
:102DC00000412D7265747261637400416363656CC8
:102DD00000416363656C004D6F74696F6E00555000
:102DE00074616E69756D2045332041424C20763107
:102DF0002E312052656164792E005072696E7469BB
:102E00006E672E2E2E005072696E7420706175737D
:102E10006564005072696E742061626F72746564DB
:102E200000496E69742E2053442063617264004D22
:102E30003231004E6F205344206361726400436856
:102E4000616E67652053442063617264004D3231C6
:102E5000005072696E742066726F6D205344005387
:102E6000746F70207072696E7400526573756D6551
:102E7000207072696E740041626F757420507269BF
:102E80006E746572005061757365207072696E743E
:102E900000436F6E74726F6C005072657061726582
:102EA0000054756E6500496E666F207363726565C8
:102EB0006E004261627973746570205A00426162EB
:102EC0007973746570205A00466C6F7700466C6F9A
:102ED0007700466C6F770046616E2073706565649D
:102EE0000046616E2073706565640046616E2073F4
:102EF0007065656400426564004265640042656413
:102F0000004E6F7A7A6C65004E6F7A7A6C65004E6F
:102F10006F7A7A6C650053706565640053706565FF
:102F200064005370656564004D61696E00000021A6
:102F300000240027002A0000002200250028002B82
:102F400000000020002300260029000202020202E5
:102F5000020202040404040404040403030303033C
:102F60000303030101010101010101010204081031
:102F70002040800102040810204080010204081053
:102F8000204080804020100804020100000001025F
:102F900000090A0000000004030807000000000008
:102FA000000000000000000000000000F2E09DE1D1
:102FB00011241FBECFEFD0E4DEBFCDBF12E0A0E0F2
:102FC000B1E0EAEBFDEE01E00BBF02C007900D920D
:102FD000A436B107D9F723E1A4E6B2E001C01D92FF
:102FE000AD38B207E1F717E1C7EDD7E104C021978B
:102FF000FE010E9434F6C63DD107C9F70E943FE4A6
:103000000C94D0F60C9400002F923F924F925F9256
:103010006F927F928F929F92AF92BF92CF92DF92E8
:10302000EF92FF920F931F93CF93DF93CDB7DEB74D
:10303000E2970FB6F894DEBF0FBECDBF21E020931C
:103040004B06809186138D3409F481C3843511F4C5
:103050000C94AA29873411F00C94F62980918413DA
:10306000909185138D31910509F408C164F4843081
:10307000910509F4AEC01CF4029768F164C34C9743
:1030800009F4E5C060C38A35910509F49DC244F492
:103090008E31910509F4F6C08A9709F4C8C153C36B
:1030A0008B35910509F494C28C35910509F04BC319
:1030B00063E6262E61E0362E79E5E72E76E0F72EE0
:1030C0008AE69DE09FA38EA3EAE5CE2EEDE0DE2EFC
:1030D00000E010E0BCC280912801882311F40C9418
:1030E000F829A3E68A2EA1E09A2EB5E6EB2EB6E0EB
:1030F000FB2E0AE61DE08AE5A82E8DE0B82E94E6A8
:10310000C92E92E0D92E712CD4018D914D010E94CF
:1031100002CB882319F10E94CFCAF6012081211128
:1031200004C020916802222341F0D8012D913D91E5
:103130004D915C910E94E0F30AC0B3E07B1639F038
:10314000F50120813181428153810E94DFF3D70153
:103150006D937D938D939C9313970AC0F8018081A2
:103160009181A281B381F70180839183A283B3838C
:103170007394F4E0EF0EF11C0C5F1F4F24E0A20EDD
:10318000B11C3FEFC31AD30A44E07412BDCF86E4EA
:103190000E944BCB8823C9F00E94CFCA20E030E0C8
:1031A000A9010E9463F5181684F40E94CFCA20E09A
:1031B00030E040E752E40E9463F460933F01709373
:1031C000400180934101909342010E948D470C94ED
:1031D000F82980E50E944BCB882329F00E948BCAF6
:1031E0006B017C0103C0C12CD12C760183E50E94C8
:1031F0004BCB882361F00E94CFCA20E030E04AE741
:1032000054E40E9402F00E94DCF46B017C010E94F5
:1032100051418091870F811105C060E08DE791E0F9
:103220000E94FA760E9418DFC60ED71EE81EF91E0D
:103230000E9418DFDC01CB018C199D09AE09BF0982
:10324000B7FD02C00C94F8290E94D044F1CF8091C0
:10325000590D8770873011F00C94FD298FE40E947E
:103260004BCB882319F00E94BFCA03C08FE40E9491
:1032700002CB81110C94F8290C94FD290E94227F25
:103280000C94F829C0906A0DD0906B0DE0906C0DF5
:10329000F0906D0D88E50E944BCB811109C020E0B4
:1032A00030E048E352E4C701B6010E94DFF302C0F8
:1032B0000E94CFCA68A379A38AA39BA3C0906E0D76
:1032C000D0906F0DE090700DF090710D89E50E9427
:1032D0004BCB811109C020E030E040E451E4C7014C
:1032E000B6010E94DFF302C00E94CFCA9B01AC016D
:1032F00069837A838B839C8368A179A18AA19BA12E
:103300000E94CF43882311F40C94F82980E00E9496
:10331000B47C0E944F7D85E40E944BCB882321F032
:103320000E94BFCA182F04C085E40E9402CB11E09E
:1033300086E50E944BCB882321F00E949BCA262F52
:1033400001C021E0412FBE016F5F7F4FCE0180960B
:103350000E9448B66B017C019B01AC010E94E1F523
:1033600081115FC088A099A0AAA0BBA020E030E096
:10337000A901C501B4010E949CEF87FF05C027E1A8
:1033800037EB41E558EB04C027E137EB41E558E363
:10339000C501B4010E94E0F3AB01BC018DEA91E0EC
:1033A0000E94555F89809A80AB80BC8020E030E02D
:1033B000A901C501B4010E949CEF87FF05C027E168
:1033C00037EB41E558EB04C027E137EB41E558E323
:1033D000C501B4010E94E0F3AB01BC0188EA91E0B1
:1033E0000E94555F20E030E0A901C701B6010E94AC
:1033F0009CEF87FF05C027E137EB41E558EB04C0A0
:1034000027E137EB41E558E3C701B6010E94E0F33D
:10341000AB01BC0183EA91E00E94555F8AE00E9403
:1034200068CB0E94367D0E94438A0C94F8298091D3
:103430002801882311F40C94F82989E40E944BCBCD
:10344000082F882321F00E949BCAE62E01C0E12CA0
:103450008AE40E944BCB182F882321F00E949BCA3C
:10346000F62E01C0F12C002319F033E03E1528F0B0
:10347000112389F043E04F1570F4E5EBF1E08491FE
:103480008F010F5F1F4F882311F40C94F8290E94BD
:1034900068CBF801F4CF0E945ECB0023F1F02091BD
:1034A000CB103091CC104E2D4203B001439F700DD4
:1034B000112480911B0D90911C0D680F791F072E10
:1034C000000C880B990B0E94A3EF60936506709324
:1034D000660680936706909368061123F1F02091A9
:1034E000CD103091CE104F2D4203B001439F700D8F
:1034F000112480911D0D90911E0D680F791F072ECC
:10350000000C880B990B0E94A3EF609369067093DF
:103510006A0680936B0690936C0680E50E944BCB05
:103520008823E9F00E94BFCA8823A9F10023D9F0BB
:1035300020E030E048E352E4609165067091660651
:1035400080916706909168060E94E0F3609365069B
:1035500070936606809367069093680604C080E5C2
:103560000E9402CBE1CF1123B1F020E030E040E433
:1035700051E46091690670916A0680916B069091A2
:103580006C060E94E0F36093690670936A0680936C
:103590006B0690936C0686E40E944BCB882309F45B
:1035A00014CE0E94CFCA6B017C0120E030E0A9015B
:1035B0000E9463F518160CF008CE20E030E040E7DA
:1035C00052E4C701B601F7CD109268020C94F829B5
:1035D000209368020C94F8290E94CFCA2B013C0169
:1035E000133049F0F60120813181428153810E94DC
:1035F000DFF32B013C01AEA1BFA12D913D914D9177
:103600005C91C301B2010E94DFF34B015C012DEB21
:1036100037E346E855EB0E9463F587FD20C02DEBAC
:1036200037E346E855E3C501B4010E949CEF181644
:10363000B4F01F5FB4E0EB0EF11CEEA1FFA13496D5
:10364000FFA3EEA3F4E0CF0ED11C143039F1D10169
:103650008D911D010E944BCB882359F3BDCF1330B0
:1036600051F44092760D5092770D6092780D7092E1
:10367000790D01E0DECFA5019401F7016081718130
:10368000828193810E94E0F3D7016D937D938D93A6
:103690009C931397812F0E949383CBCF002309F42F
:1036A0004EC020E030E0A9016091760D7091770D59
:1036B0008091780D9091790D0E94E0F320913E0D5C
:1036C00030913F0D4091400D5091410D0E9402F00C
:1036D0000E9468F56093D4027093D5028093D6025D
:1036E0009093D7029091B2028091B302981719F08B
:1036F0000E94F34024C00E94514180916F00982F96
:10370000927081FF05C080916F008D7F80936F0064
:103710004091D4025091D5026091D6027091D702A7
:103720004093B90B5093BA0B6093BB0B7093BC0BD7
:10373000992329F080916F00826080936F000E942E
:10374000438A0C94F8290E942FB90C94F82980918F
:103750008413909185138537910509F48BC70CF07C
:10376000B8C08C34910509F492C40CF050C0893172
:10377000910509F49BC21CF58431910509F4A8C197
:103780007CF48131910509F41DC22CF4029708F4F0
:10379000A2C10C94A729429709F4FCC50C94A7294F
:1037A0008631910509F45BC20CF455C2873191054D
:1037B00009F45BC2489709F46EC20C94A7298E31B4
:1037C000910509F429C384F48B31910509F482C26F
:1037D0000CF472C28C31910509F414C34D9711F4A5
:1037E0000C94F8290C94A7298032910509F418C388
:1037F0000CF462C38A32910509F414C48B34910528
:1038000011F00C94A7290E9475570C94F8298A3658
:10381000910509F476C5B4F58435910509F4BAC566
:10382000E4F48135910509F49CC54CF48D3491057F
:1038300011F00C94A7290E94AE570C94F8298235F8
:10384000910509F4A3C58335910511F00C94A729BE
:1038500081E0809367020C94F8298C35910509F476
:10386000E9C534F48535910509F4C9C50C94A72937
:103870008836910509F40FC48936910509F4D9C435
:103880000C94A7298F36910509F447C484F48C362B
:10389000910509F495C40CF452C58D36910509F4CF
:1038A0000AC58E36910509F425C40C94A7298137E1
:1038B000910509F491C40CF487C48237910509F489
:1038C00041C68337910511F00C94A729ECEBF3E086
:1038D00076C68C3231E0930711F40C942F270CF04C
:1038E0007CC0893C910511F40C9466247CF58C38DD
:1038F000910509F4E4C4ACF48737910509F415C7C0
:103900000CF4C7C68837910509F412C789379105A9
:1039100011F00C94A7291092DE101092DD100C9477
:10392000F8298B39910509F49FC434F48139910544
:1039300009F404C70C94A7298E3B910509F4DDC452
:10394000883C910509F472C70C94A729833D910521
:1039500011F40C947C2644F58C3C910511F40C94E4
:103960009E246CF48B3C910511F00C94A729E3E69E
:10397000EE2EE1E0FE2E0AEE12E10C948F248D3C37
:10398000910511F40C9413258E3C910511F00C94C3
:10399000A72963E6C62E61E0D62E70EEE72E70E111
:1039A000F72E10E00C949A258D3D910511F40C949E
:1039B0008C263CF48C3D910511F40C947F260C94DC
:1039C000A729823E910511F40C94FB268232914086
:1039D00011F40C9424270C94A729853AB1E09B0795
:1039E00011F40C947428B4F58039F1E09F0711F4B8
:1039F0000C946528C4F48E3231E0930711F40C94D2
:103A0000F82714F40C9458278F32A1E09A0711F488
:103A10000C944C288336914011F00C94A729EBE5C7
:103A2000F7E00C9452288239E1E09E0711F40C94DF
:103A30006E2814F40C9468288A3921E0920709F45E
:103A4000C7C3843A914011F00C94A7290E940D8BB2
:103A50000C94F829883F41E0940711F40C940A294A
:103A6000ECF4843FB1E09B0711F40C9404293CF47E
:103A70008C3A914011F40C94AC250C94A729853F05
:103A800021E0920711F40C940729863F914011F030
:103A90000C94A7290E9417940C94F8298B3843E0C2
:103AA000940711F40C94F8293CF48335934011F4F5
:103AB0000C942D290C94A729803AE3E09E0709F481
:103AC000EEC1873E934011F40C9492290C94A729DF
:103AD000EFEFF1E082C0A0908213B090831380E5F5
:103AE0000E944BCB882359F00E948BCA6B017C014A
:103AF00011E0672B682B692B31F410E004C010E053
:103B0000C12CD12C760183E50E944BCB882311F484
:103B10000C94C22B0E94CFCA20E030E04AE754E464
:103B20000E9402F00E94DCF46B017C0111110BC0B9
:103B3000672B682B692B39F4A114B10421F0D5014E
:103B40008C91811102C010E001C011E00E9451412E
:103B5000112329F061E0C5010E94367705C060E0BD
:103B600084ED91E00E94FA7683E080934B0681E039
:103B70008093B50CC114D104E104F104B1F00E94AA
:103B800018DFC60ED71EE81EF91E0E9418DFDC01E2
:103B9000CB018C199D09AE09BF09B7FF0DC08091FB
:103BA000B50C81110C94C72B07C08091B50C8823EC
:103BB00019F00E94D044F9CF0E948ED51092B50C16
:103BC0000C94F82960E087EE91E00E94FA765E9806
:103BD0005E9815985E980C94F82984918F010F5F78
:103BE0001F4F882321F00E9468CBF801F6CF109276
:103BF0009C058FE493E00E94A2AD8BE1EFE4F3E03B
:103C0000DE01159601900D928A95E1F780914D03A2
:103C100090914E039C838B8381E791E09A83898303
:103C200040E050E0BE016F5F7F4F80E090E00E9477
:103C3000D42ECE0101960E945044E0EFF1E0849131
:103C40008F010F5F1F4F882311F40C94F8290E94F5
:103C500068CBF801F4CF0E94ECB40C94F8291092D0
:103C6000F8021092F9020C94F829E0918213F09175
:103C700083138081882329F0803209F410823196E1
:103C8000F8CF40E061E080918213909183130E940D
:103C900099310C94F8298091F902882319F081E078
:103CA0008093F8020E9475570C94F8291092F8023C
:103CB0000E9499570C94F8298091F902882311F4F5
:103CC0000C94F82983E50E944BCB81110C94CB2BEB
:103CD0000C94F82983E40E9402CB882309F450C095
:103CE000EDE3F2E084918F010F5F1F4F882321F0F5
:103CF0000E9468CBF801F6CF8091EA04811103C0DD
:103D0000E0E1F2E012C0BE016F5F7F4F87EE94E00A
:103D10000E9469AC8E010F5F1F4FF80181918F01E6
:103D2000882349F10E9468CBF8CF84918F010F5FFF
:103D30001F4F882301F10E9468CBF801F6CF45E9B7
:103D4000C42E42E0D42EE12CF12C20E08091A80575
:103D500090E00E2C02C0959587950A94E2F780FDBD
:103D60000CC24FEFE41AF40A82E0C80ED11C95E0B1
:103D7000E916F10459F78AE00E9468CB0C94F829FF
:103D80008091F902882339F08091F802882319F094
:103D9000EAE1F2E003C0ECE2F2E028C084918F0196
:103DA0000F5F1F4F882321F00E9468CBF801F6CFE8
:103DB000609198057091990580919A0590919B0565
:103DC0004AE00E9417CE8FE20E9468CB6091940572
:103DD0007091950580919605909197054AE00E9413
:103DE00017CE8AE00E9468CB0C94F82984918F0149
:103DF0000F5F1F4F882311F40C94F8290E9468CBA1
:103E0000F801F4CF40E060E0809182139091831339
:103E10000E9499310C94F8290E9415840C94F82979
:103E20008091F80281110E9451418091F90288230A
:103E300011F40C94F82980E50E944BCB882319F0EB
:103E40000E94BFCA03C080E50E9402CB182F482FF2
:103E500061E080918213909183130E94993183E5F0
:103E60000E944BCB882381F00E949BCAAB01BC010E
:103E7000409398055093990560939A0570939B051C
:103E800087EE94E00E945AAB8091F902882319F0E2
:103E900081E08093F80211110C94F82903CF8091EE
:103EA00082139091831321E02093F70240E060E0B9
:103EB0000E9499310C94F8290E9426577B018C01AD
:103EC00020E831E541E050E00E94A3F3C9016DE62E
:103ED00071E00E94EDF54B015C01C801B70120E1E2
:103EE0003EE040E050E00E94A3F3CA01B90128E19E
:103EF00030E040E050E00E94A3F3762E672EC62EFD
:103F0000D72E5CE3252E312C412C512CC801B70152
:103F1000A20191010E94A3F3F62EE72ECA01B90176
:103F2000A20191010E94A3F3CB018E010F5F1F4FED
:103F30008114910499F0EF92FF927F936F936F92A7
:103F40007F92BF92AF929F928F9284E792E09F936D
:103F50008F931F930F930E9434EF13C0A114B104E9
:103F6000B1F0EF92FF927F936F936F927F92BF9227
:103F7000AF9284E692E09F938F931F930F930E94DA
:103F800034EF0FB6F894DEBF0FBECDBF30C0CD28E2
:103F900079F0EF92FF927F936F936F927F9288E513
:103FA00092E09F938F931F930F930E9434EFE9CF7A
:103FB000892B69F0EF92FF927F936F9380E592E0F7
:103FC0009F938F931F930F930E9434EFDACFEF925A
:103FD000FF928CE492E09F938F931F930F930E9424
:103FE00034EF0F900F900F900F900F900F9060E0B4
:103FF000C8010E943677EAE8F7E084917F012FEF4D
:10400000E21AF20A882321F00E9468CBF701F5CF6B
:10401000B80188E892E00E948B5F8AE00E9468CB3A
:104020000C94F82983E50E944BCB882311F40C945F
:10403000F8290E94ABCAE82E80E50E944BCB88236A
:1040400011F40C94F8290E94ABCA182F87FF02C004
:104050000C94F82989E40E944BCB882341F00E94FC
:10406000BFCA81110C94712CEEE3F5E00BC089E41A
:104070000E9402CBF6CF319635E0EB36F30711F410
:104080000C94712C84911813F6CF0C940B2C0E9475
:1040900099570C94F82988E690E00E94D383811107
:1040A0000C94F8298091A80583FF02C00C94F8298C
:1040B00083E50E944BCB8823C9F00E94CFCA0E949F
:1040C000D5F470934F1360934E1380E00E942265E5
:1040D0000E94CFCA20E030E04AEA52E40E949CEFFE
:1040E000181624F00E94AE570E948ED50E94A65F3B
:1040F0000C94F8298EE40E944BCB882311F40C9485
:10410000F8290E949BCA60936B0270936C028093A3
:104110006D0290936E020C94F82983E50E9402CB05
:10412000882359F083E50E944BCB882319F00E9425
:10413000ABCA01C080E08093A805EAE8F7E084916B
:104140008F010F5F1F4F811103C0E3EAF2E004C04B
:104150000E9468CBF801F3CF84918F010F5F1F4F4E
:10416000882321F00E9468CBF801F6CF8091A80542
:104170008111E5CDEFE9F2E018C0BB24B394B20E93
:10418000222319F08CE20E9468CBF601859194916C
:10419000FC0184918F010F5F1F4F882321F00E9443
:1041A00068CBF801F6CF2B2DDCCD84918F010F5F0A
:1041B0001F4F882309F4DFCD0E9468CBF801F5CFAB
:1041C000109257010C94F8298AEA92E00E946C44FC
:1041D0000E94C3840C94F82983E50E944BCB811183
:1041E00003C0EAE8F7E00DC00E94ABCA8D3320F4AB
:1041F00080930C010C94F8298CE380930C010C94AF
:10420000F82984918F010F5F1F4F882321F00E94AE
:1042100068CBF801F6CF40910C0150E060E070E00F
:1042200083EB92E00E94385F8AE00E9468CB0C9496
:10423000F82989E690E00E94D383811111C0EAEB4E
:10424000F2E084918F010F5F1F4F882321F00E94BD
:1042500068CBF801F6CF0E9497628AE00E9468CB93
:1042600010924B060C94862C83E50E944BCB88233E
:1042700011F40C94F8290E94ABCA182F8D3308F062
:104280001CE3109358060E9418DF6B017C01212F5C
:1042900030E0A8EEB3E00E94D0F3C60ED71EE81EB1
:1042A000F91EC0925406D0925506E0925606F0923E
:1042B00057060C94F8290E945D8E0C94F829809181
:1042C000A80583FF02C00C94F82983E50E944BCB1C
:1042D000882311F40C94F8290E94CFCA0E94D5F4C7
:1042E0006D37710514F06DE770E070934D136093B6
:1042F0004C130E94D6640C94F8290E94848C0C9470
:10430000F82980E50E944BCB811106C083E50E940D
:104310004BCB882361F006C00E94ABCA81110C947C
:10432000F829F4CF0E949BCA6F3F710510F06FEF20
:1043300070E070935113609350130C94F82980E54A
:104340000E944BCB811106C0109251131092501352
:104350000C94F8290E949BCA672B11F00C94F82941
:10436000F3CF0E946E650E94E89010925113109254
:10437000501368EE73E080E090E00E940B7660E0FE
:104380008DEB92E00E94FA760C94F8291092670265
:104390000C94F82983E50E944BCB8823A1F00E945E
:1043A000CFCA20E030E04AE754E40E9402F00E94C5
:1043B000DCF460930D0170930E0180930F019093D4
:1043C00010010C94F82988E50E9402CB81110C940D
:1043D000DC2B89E50E9402CB81110C94DC2B8AE551
:1043E0000E9402CB81110C94DC2B85E40E9402CB4D
:1043F00081110C94DC2B0E94E8900C94F82983E541
:104400000E9402CB882311F40C94F8290E94CFCA91
:1044100020E030E04AE754E40E9402F00E94DCF41D
:104420006093500670935106809352069093530602
:104430000C94F82923E6C22E21E0D22E32E3E32E9B
:104440003DE0F32E10E0D6018D916D010E9402CB6C
:10445000882309F46DC0133009F063C00E94CFCAED
:104460004B015C0120E030E040EA51E40E949CEF07
:1044700087FF4EC0A501940160913E0D70913F0DE4
:104480008091400D9091410D0E9463F42B013C01FD
:104490009B01AC0160912E0D70912F0D8091300D1C
:1044A0009091310D0E9402F060932E0D70932F0DAC
:1044B0008093300D9093310DA30192016091F6121B
:1044C0007091F7128091F8129091F9120E9402F007
:1044D0006093F6127093F7128093F8129093F9128A
:1044E0006091B5057091B6058091B7059091B805BA
:1044F0000E94A1EFA30192010E9402F00E94DCF44D
:104500006093B5057093B6058093B7059093B80591
:1045100080923E0D90923F0DA092400DB092410DC1
:1045200007C00E94CFCAF70160837183828393839F
:104530001F5FF4E0EF0EF11C143009F084CF0E94ED
:10454000D65F56C70E94514183E50E944BCB88231A
:1045500009F4F5C80E949BCA6230710509F0EFC8E2
:104560000E94A54B8BE50E9468CB60914C0D709129
:104570004D0D80914E0D90914F0D42E00E94A0CEC6
:104580004091500D5091510D6091520D7091530D0D
:104590008AED92E00E94555F4091540D5091550D67
:1045A0006091560D7091570D87ED92E00E94555F16
:1045B0008DE50E9468CB8AE00E9468CB19C7849180
:1045C0008F010F5F1F4F882321F00E9468CBF801F5
:1045D000F6CF60E08CEA93E00E940C8A61E085EA05
:1045E00093E00E940C8A61E08AE993E00E940C8AC1
:1045F00061E08AE893E00E940C8A60E081E893E041
:104600000E940C8A61E087E793E00E940C8A61E0D7
:104610008DE693E00E940C8A61E085E693E00E94BB
:104620000C8A61E087E593E00E940C8A60E089E4EF
:1046300093E00E940C8A60E08AE393E00E940C8A77
:1046400060E08CE293E00E940C8A60E086E193E0F7
:104650000E940C8A60E085E093E00E940C8A60E092
:1046600080EF92E00E940C8A61E08DED92E00E9462
:104670000C8ABEC68091821390918313DC012C9129
:10468000222321F060E00E943677B2C60E948ED5C8
:10469000AFC6009182131091831383E0D12C40E0C8
:1046A0008150E1F0F8019081292F2B7F2134C1F74F
:1046B00021812133A9F7913421F0953421F441E08F
:1046C00002C0DD24D39498012E5F3F4F89012F5FF4
:1046D0003F4FD8019C919032C9F3E2CF442369F057
:1046E000EAE8F7E084917F01BFEFEB1AFB0A882329
:1046F00021F00E9468CBF701F5CFDD2069F0ECE8EE
:10470000F4E084917F012FEFE21AF20A882321F06E
:104710000E9468CBF701F5CFD8018D918D018823D8
:1047200009F429CB0E9468CBF7CF0E94E19360C6C1
:1047300081E08093DE108093DD105AC683E50E94ED
:104740004BCB882319F00E949BCA02C060E070E046
:104750008B01112702301105D4F0EBE5F7E08491CD
:104760008F010F5F1F4F811103C0E0E9F4E004C027
:104770000E9468CBF801F3CF84918F010F5F1F4F28
:10478000882309F435C60E9468CBF801F5CF88E488
:104790000E944BCB8823A9F00E949BCA6A3A7105FC
:1047A0003CF06530B1E07B072CF064E071E002C0C2
:1047B0006AEA70E0F801EE0FFF1FE254F94F7183CF
:1047C000608386E40E944BCB8823A9F00E949BCA99
:1047D000F801EE0FFF1FEE53F94F718360836F3FB7
:1047E000710519F014F06FEF70E077FF02C060E020
:1047F00070E07183608382E40E944BCB882309F4CC
:10480000F7C50E949BCA6530710534F06F3671059B
:104810002CF06EE670E002C065E070E0000F111F42
:10482000F801E654F94F71836083E2C588EC90E0AB
:104830000E94D3838111DCC584E40E9402CB8823CB
:1048400009F441C00E94CFCA6B017C0111E020E055
:1048500030E0A9010E949CEF811101C010E010938B
:10486000460D20E030E0A901C701B6010E949CEF8F
:10487000882349F10E94CFCAE091150C24E0E29F01
:10488000F0011124EE5BF24F608371838283938386
:1048900020E030E0A9016091420D7091430D8091BC
:1048A000440D9091450D0E949CEF81110CC080E059
:1048B00090E0A0EEBFE38093420D9093430DA09350
:1048C000440DB093450D0E94509092C5F3E6EF2E33
:1048D000F1E0FF2E0AEF12E1AAE0CA2EA3E1DA2EE0
:1048E000D7018D917D010E9402CB882349F00E945F
:1048F000CFCA0E94DCF4F8016083718382839383C2
:104900000C5F1F4FC016D10659F70E94533370C574
:104910000C5F1F4FF2E10A3F1F0709F469C5D70179
:104920008D917D010E9402CB882391F30E94CFCA12
:10493000F8016083718382839383EACF83E50E94C9
:104940004BCB8823A1F00E94CFCA609312137093BF
:104950001313809314139093151360930A13709399
:104960000B1380930C1390930D1310E001C011E012
:1049700080E50E944BCB882359F00E94CFCA6093F8
:10498000121370931313809314139093151310E064
:1049900082E50E944BCB882359F00E94CFCA6093D6
:1049A0000E1370930F13809310139093111310E054
:1049B00084E50E944BCB882359F00E94CFCA6093B4
:1049C0000A1370930B1380930C1390930D1310C55F
:1049D000112309F40DC540911213509113136091E6
:1049E00014137091151388EB94E00E94555F409169
:1049F0000E1350910F13609110137091111385EBEA
:104A000094E00E94555F40910A1350910B136091FE
:104A10000C1370910D1382EB94E00E94555F8AE0B5
:104A20000E9468CBE5C481E50E9402CB882351F047
:104A30000E948BCA6093A3057093A4058093A5057B
:104A40009093A60583E50E9402CB882351F00E9433
:104A5000CFCA6093E6127093E7128093E8129093A6
:104A6000E91284E50E9402CB882351F00E94CFCA4C
:104A70006093E2127093E3128093E4129093E51234
:104A800088E50E9402CB882351F00E94CFCA609330
:104A9000220D7093230D8093240D9093250D89E5AD
:104AA0000E9402CB882351F00E94CFCA6093260D4A
:104AB0007093270D8093280D9093290D8AE50E940D
:104AC00002CB8823F1F00E94CFCA60932A0D709325
:104AD0002B0D80932C0D90932D0D2DEC3CEC4CEC7C
:104AE0005DE30E949CEF181664F0E8ECF4E084911A
:104AF0008F010F5F1F4F882321F00E9468CBF801C0
:104B0000F6CF85E40E9402CB882309F471C40E9489
:104B1000CFCA60932E0D70932F0D8093300D90931C
:104B2000310D66C41F5FF4E0EF0EF11C133011F479
:104B30000C949F1BD6018D916D010E9402CB88239E
:104B400089F30E94CFCAF7016083718382839383C4
:104B5000812F0E949383E6CF0E945AB4811148C4EA
:104B60000DED18E02AE63DE03FA32EA3CE0101960D
:104B70004C0156E3A52E59E0B52E1C01F8016591B4
:104B8000759185919491AEA1BFA1CD90DD90ED90EE
:104B9000FD90BFA3AEA3A70196010E94DFF32B01F6
:104BA0003C01F101608371838283938320E030E0D4
:104BB00040EA51EC0E9463F587FD0AC020E030E036
:104BC00040EA51E4C301B2010E949CEF18162CF494
:104BD000F501849118160CF414C6D101CD90DD9026
:104BE000ED90FD901D0120E030E040EA51ECC7015E
:104BF000B6010E9463F587FD0AC020E030E040EA7C
:104C000051E4C701B6010E949CEF181684F5EBE54C
:104C1000F7E084918F010F5F1F4F811103C0E8E11E
:104C2000F5E004C00E9468CBF801F3CF84918F01B6
:104C30000F5F1F4F882321F00E9468CBF801F6CF49
:104C400061E08AE095E00E94FA760E94FB6988E2C2
:104C500090E099A388A388EC90E09DA38CA3BE016B
:104C6000605E7F4FCE0184960E94A02EC1C30C5F70
:104C70001F4FBFEFAB1ABB0AE8E0093E1E0709F061
:104C80007DCF40EEE42E40E1F42E10E0F40181915E
:104C90009191A191B1914F01F70181939193A193CA
:104CA000B1937F01812F0E9493831F5F133071F7AF
:104CB0000E94438A60E08AEF94E00E94FA7683E9DA
:104CC00092E09DA38CA304E610E019A308A3BE0103
:104CD0006C5D7F4FCE0180960E94A02E8AEB92E001
:104CE0009DA38CA319A308A3BE016C5D7F4FCE01C9
:104CF00080960E94A02E7CC30E942E8979C383E5F2
:104D00000E944BCB882309F473C30E949BCA709303
:104D10005F0160935E016CC38DED90E00E94D383D0
:104D2000811166C383E50E944BCB811103C0EAE881
:104D3000F7E03BC00091150C10E00E949BCA000FE9
:104D4000111FF801E45AFE4F718360838091150CA6
:104D500090E08C01000F111F000F111F9801285ABD
:104D60003E4F7901880F991FFC01E45AFE4F608184
:104D70007181072E000C880B990B0E94A3EF2AE08B
:104D800037ED43E25CE30E9402F0F801E35DFC4E84
:104D900020813181428153810E9402F0D7016D93BD
:104DA0007D938D939C93139723C384918F010F5F01
:104DB0001F4F882321F00E9468CBF801F6CF85E4CD
:104DC0000E9468CB8091150C805D0E9468CBE091B9
:104DD000150CF0E0EE0FFF1FE45AFE4F6081718169
:104DE00086E395E00E94725F85E20E9468CB8AE0CC
:104DF0000E9468CBFDC280E50E9402CB882309F4A3
:104E0000F7C20E949BCA6B017C0183E50E944BCBD9
:104E1000882321F00E949BCA8B0102C00FEF1FEF75
:104E2000C8010196039708F0E3C2D7FCE1C28C2DBC
:104E3000EEE3F5E09491891709F4EDC43196B5E0FD
:104E4000EB36FB07B9F7EAC48AE50E944BCB811128
:104E50000DC583E50E944BCB811108C5C9C283E50E
:104E60000E944BCB882319F00E949BCA02C064E0C9
:104E700071E079A368A380E50E944BCB882339F0C9
:104E80000E949BCA6938E3E17E0730F402C068EEF5
:104E900073E07A83698304C088E893E19A83898305
:104EA000BE01605E7F4FCE0101960E94A02EA0C27F
:104EB00085E40E944BCB811110C080E50E9402CB9B
:104EC000882391F00E94CFCA6093AD067093AE061E
:104ED0008093AF069093B00607C00E94ABCA8823A8
:104EE00061F3EBE5F7E071C089E40E9402CB88230F
:104EF00081F00E94CFCA2CEA35EC47E25EE30E94C3
:104F000002F06093B5067093B6068093B70690934F
:104F1000B80684E40E9402CB882381F00E94CFCAA5
:104F20002CEA35EC47E25EE30E9463F46093B1063D
:104F30007093B2068093B3069093B406EAE8F7E064
:104F400084918F010F5F1F4F882321F00E9468CB4F
:104F5000F801F6CF4091AD065091AE066091AF06D4
:104F60007091B00683E795E00E94555F2CEA35EC1E
:104F700047E25EE36091B5067091B6068091B70690
:104F80009091B8060E9463F4AB01BC018FE695E0F6
:104F90000E94555F2CEA35EC47E25EE36091B10672
:104FA0007091B2068091B3069091B4060E9402F00F
:104FB000AB01BC018BE695E00E94555F8AE00E9440
:104FC00068CB16C20E9468CBF80184918F010F5FF5
:104FD0001F4F8111F7CFE7E7F5E084918F010F5F55
:104FE0001F4F882309F404C20E9468CBF801F5CF53
:104FF00083E50E9402CB182F882371F00E94CFCA4C
:105000000E94D5F4709301016093000121E0672BA9
:1050100009F020E02093A70580E50E9402CB8823B9
:1050200059F02091000130910101232B11F00E94D1
:10503000BFCA8093A705DCC11111DAC1EAE8F7E025
:1050400084918F010F5F1F4F882321F00E9468CB4E
:10505000F801F6CF8091A705882319F06FE272E07E
:1050600002C062E372E08EE995E00E948B5F60917E
:105070000001709101018DE895E00E94725FE9E8FE
:10508000F5E084918F010F5F1F4F882309F4B0C1B1
:105090000E9468CBF801F5CF0E940085A9C10E944B
:1050A00068CBF80184918F010F5F1F4F8111F7CFFB
:1050B000E1EBF5E084918F010F5F1F4F882309F426
:1050C00097C10E9468CBF801F5CF0E94514190C171
:1050D00081E00E94807E0E94438A8AC180E00E9413
:1050E000807E0E94438A84C189E40E944BCB88233E
:1050F00021F00E949BCA062F01C00FEF8AE40E9494
:105100004BCB882321F00E949BCA162F01C01FEFB2
:105110008AE50E9402CBF82E811105C081E50E942C
:1051200002CBD82E01C0D12C07FD06C017FD04C04C
:10513000F1101CC0D1101AC0EBE5F7E084918F018B
:105140000F5F1F4F811103C0EFEDF5E004C00E9417
:1051500068CBF801F3CF84918F010F5F1F4F882335
:1051600009F446C10E9468CBF801F5CF043010F471
:105170001430D0F0EBE5F7E084918F010F5F1F4F03
:10518000811103C0E0ECF5E004C00E9468CBF80197
:10519000F3CF84918F010F5F1F4F882309F428C13B
:1051A0000E9468CBF801F5CFE02E000FFF08012F19
:1051B000110F110B0E94CFCAEE0CFF1CEE0CFF1C4E
:1051C000DD2071F0F701E00FF11FEE0FFF1FEE0F72
:1051D000FF1FE552F34F208131814281538103C08B
:1051E00020E030E0A9010E0D1F1D000F111F000F60
:1051F000111F0552134F0E94E0F3D8016D937D9368
:105200008D939C931397F4C00E9408A2F1C00E9452
:10521000FD99EEC02093200D0E941F951092200D45
:10522000882309F4E5C0EAE8F7E084918F010F5F75
:105230001F4F811103C0EFEFF5E004C00E9468CB5F
:10524000F801F3CF84918F010F5F1F4F882309F47A
:10525000CFC00E9468CBF801F5CF8AE50E944BCB06
:10526000811103C0EAE8F7E03BC00E94CFCA6B019E
:105270007C0120E030E040EA51EC0E9463F587FDBC
:105280000AC020E030E040EA51E4C701B6010E94C4
:105290009CEF18161CF4EBE5F7E00CC0C092660D0D
:1052A000D092670DE092680DF092690DA1C00E9446
:1052B00068CBF80184918F010F5F1F4F8111F7CFE9
:1052C000EAE0F6E084918F010F5F1F4F882309F415
:1052D0008FC00E9468CBF801F5CF0E9468CBF8011F
:1052E00084918F010F5F1F4F8111F7CFEAE2F6E043
:1052F00084918F010F5F1F4F882321F00E9468CB9C
:10530000F801F6CF4091660D5091670D6091680DE0
:105310007091690D87E296E00E94555F8AE00E94D5
:1053200068CB66C081E0809328011092CA0F83E5A4
:105330000E944BCB882339F00E94BFCA811158C00C
:105340000E94D04D55C083E50E9402CBF7CF0E944A
:105350002FB94EC0F09084130E9451411091CF108C
:1053600080E00E94B47CFF2029F1EAE8F7E0849114
:105370008F010F5F1F4F882321F00E9468CBF80137
:10538000F6CF84E50E9468CB6F2D70E080E090E05E
:105390004AE00E9417CE80E20E9468CBEBE4F6E080
:1053A00084918F010F5F1F4F882311F10E9468CBFA
:1053B000F801F6CF1092A20C812F0E94B47CEAE88B
:1053C000F7E084918F010F5F1F4F882321F00E9427
:1053D00068CBF801F6CF6091A20C70E089E396E00B
:1053E0000E94725F8AE00E9468CB02C00E942FB9BF
:1053F00010924B060E94B34D89C20E94514180E039
:105400000E94B47C0E944F7D11E01093DE1088E56D
:105410000E9402CB382E89E50E9402CB882E8AE5B5
:105420000E9402CB282E311005C0811005C0B22C7D
:10543000B12605C0811002C0B12C01C0B22C0E945F
:105440005ECB82E50E944BCB882361F00E94CFCADD
:105450006B017C0120E030E0A9010E949CEF8823D1
:1054600079F106C0C12CD12CF0EAEF2EF0E4FF2E2A
:10547000B11005C0311003C0882009F411C1C092D9
:105480006D06D0926E06E0926F06F0927006A7014C
:1054900096016091720D7091730D8091740D9091D1
:1054A000750D0E949CEF87FF0BC019821A821B8228
:1054B0001C82BE016F5F7F4F8DE696E00E94617E89
:1054C000B1100DC0311003C08110E5C0E9C08110DA
:1054D00006C080E00E946F42BB20B1F3DCC0109296
:1054E0006E0D10926F0D1092700D1092710D109242
:1054F0006A0D10926B0D10926C0D10926D0D0E9442
:1055000044CAE6E3F9E084918AABEAE2F9E0C590A7
:10551000D590E590F490EEE2F9E0459055906590D5
:105520007490A7019601C301B2010E949CEF87FF0E
:1055300005C0A7019601C301B20104C0A3019201F5
:10554000C701B6010E9463F46EA77FA788AB99AB31
:10555000EDEEF8E085919591A591B4918EA39FA36E
:10556000A8A7B9A7E9EEF8E085919591A591B49126
:105570008AA79BA7ACA7BDA79C01AD016EA17FA187
:1055800088A599A50E9463F518162CF4AAA40BA56A
:105590001CA59DA404C0AEA00FA118A599A42EA57A
:1055A0003FA548A959A9CA01B9010E9402F020E00B
:1055B00030E040E85FE30E94E0F30E94A1F52A2D6D
:1055C000302F412F592D0E9402F069837A838B83FB
:1055D0009C83E7E3F9E014918091720D9091730D33
:1055E000A091740DB091750D8EA39FA3A8A7B9A724
:1055F00020E030E040EC5FE3C301B2010E9402F022
:105600002B013C01612F110F770B880B990B0E9426
:10561000A3EF9B01AC01C301B2010E9402F02B0178
:105620003C0120E030E040EC5FE3C701B6010E949E
:1056300002F06B017C01AAA96A2FAA0F770B880BD5
:10564000990B0E94A3EF9B01AC01C701B6010E9418
:1056500002F0FE0131966F01EEA0FFA008A519A58A
:10566000A30192010E946E7D0E940C9410926E0D17
:1056700010926F0D1092700D1092710D10926A0DB4
:1056800010926B0D10926C0D10926D0DB11021CF18
:1056900031101FCF19CF81E00E946F42B11003C0BB
:1056A000222009F461C08091590D83708330F9F094
:1056B00060E085E991E00E94FA76EAE8F7E08491FB
:1056C0008F010F5F1F4F811103C0E6E8F1E004C0B6
:1056D0000E9468CBF801F3CF84918F010F5F1F4FB9
:1056E000882309F441C00E9468CBF801F5CF0E94DD
:1056F00044CAE090720DF090730D0091740D1091FA
:10570000750DE0926D06F0926E0600936F06109391
:10571000700680E090E0A3E2B3E480936506909386
:105720006606A0936706B093680680E090E0A1E06B
:10573000B3E48093690690936A06A0936B06B093D6
:105740006C0619821A821B821C829E012F5F3F4FBA
:1057500069019C01AD0160E070E083E293E40E9486
:105760006E7D82E00E946F420E9444CA8091DD10EB
:105770008093DE100E94367D83E0809343010E9477
:10578000438A36CE11110C94A31D0C949C1D0E94CB
:10579000D0440C94C51D0E949BCAAB01BC01409330
:1057A00098055093990560939A0570939B0587EE31
:1057B00094E00E945AAB1CCE0E94514188E50E94A1
:1057C00002CB882331F05E9A8091590D8E7F8093B1
:1057D000590D89E50E9402CB882331F05E9A8091B1
:1057E000590D8D7F8093590D8AE50E9402CB882345
:1057F00009F4FECD159A8091590D8B7F8093590D38
:10580000F7CDF7FAF094F7F8F094F101C082D18265
:10581000E282F382E2C90E94E6E3EACD0E945141AE
:10582000BC2C60E08C2D0E9430DE0F3FFFEF1F0785
:1058300059F48C2D0E94D8DD31E020E0892B09F04D
:1058400030E0032F122F05C00130110561F401E093
:1058500010E08B2D0E94D8DD8017910709F4C8CD88
:105860000E94D044F6CF00E010E0F3CF0E94CFCAF0
:1058700020E030E040E050EC0E949CEF87FD12C039
:105880000E94CFCA20E030E040E050E40E9463F57F
:1058900018161CF00E94CFCA09C060E070E080E0DA
:1058A00090E404C060E070E080E090EC2091590D3D
:1058B00022FF9ECD00912B1310912C1320913A0DB5
:1058C00030913B0D40913C0D50913D0D0E9402F0F6
:1058D0000E94D5F4600F711F70932C1360932B13EB
:1058E00087CD61E0812F0E9430DE6E2D812F0E94D6
:1058F00001DEF12CB701812F0E946CDE143009F01B
:1059000077CDF0925113E092501372CDE2960FB61C
:10591000F894DEBF0FBECDBFDF91CF911F910F91E5
:10592000FF90EF90DF90CF90BF90AF909F908F90BF
:105930007F906F905F904F903F902F9008950F93BE
:105940001F93CF93E0918302F0918402309719F076
:1059500085E792E009950091770210917802E09135
:10596000A602F091A70282E00995E091A602F091CB
:10597000A70281E0099520E030E045E1B80185E724
:1059800092E00E94A5C1C82F882341F028EA32E0A6
:1059900047E1B80185E792E00E94A5C1E091A60227
:1059A000F091A70280E009958C2FCF911F910F9164
:1059B0000895682F81E792E00C9449600F931F933C
:1059C000CF93DF93EC018C010A5E1F4FFE0184919F
:1059D000882331F00E94D92C21960C171D07B1F7AE
:1059E000DF91CF911F910F9108952091790230910D
:1059F0007A022817390709F444C090937A028093F9
:105A00007902009709F437C020918C02FC01211122
:105A100007C03596E491E0938D02FC013C960FC0DF
:105A2000213039F43F96E491E0938D02FC017096A9
:105A300006C03D96E491E0938D02FC013E96849170
:105A400080938E0280918D02082E000C990B20917C
:105A50008E02821B910927FD939520918F0220349D
:105A600041F0829FC001112426E0969587952A95E2
:105A7000E1F7809390028EE691EC90938B028093F5
:105A80008A0208950F931F93CF93DF931F92CDB790
:105A9000DEB70091770210917802E091A602F091B2
:105AA000A70282E0099520E030E04AE0B80185E7EE
:105AB00092E00E94A5C1182FE091A602F091A702E2
:105AC00083E00995E091A602F091A70280E0099594
:105AD0001123C1F160917702709178029E012F5FCE
