:100000000C941F160C9449160C9449160C9449161E
:100010000C9449160C9449160C9449160C944916E4
:100020000C9449160C9449160C9449160C944916D4
:100030000C9449160C94D9500C9449160C944916FA
:100040000C9449160C9472650C94B5370C944916AF
:100050000C9410370C9406370C9449160C944916DE
:100060000C9449160C9449160C9449160C94491694
:100070000C9449160C9449160C9449160C94491684
:100080000C9449160C9449160C944916876A8A6A8E
:100090007D6A816AA16AA16A8E6A926A986A9C6A7C
:1000A000A26EA76EAC6EB66EE46EE46EC06EC86EE5
:1000B000D06EDA6E92D651D588D5CED688D588D571
:1000C00088D588D588D588D588D588D588D588D548
:1000D00088D588D588D588D588D588D588D588D538
:1000E00088D588D588D588D588D588D588D588D528
:1000F000C8D688D588D588D588D588D588D588D5D7
:1001000088D5A1D688D588D588D588D588D588D5ED
:1001100088D588D588D588D5E5D685D5084AD73BF2
:100120003BCE016E84BCBFFDC12F3D6C74319ABDC6
:1001300056833DDA3D00C77F11BED9E4BB4C3E91EA
:100140006BAAAABE000000803F05A84CCDB2D44ED9
:10015000B93836A9020C50B9918688083CA6AAAADB
:100160002ABE000000803F004E414E494E4954597E
:10017000494E46CDCCCC3D0AD7233C17B7D1387772
:10018000CC2B329595E6241FB14F0A000020410088
:1001900000C84200401C4620BCBE4CCA1B0E5AAED2
:1001A000C59D7400407A10F35A00A0724E180900E1
:1001B00010A5D4E80000E87648170000E40B5402CC
:1001C0000000CA9A3B000000E1F505000080969807
:1001D00000000040420F000000A086010000001057
:1001E0002700000000E80300000000640000000099
:1001F000000A00000000000100000000002C76D87A
:1002000088DC674F0823DFC1DFAE59E1B1B796E55F
:10021000E3E453C63AE651997696E8E6C28426EBC3
:10022000898C9B62ED407C6FFCEFBC9C9F40F2BAD6
:10023000A56FA5F490055A2AF75C936B6CF9676D6E
:10024000C11BFCE0E40D47FEF520E6B500D0ED90C3
:100250002E0300943577050080841E080000204E90
:100260000A000000C80C333333330F986E12831129
:1002700041EF8D2114893BE65516CFFEE6DB18D100
:10028000844B381BF77C1D901DA4BBE424203284D2
:10029000725E228100C9F124ECA1E53D2700000037
:1002A00000000000000000000000006B4300006B35
:1002B0004300007A43EF02EA02E302DC02CE0200CE
:1002C0000020420000204200008040FFFFFF434F1B
:1002D0004D4D554E49434154494F4E004452595299
:1002E000554E004552524F525300494E464F00451D
:1002F00043484F006F6B00454550524F4D204F4BC8
:100300000A004F666673657473204170706C69658E
:1003100064004572723A20546F6F2066617221004A
:10032000546F6F206661722066726F6D2072656611
:100330006572656E636520706F696E740A004D3476
:10034000323120696E636F727265637420706172FE
:10035000616D657465722075736167650A00646913
:10036000730043290A0061626C656420286D696E20
:100370002074656D702000436F6C64206578747222
:1003800075646573206172652000496E76616C69E1
:10039000642065787472756465720A0020643A009E
:1003A00020693A0020703A0020466C6F773A2000AE
:1003B0003F4A206F7574206F662072616E676520FA
:1003C00028302E303120746F20302E33290A00203F
:1003D0005400205200416363656C65726174696FFB
:1003E0006E3A2050004D31343520533C696E6465BF
:1003F000783E206F7574206F662072616E6765208D
:1004000028302D31290A002F2F20004348414D422A
:1004100045525F54454D5045524154555245004D4B
:100420004F54494F4E5F4D4F444553005448455239
:100430004D414C5F50524F54454354494F4E00413B
:1004400055544F5245504F52545F53445F5354419B
:100450005455530050524F4D50545F535550504FC8
:10046000525400454D455247454E43595F50415205
:1004700053455200434153455F4C494748545F42FE
:1004800052494748544E45535300544F47474C45F3
:100490005F4C494748545300534F465457415245C7
:1004A0005F504F574552004255494C445F504552AA
:1004B00043454E54004C4556454C494E475F4441D8
:1004C0005441005A5F50524F4245004155544F4CE1
:1004D0004556454C005052494E545F4A4F420050D9
:1004E000524F4752455353004155544F5245504F78
:1004F00052545F54454D5000564F4C554D45545243
:10050000494300454550524F4D0042494E415259D2
:100510005F46494C455F5452414E53464552005345
:10052000455249414C5F584F4E5F584F4646004632
:1005300049524D574152455F4E414D453A4D6172CA
:100540006C696E20322E302E342E34202847697488
:100550004875622920534F555243455F434F4445E8
:100560005F55524C3A68747470733A2F2F676974F0
:100570006875622E636F6D2F4D61726C696E46698E
:10058000726D776172652F4D61726C696E20505289
:100590004F544F434F4C5F56455253494F4E3A319B
:1005A0002E30204D414348494E455F545950453AFD
:1005B000555074616E69756D2045332041424C2061
:1005C00045585452554445525F434F554E543A3165
:1005D00020555549443A63656465326132662D346D
:1005E0003161322D343734382D396231322D633553
:1005F000356336326633363766660A0055507461A5
:100600006E69756D2045332041424C204F46462E81
:10061000004D3131332053004D3131322053687554
:1006200074646F776E006F66660044454255473AC2
:100630000050726F7465637465642050696E0A00BF
:1006400025697920256964202569682025696D2040
:10065000256973005072696E742074696D653A2063
:100660000044656C6574696F6E206661696C6564D1
:100670002C2046696C653A200046696C65206465EB
:100680006C657465643A00286E6F2066696C652934
:100690000043757272656E742066696C653A20005D
:1006A0005344207072696E74696E67206279746554
:1006B00020004E6F74205344207072696E74696E0E
:1006C000670A00456E642066696C65206C69737406
:1006D0000A00426567696E2066696C65206C697303
:1006E000740A004E6F204D6F76652E00436C69636F
:1006F0006B20746F20526573756D652E2E2E004D24
:1007000065736820706F696E742063616E6E6F74BC
:10071000206265207265736F6C7665640A005A20EA
:1007200050726F62652050617374204265640A00E4
:100730005A2050726F626520506173742042656464
:1007400000486F6D652058592066697273740A00FD
:10075000486F6D6520585920466972737400536C58
:100760006565702E2E2E0047322F4733206261645C
:1007700020706172616D65746572730A00457272F2
:100780006F722077726974696E6720746F204545B7
:1007900050524F4D210A00627573793A207061758D
:1007A00073656420666F7220696E7075740A0062EA
:1007B0007573793A2070617573656420666F722075
:1007C000757365720A00627573793A2070726F638F
:1007D000657373696E670A002121204B494C4C20D8
:1007E00063617573656420627920746F6F206D7525
:1007F000636820696E6163746976652074696D65EC
:10080000202D2063757272656E7420636F6D6D614B
:100810006E643A200053544F505045442E200050EF
:1008200072696E7465722073746F70706564206491
:10083000756520746F206572726F72732E20466921
:100840007820746865206572726F7220616E642012
:10085000757365204D39393920746F207265737452
:100860006172742E202854656D70657261747572A2
:10087000652069732072657365742E20536574203A
:100880006974206166746572207265737461727434
:10089000696E67290A004E6F20436865636B737544
:1008A0006D2077697468206C696E65206E756D6265
:1008B00065722C204C617374204C696E653A20007F
:1008C000636865636B73756D206D69736D617463C7
:1008D000682C204C617374204C696E653A20004C82
:1008E000696E65204E756D626572206973206E6F4A
:1008F00074204C617374204C696E65204E756D6276
:1009000065722B312C204C617374204C696E653AF2
:1009100020004D3131300053442072656164206500
:1009200072726F720A00506C656173652052657354
:100930006574005052494E5445522048414C54452C
:10094000440025533A202553004B494C4C45442E36
:1009500020005072696E7465722068616C74656401
:100960002E206B696C6C28292063616C6C65642196
:100970000A006563686F3A004572726F723A00420E
:10098000696C696E656172204C6576656C696E672D
:1009900020477269643A0A000F150E1216170E13DB
:1009A00003021A1401000E0C190DFF180C040001AB
:1009B0000000000000C00000000000000000000077
:1009C0000000000003F00000000000000000000034
:1009D000000000000FFC000000000000000000000C
:1009E000000000003FFE00000000000000000000CA
:1009F00000000000FFFF8000000000000000000079
:100A000000000001FFFFC000000000000000000027
:100A100000000003FFFFF0000000000000000000E5
:100A20000000001FFFFFFE000000000000000000AB
:100A30000000003FFFFFFE0000000000000000007B
:100A4000000000FFFFFFFFC00000000000000000EA
:100A5000000003FFFFFFFFE00000000000000000B7
:100A600000000FFFFFFFFFF8000000000000000083
:100A700000003FFFFFFFFFFE00000000000000003D
:100A800000007FFFFFFFFFFF80000000000000006C
:100A90000000001FFFFFFE0000000000000000003B
:100AA0000000001FFFFFFE0000000000000000002B
:100AB0000000001FFFFFFE0000000000000000001B
:100AC0000000001FFFFFFE0000000000000000000B
:100AD0000000001FFFFFFE000000000000000000FB
:100AE0000000000000000000000000000000000006
:100AF00000000000000000000000000000000000F6
:100B00000000001FFFFFFE000000000000000000CA
:100B10000000001FFFFFFE000000000000000000BA
:100B20000000001FFFFFFE000000000000000000AA
:100B30000000001FFFFFFE0000000000000000009A
:100B400000000000000000000000000000000000A5
:100B50000000000000000000000000000000000095
:100B60000000001FFFFFFE0000000000000000006A
:100B70000000001FFFFFFE0000000000000000005A
:100B80000000001FFFFFFE0000000000000000004A
:100B90000000000000000000000000000000000055
:100BA0000000000000000000000000000000000045
:100BB0000000001FFFFFFE0000000000000000001A
:100BC0000000001FFFFFFE0000000000000000000A
:100BD0000000000000000000000000000000000015
:100BE0000000000000000000000000000000000005
:100BF00000000000000000000000000000000000F5
:100C00000003FFFFFFFFFFFFE00000000000000007
:100C10000003FFFFFFFFFFFFE000000000000000F7
:100C20000003FFFFFFFFFFFFE000000000000000E7
:100C30000003FFFFFFFFFFFFE000000000000000D7
:100C400000000000000000000000000000000000A4
:100C50000000000000000000000000000000000094
:100C60000000000000000000000000000000000084
:100C70000000000000000000000000000000000074
:100C80000000000000000000000000000000000064
:100C90000000000000000000000000000000000054
:100CA0000000000000000000000000000000000044
:100CB0000000000000000000000000000000000034
:100CC0000000000000000000000000000000000024
:100CD00007CF1FF0080000003800000000000000EF
:100CE00007CF1FF8180000003800000000000000C7
:100CF00007CF1FFC7E7F1F7803E7DF79E00000004D
:100D000007CF1F3CFEFF9FFC8BE7DFFFF0000000DA
:100D100007CF1F3DFEFFDFFEFBE7DFFFF80000000F
:100D200007CF1FFCF887DF3EFBE7DF3CF800000041
:100D300007CF1FF8F87FDF3EFBE7DF3CF80000003D
:100D400007FF1F70F8FFDF3EFBE7DF3CF800000005
:100D500007FF1F00FEE7DF3EFBE7DF3CF800000077
:100D600003FE1F00FEE7DF3EFBFFDF3CF800000054
:100D700001FC1F007EFFDF3EF9FFDF3CF8000000B2
:100D800000F81F003E7BDF3EF8F7DF3CF800000074
:100D90000000000000000000000000000000000053
:100DA0000000000000000000000000000000000043
:100DB0001FFFFFFFFFFFFF600000000001FF40007A
:100DC00000000000FF8000000000007F83CF0000D3
:100DD0000C303F87FF80000C301F867980000C00AC
:100DE0000F8C30C7838C30E78C30CFC7CC31F38C7D
:100DF00030DCECEC33B98C30D86C6C33198C30D0DF
:100E00006C0C33198C30D86C0C33198C30DC6C0EB4
:100E10003B198C30CF7C079F198C30C77C038F190E
:100E200040000000000002600000000000061FFFFC
:100E3000FFFFFFFFF8687474703A2F2F6D61726CBA
:100E4000696E66772E6F726700322E302E342E3424
:100E5000002020506C616E6E657242756666657228
:100E600042797465733A20002046726565204D65AD
:100E70006D6F72793A2000436F6D70696C65643AEA
:100E8000204D617220313320323032300A00204C44
:100E900061737420557064617465643A2032303235
:100EA000302D30322D3237207C20417574686F72BE
:100EB0003A2028555074616E69756D203230323099
:100EC0002C20456E6465722D33290A00322E302E97
:100ED000342E340A004D61726C696E0020536F66C7
:100EE00074776172652052657365740A00205761DA
:100EF000746368646F672052657365740A002042EA
:100F0000726F776E206F75742052657365740A0076
:100F10002045787465726E616C2052657365740A41
:100F200000506F77657255700A006175746F2563A4
:100F30002E6700473238585900446F6E6520707232
:100F4000696E74696E672066696C650A004D33319D
:100F5000004D3051315331383030006572726F724C
:100F60002077726974696E6720746F2066696C659A
:100F70000A00446F6E6520736176696E672066694A
:100F80006C652E0A004D323900456E6473746F70C3
:100F900073002553202563202563202563202563C6
:100FA00000205A3A0020593A00656E6473746F70DD
:100FB00073206869743A200046696C2E2044696188
:100FC0002E004520696E206D6DC2B30020082046BA
:100FD000616374002008204D6178002008204D696D
:100FE0006E004F6666004F6E004175746F74656DDC
:100FF00070004573746570732F6D6D005A7374655E
:1010000070732F6D6D005973746570732F6D6D0063
:101010005873746570732F6D6D0046696C616D65F2
:101020006E740053746570732F6D6D004E6F2045A4
:101030004550524F4D2E0A004572723A2045455098
:10104000524F4D20435243004572723A204545505D
:10105000524F4D20496E646578004572723A2045C2
:101060004550524F4D2056657273696F6E003B209C
:1010700000486F6D696E67204661696C6564006F3A
:1010800070656E00545249474745524544007A5FA7
:101090006D696E00795F6D696E00785F6D696E00D5
:1010A0005265706F7274696E6720656E6473746FD9
:1010B00070207374617475730A0020436F756E74C9
:1010C00020583A0020453A000000FA430000FA4355
:1010D0000000A0400000C8410000A0420000A04263
:1010E0000000C8430000BA42F4010000F40100000F
:1010F000640000008813000043616E6E6F74206FFF
:1011000070656E20737562646972200053442063B9
:10111000617264206F6B0A006F70656E526F6F743E
:10112000206661696C65640A00766F6C756D652E6A
:10113000696E6974206661696C65640A00534420B5
:10114000696E6974206661696C0A004D3234004D25
:1011500032332025730046696C652073656C6563C6
:101160007465640A002053697A653A200046696C08
:1011700065206F70656E65643A2000454E442053CB
:101180005542524F5554494E450A002220706F7304
:10119000002220706172656E743A220053554252EB
:1011A0004F5554494E452043414C4C207461726761
:1011B00065743A2200747279696E6720746F2063D7
:1011C000616C6C207375622D67636F64652066695E
:1011D0006C6573207769746820746F6F206D616E21
:1011E00079206C6576656C732E204D4158206C65B6
:1011F00076656C2069733A310A0057726974696EBA
:101200006720746F2066696C653A2000646F696EB0
:1012100067004E6F772000453100626564002C2026
:1012200073797374656D2073746F707065642120B9
:101230004865617465725F49443A200024F4D430F3
:1012400050C38E20C2A24017828B7011127A910D6A
:10125000816CD90AA861E108C75866076151430645
:101260001E4B5D05C145A7041A411104093D9803B1
:10127000713931034036DB0265339102D4305402B8
:10128000802E1D02632CEE01752AC501B028A00135
:10129000102781018F2564012B244B01E0223401AA
:1012A000AC211F018D200D01801FFC00841EED006C
:1012B000971DDF00B81CD200E61BC600201BBC0037
:1012C000641AB200B219A8000A19A0006A1899009D
:1012D000D117910040178B00B516840031167E009F
:1012E000B31579003A157300C7146F0058146A00DB
:1012F000EE1366008813630025135E00C7125B00BF
:101300006C12570015125400C111510070114F009A
:1013100021114B00D61049008D10470046104400A3
:1013200002104200C00F4000800F3E00420F3C0000
:10133000060F3B00CB0E3800930E37005C0E3500D5
:10134000270E3400F30D3200C10D3100900D300036
:10135000600D2E00320D2D00050D2C00D90C2B0038
:10136000AE0C2900850C29005C0C2700350C2700E9
:101370000E0C2600E80B2400C40B2400A00B230055
:101380007D0B23005A0B2100390B2100180B200084
:10139000F80A1F00D90A1E00BB0A1E009D0A1D0084
:1013A000800A1D00630A1C00470A1B002C0A1B0050
:1013B000110A1A00F7091A00DD091900C4091900F9
:1013C000AB091900920917007B091800630917007F
:1013D0004C09160036091600200916000A091500E6
:1013E000F5081500E0081400CC081400B808140033
:1013F000A4081400900813007D0812006B08130065
:101400005808120046081200340811002308110081
:101410001208110001081100F0071000E007100089
:10142000D0071000C0071000B0070F00A107100080
:1014300091070E0083070F0074070F0065070E0069
:1014400057070E0049070E003B070D002E070E0040
:1014500020070D0013070D0006070D00F9060C000C
:10146000ED060D00E0060C00D4060C00C8060C00CA
:10147000BC060C00B0060C00A4060B0099060C007C
:101480008D060B0082060B0077060B006C060B0026
:1014900061060A0057060B004C060A0042060A00C5
:1014A00038060A002E060A0024060A001A060A0058
:1014B0001006090007060A00FD050900F4050900E9
:1014C000EB050900E2050900D9050900D00509006E
:1014D000C7050900BE050900B5050800AD050800EF
:1014E000A50509009C050800940508008C05080066
:1014F000840508007C050800740508006C050700D9
:10150000650508005D050700560508004E05070043
:1015100047050700400508003805070031050700AA
:101520002A050700230507001C050600160507000D
:101530000F0507000805060002050700FB0406006A
:10154000F5040700EE040600E8040600E2040700C4
:10155000DB040600D5040600CF040600C90406001B
:10156000C3040600BD040600B7040600B10405006C
:10157000AC040600A6040600A00405009B040600B7
:1015800095040500900406008A0405008504050002
:10159000800406007A040500750405007004050047
:1015A0006B04050066040500610405005C04050089
:1015B00057040500520405004D04050048040500C9
:1015C000430405003E0404003A0405003504050008
:1015D000300404002C040500270404002304050043
:1015E0001E0404001A04040016040500110404007B
:1015F0000D040400090405000404040000040400B0
:10160000FC030400F8030400F4030400F0030400E6
:10161000EC030400E8030400E4030400E003040016
:10162000DC030400D8030400D4030400D003040046
:10163000CC030400C8030300C503030024F404D949
:10164000201BC40C5C0E9804C4095F02650771017D
:10165000F405F900FB04B30048048700C1036900E6
:101660005803550003034500BE023A0084023100CE
:1016700053022A002902250004022000E4011C0074
:10168000C8011900AF01170098011400840113006C
:10169000710110006101100051010E0043010D00A5
:1016A00036010B002B010B0020010B001501090076
:1016B0000C01090003010800FB000800F30008000A
:1016C000EB000700E4000600DE000600D80006007C
:1016D000D2000600CC000500C7000500C2000500CE
:1016E000BD000400B9000400B5000400B10004000E
:1016F000AD000400A9000400A5000300A20003003F
:101700009F0004009B000300980003009500020066
:1017100093000300900003008D0002008B00030083
:10172000880002008600020084000300810002009D
:101730007F0002007D0002007B00020079000200B1
:1017400077000100760002007400020072000100C0
:10175000710002006F0002006D0001006C000200C9
:101760006A000100690002006700010066000100D4
:1017700065000100640002006200010061000100D8
:10178000600001005F0002005D0001005C000100DC
:101790005B0001005A0001005900010058000100DF
:1017A00057000100560001005500010054000100DF
:1017B00053000000530001005200010051000100DD
:1017C000500001004F0001004E0000004E000100DB
:1017D0004D0001004C0001004B0000004B000100D7
:1017E0004A000100490001004800000048000100D3
:1017F00047000100460000004600010045000000CF
:1018000045000100440001004300000043000100C6
:1018100042000000420001004100000041000100C0
:10182000400001003F0000003F0001003E000000BA
:101830003E0001003D0000003D0001003C000000B2
:101840003C0000003C0001003B0000003B000100A8
:101850003A0000003A0001003900000039000100A0
:101860003800000038000000380001003700000098
:10187000370001003600000036000000360001008D
:101880003500000035000000350001003400000084
:101890003400000034000100330000003300000079
:1018A000330001003200000032000000320001006D
:1018B0003100000031000000310001003000000064
:1018C00030000000300001002F0000002F00000059
:1018D0002F0000002F0001002E0000002E0000004D
:1018E0002E0001002D0000002D0000002D00000042
:1018F0002D0001002C0000002C0000002C00000036
:101900002C0001002B0000002B0000002B00000029
:101910002B0001002A0000002A0000002A0000001D
:101920002A00010029000000290000002900000011
:101930002900000029000100280000002800000004
:1019400028000000280000002800010027000000F7
:1019500027000000270000002700000027000100EA
:1019600026000000260000002600000026000000DF
:1019700026000100250000002500000025000000D1
:1019800025000000250000002500010024000000C3
:1019900024000000240000002400000024000100B6
:1019A00023000000230000002300000023000000AB
:1019B000230000002300000023000100220000009B
:1019C000220000002200000022000000220000008F
:1019D0002200010021000000210000002100000081
:1019E0002100000021000000210000002100010072
:1019F0002000000020000000200000002000000067
:101A00002000000020000000200000002000010055
:101A10001F0000001F0000001F0000001F0000004A
:101A20001F0000001F0000001F0001001E0000003A
:101A30001E0000001E0000001E0000000437000011
:101A40001E290000511B0000581000001009000062
:101A5000CC0400007802000041010000416476617E
:101A60006E6365642053657474696E677300436FB9
:101A70006E66696775726174696F6E004C6F616440
:101A80002053657474696E677300526573746F7266
:101A9000652044656661756C74730053746F72657C
:101AA0002053657474696E677300313235004245A6
:101AB000443A4550434F53203130304B0052756EFD
:101AC000617761792057617463683A204F4E004D09
:101AD00061782054656D7000323735004D696E2095
:101AE00054656D700045313A204550434F532031C5
:101AF00030304B005053550047656E657269630086
:101B000050726F746F636F6C00312E3000426175DC
:101B10006400313135323030004D656C7A692028EF
:101B2000437265616C697479290042696C696E65FC
:101B30006172204C6576656C696E670045787472D9
:101B4000756465727300555074616E69756D2045DA
:101B5000332041424C00323032302D30322D32377A
:101B600000546865726D6973746F727300426F61BF
:101B7000726420496E666F005072696E74657220DF
:101B8000496E666F004261636B0053746F70004D65
:101B9000323100417474616368204D65646961008D
:101BA0004D32320052656C65617365204D65646924
:101BB000610041626F7574205072696E74657200C5
:101BC000526573756D65205072696E74004D656461
:101BD00069612052656C65617365640054756E655A
:101BE0000053746F70205072696E7400496E666F96
:101BF0002053637265656E0048656174696E672085
:101C00004661696C65640048656174696E67206649
:101C100061696C656400202D20496E76616C696491
:101C2000206578747275646572206E756D62657278
:101C300020210A00544845524D414C2052554E41F6
:101C400057415900546865726D616C2052756E6120
:101C5000776179004572723A204D415854454D5094
:101C6000004D415854454D50207472696767657244
:101C70006564004572723A204D494E54454D5000FE
:101C80004D494E54454D50207472696767657265C1
:101C900064004D383420582059205A204500202F08
:101CA000002042403A0020403A0070012C0190018F
:101CB0002701B0012201C0011D01F001180110022D
:101CC000130130020E016002090190020401C002FA
:101CD000FF000003FA004003F5008003F000D0038A
:101CE000EB002004E6007004E100E004DC004005A5
:101CF000D700C005D2004006CD00D006C80080073E
:101D0000C3003008BE00F008B900C009B400B00A32
:101D1000AF00B00BAA00D00CA500000EA000500F21
:101D20009B00C01096005012910000148C00C0154A
:101D30008700B0178200B0197D00D01B7800001E0C
:101D4000730040206E0090226900F0246400402758
:101D50005F0090295A00E02B5500102E50002030D3
:101D60004B0010324600E033410090353C00103704
:101D7000370070383200A0392D00B03A2800A03B5F
:101D80002300603C1E00103D1900903D1400103EE1
:101D90000F00703E0A00C03E0500003F0000403FBB
:101DA000FBFF803FF6FFC03FF1FF5072696E742069
:101DB00066726F6D204D65646961004D6F766520B8
:101DC00025736D6D004D6F766520302E316D6D0081
:101DD0004D6F766520316D6D004D6F766520313029
:101DE0006D6D004D6F7665204178697300486F74A2
:101DF000656E6420746F6F20636F6C640045787447
:101E00007275646572004D6F7665205A004D6F766D
:101E1000652059004D6F7665205800000021002490
:101E20000027002A0000002200250028002B0000C7
:101E30000020002300260029000202020202020202
:101E4000020404040404040404030303030303035B
:101E500003010101010101010101020408102040F8
:101E60008001020408102040800102040810204074
:101E700080804020100804020100000001020009D7
:101E80000A00000000040308070000000000000032
:101E900000000000000000000054656D7065726174
:101EA000747572650050726F6265205A204F6666C5
:101EB000736574004D61696E005072656865617488
:101EC00020504C4120456E64005072656865617415
:101ED00020504C4120426564005072656865617411
:101EE0002041425320456E640050726568656174FC
:101EF000204142532042656400436F6F6C646F77EA
:101F00006E005072656865617420414253005072E2
:101F1000656865617420504C410046616E205370C5
:101F2000656564004E6F7A7A6C6500466C6F770069
:101F30005072696E74205061757365640020746F0F
:101F40006F206C6F6E6720657874727573696F6E41
:101F50002070726576656E7465640A0020636F6C2C
:101F60006420657874727573696F6E20707265761F
:101F7000656E7465640A00555074616E69756D20F4
:101F800045332041424C2052656164792E005072E5
:101F9000696E74696E672E2E2E007C3C3E5E2B3D72
:101FA0003F2F5B5D3B2C2A225C00426564204C6520
:101FB00076656C696E6720004661696C65642074A3
:101FC0006F20656E61626C6520426564204C6576A9
:101FD000656C696E670A00496E76616C6964206D94
:101FE0006573682E0A0050726F62696E6720506FC9
:101FF000696E740025532025692F25690050726F82
:1020000062696E67206D65736820706F696E7420F9
:1020100000202844525952554E2900473239204158
:1020200075746F20426564204C6576656C696E67D7
:10203000003F20284C2C522C462C4229206F7574CE
:10204000206F6620626F756E64732E0A003F2856FB
:10205000296572626F7365206C6576656C20696DA9
:10206000706C61757369626C652028302D34292E7F
:102070000A00426164205A2076616C75650A004E40
:102080006F2062696C696E65617220677269640AAB
:10209000001FE02010201020101020102020102001
:1020A0001030300840048003001FE03FF03FF03F55
:1020B000F01FE01FE03FF03FF03FF00FC00780034C
:1020C000003FFFF038007030FC3020FC102078100A
:1020D0002030102C00D02E31D02F7BD02F7BD02E53
:1020E00031D02C00D020301020781020FC1030FC93
:1020F000303800703FFFF03FFFF03800703186301D
:102100002387102787902F87D02F03D020301020CF
:1021100078102078102030102F03D02F87D02787F9
:10212000902387103186303800703FFFF01FFFF892
:102130001FFFF80410400208200208200410400885
:102140002080104100104100082080041040000051
:10215000001FFFF81FFFF82568753A2530326875B3
:1021600000256875642025303268753A253032685C
:1021700075002020202020202000204D39322058BA
:102180000020204D61783A200020204D696E3A20D1
:1021900000536F667420656E6473746F70733A20B9
:1021A0000020204D3835312058005A2D50726F6272
:1021B00065204F66667365740020204D33303120F2
:1021C00050005049442073657474696E67733A0017
:1021D00020460020480020204D3134352053004D4A
:1021E0006174657269616C206865617475702070D6
:1021F0006172616D65746572733A002020473239EF
:10220000205720490020204D3432302053004175A2
:10221000746F20426564204C6576656C696E673A20
:102220000020204D323036205800486F6D65206FF9
:1022300066667365743A00204A0020204D323035BE
:10224000204200416476616E6365643A20423C6DD1
:10225000696E5F7365676D656E745F74696D655FE8
:1022600075733E20533C6D696E5F6665656472618F
:1022700074653E20543C6D696E5F74726176656C66
:102280005F66656564726174653E204A3C6A756E7E
:10229000635F6465763E0020204D3230342050006C
:1022A000416363656C65726174696F6E2028756E39
:1022B0006974732F7332293A20503C7072696E74BE
:1022C0005F616363656C3E20523C7265747261634A
:1022D000745F616363656C3E20543C747261766523
:1022E0006C5F616363656C3E0020204D32303120AD
:1022F00058004D6178696D756D20416363656C654B
:10230000726174696F6E2028756E6974732F7332F1
:10231000293A0020204D3230332058004D61786931
:102320006D756D20666565647261746573202875CE
:102330006E6974732F73293A00537465707320703B
:10234000657220756E69743A0020204D323030205D
:1023500044300A0020204D323030204400204469AF
:102360007361626C65640A0046696C616D656E74C8
:102370002073657474696E67733A0020204D3134A0
:10238000392043203B20556E69747320696E2043C9
:10239000656C736975730A0020286D6D2900202013
:1023A000473231202020203B20556E69747320690C
:1023B0006E206D6D0020496E76616C6964206578D1
:1023C00074727564657220004361703A0050726FD8
:1023D0006265204F6666736574205A0050726F62A2
:1023E00065204F66667365745A3A20003F5A206F25
:1023F0007574206F662072616E67652028003F59F2
:10240000206F7574206F662072616E676520282DBD
:102410000020746F20003F58206F7574206F662075
:1024200072616E676520282D0050726F6265204FC3
:102430006666736574205800656E717565756569AB
:102440006E67202200526573656E643A2000205743
:102450003A00452025530042656420436F6F6C6944
:102460006E672E2E2E004265642048656174696E89
:10247000672E2E2E0023646566696E6520444546EE
:1024800041554C545F004B6420004B6920004B7059
:102490002000504944204175746F74756E65206644
:1024A000696E69736865642120507574207468656D
:1024B000206C617374204B702C204B6920616E641A
:1024C000204B6420636F6E7374616E747320667248
:1024D0006F6D2062656C6F7720696E746F20436F3B
:1024E0006E66696775726174696F6E2E680A005056
:1024F0004944204175746F74756E65206661696C1E
:102500006564212074696D656F75740A000A204343
:102510006C617373696320504944200A00204B6446
:102520003A2000204B693A2000204B703A200020CE
:1025300054753A2000204B753A2000206D61783A9E
:102540002000206D696E3A200020643A200020624D
:102550006961733A2000504944204175746F747565
:102560006E652073746172740A005049442041758D
:10257000746F74756E65206661696C6564212054A2
:10258000656D706572617475726520746F6F206817
:102590006967680A00504944204175746F74756E0C
:1025A00065206661696C65642120426164206578FC
:1025B000747275646572206E756D6265720A005082
:1025C00061757365205072696E74005072696E7423
:1025D0002041626F72746564004D3235003F004DDA
:1025E0006F74696F6E005374617274205072696EFB
:1025F000740043616E63656C0043616E6E6F74209E
:10260000656E746572207375626469723A200002A7
:102610002E2E000152656672657368004D383400D5
:1026200044697361626C6520537465707065727380
:1026300000473238004175746F20486F6D65006F38
:1026400070656E206661696C65642C2046696C65F6
:102650003A20005761726E696E673A20486F6D6963
:102660006E672042756D702044697669736F7220C1
:102670003C20310A000202040000A0400000A040FB
:10268000000000404572723A207574663820666F0B
:102690006E74206E6F7420696E697469616C697AFA
:1026A00065642E00000C0D00FE07022603BC017FAE
:1026B000FE08FE08FE05080806000040F0C88888ED
:1026C000987810050808060000C0F888888888886F
:1026D000F80505050600012030F830200508080639
:1026E00000002070F820202020E00509090600FFE6
:1026F0002070A8A8B888887020050606060001E0AA
:102700008CEA8C8A0A0509090600FFF8A8888888DF
:102710008888A8F8050A0A0600FE20505050508804
:10272000A8A8887003030306000340A040FFFFFF32
:10273000FFFFFFFFFFFFFFFFFFFFFFFFFFFFFFFFA9
:10274000FFFFFF0000000605FF01070706020080EB
:10275000808080800080030303060105A0A0A005FF
:10276000060606000050F85050F85005090906000A
:10277000FF2070A8A07028A8702005070706000099
:10278000C8C8102040989805070706000040A0A080
:1027900040A89068010303060205808080030909B0
:1027A0000601FF2040408080804040200309090648
:1027B00001FF8040402020204040800507070600A0
:1027C0000020A8702070A820050505060001202023
:1027D000F820200203030601FFC040800501010626
:1027E0000003F8020202060100C0C0050707060048
:1027F0000008101020404080050707060000708880
:1028000098A8C8887003070706010040C0404040F0
:1028100040E0050707060000708808102040F80512
:102820000707060000F8081030088870050707063B
:10283000000010305090F81010050707060000F84F
:1028400080F008088870050707060000304080F017
:10285000888870050707060000F80810102020205F
:1028600005070706000070888870888870050707CC
:1028700006000070888878081060020505060100CF
:10288000C0C000C0C00206060601FFC0C000C040B4
:102890008003050506010120408040200503030652
:1028A0000002F800F8030505060101804020408081
:1028B0000507070600007088102020002005070784
:1028C0000600007088B8A8B88070050707060000E9
:1028D000708888F8888888050707060000F048484F
:1028E000704848F0050707060000708880808088DF
:1028F00070050707060000F04848484848F00507FB
:1029000007060000F88080F08080F80507070600C1
:1029100000F88080F080808005070706000070883E
:102920008080988870050707060000888888F888E6
:102930008888030707060100E04040404040E0056A
:1029400007070600003810101010906005070706F2
:1029500000008890A0C0A0908805070706000080AE
:102960008080808080F805070706000088D8A88846
:102970008888880507070600008888C8A89888887E
:102980000507070600007088888888887005070793
:10299000060000F08888F0808080050707060000A8
:1029A00070888888A89068050707060000F0888866
:1029B000F0A09088050707060000708880700888DE
:1029C00070050707060000F82020202020200507BA
:1029D0000706000088888888888870050707060031
:1029E00000888888885050200507070600008888DE
:1029F0008888A8A85005070706000088885020503E
:102A000088880507070600008888502020202005B8
:102A10000707060000F80810204080F8030909069F
:102A200001FFE080808080808080E005070706004D
:102A300000804040201010080309090601FFE02033
:102A4000202020202020E0050303060005205088D8
:102A50000501010600FEF80303030601058040207E
:102A60000505050600007008788878050707060048
:102A7000008080F0888888F00505050600007080D9
:102A8000808870050707060000080878888888781D
:102A90000505050600007088F08070050707060030
:102AA00000304840E04040400507070600FE7088BF
:102AB00088887808700507070600008080F08888FD
:102AC00088880307070601004000C0404040E0043A
:102AD00009090601FE100030101010109060050763
:102AE0000706000080808890E090880307070601B1
:102AF00000C04040404040E0050505060000D0A869
:102B0000A8A8A8050505060000B0C888888805059E
:102B10000506000070888888700507070600FEF02B
:102B2000888888F080800507070600FE78888888F6
:102B3000780808050505060000B0C88080800505F6
:102B40000506000078807008F005070706000020E1
:102B500020F82020201805050506000088888898A0
:102B600068050505060000888888502005050506CB
:102B700000008888A8A85005050506000088502098
:102B800050880507070600FE888888502040800589
:102B90000505060000F8102040F80309090601FFAA
:102BA0002040404080404040200109090602FF804B
:102BB00080808080808080800309090601FF80403A
:102BC0004040204040408005030306000248A89092
:102BD000FF205A3A200020593A20004265642058CC
:102BE0003A200050726F62696E67204661696C65B9
:102BF000640A0050726F62696E67204661696C6595
:102C00006400486F6D652025732573257320466920
:102C100072737400220A00556E6B6E6F776E2063BC
:102C20006F6D6D616E643A2022004D6564696120AC
:102C3000496E736572746564000053EA9EE811245E
:102C40001FBECFEFD0E4DEBFCDBF12E0A0E0B1E009
:102C5000E8EAF5EF01E00BBF02C007900D92AA333E
:102C6000B107D9F723E1AAE3B2E001C01D92A13771
:102C7000B207E1F716E1CEE1D6E104C02197FE01EB
:102C80000E9418F7CD31D107C9F70E94CCE20C940D
:102C9000C7FA0C9400002F923F924F925F926F926E
:102CA0007F928F929F92AF92BF92CF92DF92EF92DC
:102CB000FF920F931F93CF93DF93CDB7DEB7C0552D
:102CC000D1090FB6F894DEBF0FBECDBF20914A03E5
:102CD00021962FAF219721E020934A038091490349
:102CE0008D3409F4B6C3843511F40C948E258734E1
:102CF00011F00C94A92520904703309048033CE143
:102D00002316310409F413C1C4F454E02516310428
:102D100044F482E0281631040CF03FC037FE31C085
:102D200094C394E02916310409F4C3C0A5E12A161E
:102D3000310411F40C94AB2588C3BAE22B1631048C
:102D400009F45CC25CF4FDE12F16310409F4FFC004
:102D50002EE12216310409F40EC177C33BE5231698
:102D6000310409F4C8C14CE52416310409F4C8C182
:102D70005AE52516310409F068C3109246030C94F5
:102D8000AB2580910B01882311F40C94AB250E9494
:102D900020A40E9433CE0C94AB2580910B01882394
:102DA00011F40C94AB250E9420A482E50E94F990B6
:102DB000882309F44CC00E9479906B017C0120E0CB
:102DC00030E0A9010E9433F0882311F40C946E26A0
:102DD0008091000790910107A0910207B09103072D
:102DE00088A399A3AAA3BBA3209104073091050748
:102DF00040910607509107072CA33DA34EA35FA364
:102E00008090360390903703A0903803B090390338
:102E100040903A0350903B0360903C0370903D0318
:102E2000A5019401BC01CD010E9433F081110C94E5
:102E3000B325A30192016CA17DA18EA19FA10E9447
:102E400033F0882311F40C946E260C94B32589E496
:102E50000E94F990882329F00E9479906B017C01EF
:102E600003C0C12CD12C76018AE40E94F9908823FA
:102E700011F40C9475260E94799068A779A78AA707
:102E80009BA720E030E0A901C701B6010E9433F002
:102E900081110C94822620E030E0A90168A579A573
:102EA0008AA59BA50E9433F081110C9482260C9474
:102EB0006E2680E50E94F990882329F00E9403A5E0
:102EC0006B017C0103C0C12CD12C760183E50E94EB
:102ED000F990882361F00E94799020E030E04AE781
:102EE00054E40E9499F00E949DF86B017C010E94BD
:102EF000B3C88091DD02811105C060E08EE597E0E6
:102F00000E94D8BB0E94A937C60ED71EE81EF91E24
:102F10000E94A937DC01CB018C199D09AE09BF09BC
:102F2000B7FD02C00C94AB250E949B32F1CF80917B
:102F300053138770873011F00C940E2A60E08FE4F1
:102F40000E94219181110C94AB250C940E2A0E94B1
:102F5000F1DC81110C94AB258091DA02882311F405
:102F60000C94252C60E08FE40E94219181110C9437
:102F7000AB250C94252C2091471330914813409198
:102F8000491350914A136091000770910107809195
:102F90000207909103070E942AF7AB01BC0188E564
:102FA0000E94A2A969837A838B839C8320914B130F
:102FB00030914C1340914D1350914E136091040782
:102FC0007091050780910607909107070E942AF7E4
:102FD000AB01BC0189E50E94A2A96D837E838F832A
:102FE0009887BE016B5F7F4FCE0101960E94098FCB
:102FF000882311F40C94AB2580E00E9424930E9456
:1030000006D161E085E40E94219121E0482FBE01B4
:103010006B5F7F4FCE0101960E944DDD6B017C01FD
:103020009B01AC010E941CFA81115FC089809A80CB
:10303000AB80BC8020E030E0A901C501B4010E9452
:1030400033F087FF05C027E137EB41E558EB04C0BB
:1030500027E137EB41E558E3C501B4010E942AF7A7
:10306000AB01BC018BED9BE20E9463328D809E80A0
:10307000AF80B88420E030E0A901C501B4010E940E
:1030800033F087FF05C027E137EB41E558EB04C07B
:1030900027E137EB41E558E3C501B4010E942AF767
:1030A000AB01BC0186ED9BE20E94633220E030E080
:1030B000A901C701B6010E9433F087FF05C067E18F
:1030C00077EB81E598EB04C067E177EB81E598E366
:1030D000A70196010E942AF7AB01BC0181ED9BE29A
:1030E0000E9463328AE00E94D22F0E94EDD00E949B
:1030F000F2400C94AB258FE0809346030C94AB25F3
:103100009CE6292E91E0392E2EECE22E22E0F22EC2
:1031100040E057E059A348A33BE3C32E33E1D32E4D
:1031200000E010E0D1018D911D010E94F9908823EB
:1031300009F44BC00E9479902B013C01133049F0F7
:10314000F60120813181428153810E9429F72B01B0
:103150003C01A8A1B9A12D913D914D915C91C30174
:10316000B2010E9429F74B015C012DEB37E346E8E1
:1031700055EB0E948AF987FD0AC02DEB37E346E83C
:1031800055E3C501B4010E9433F01816F4F413306E
:1031900051F440920C0750920D0760920E07709206
:1031A0000F0701E012C0A5019401F7016081718150
:1031B000828193810E942AF7D7016D937D938D932D
:1031C0009C931397812F0E948BCC1F5FB4E0EB0E72
:1031D000F11CE8A1F9A13496F9A3E8A3F4E0CF0E1D
:1031E000D11C143009F09ECF002321F08CE097E031
:1031F0000E9454590E94F2400C94AB2580910B011F
:10320000882311F40C94AB2589E40E94F990E82EF0
:10321000882321F00E947590082F01C000E08AE405
:103220000E94F990F82E882321F00E947590182FA3
:1032300001C010E0EE2011F0043020F4FF2041F036
:10324000143030F08FEF96E00E94D92F0C94AB250C
:1032500080E1E0E0F7E0A6E3B3E001900D928A950B
:10326000E1F7EE2019F1602F000F770B880B990B17
:103270000E943AF02091BE023091BF024091C002FC
:103280005091C1020E9499F02091C6023091C7026C
:103290004091C8025091C9020E942AF760933603F8
:1032A000709337038093380390933903FF2019F10B
:1032B000612F110F770B880B990B0E943AF0209128
:1032C000C2023091C3024091C4025091C5020E94D3
:1032D00099F02091CA023091CB024091CC025091DA
:1032E000CD020E942AF760933A0370933B038093C8
:1032F0003C0390933D0360E080E50E942191882388
:10330000C1F1EE20D1F02091471330914813409144
:10331000491350914A13609136037091370380919D
:103320003803909139030E9429F760933603709314
:1033300037038093380390933903FF20D1F0209115
:103340004B1330914C1340914D1350914E1360919B
:103350003A0370913B0380913C0390913D030E949E
:1033600029F760933A0370933B0380933C03909357
:103370003D0340E050E0BA0186E40E94A2A96B013F
:103380007C0120E030E0A9010E948AF918165CF463
:1033900020E030E040E752E4C701B6010E9424F883
:1033A0006B017C0103C0C12CD12C76018090670198
:1033B00090906801A0906901B0906A0120E030E02F
:1033C000A901C701B6010E9433F0882341F0C092E1
:1033D0006701D0926801E0926901F0926A01009160
:1033E000090110910A0184E690E090930A0180930C
:1033F0000901C0902A01D0902B01E0902C01F0909F
:103400002D0180E090E0A0E8BFE380932A01909333
:103410002B01A0932C01B0932D010E9433CE8092FA
:10342000670190926801A0926901B0926A011093BD
:103430000A0100930901C0922A01D0922B01E09267
:103440002C01F0922D010C94AB250E94E3DC0C942E
:10345000AB2580914703909148038537910509F486
:1034600033C70CF027C18C34910509F4ECC40CF07F
:1034700055C08931910509F4FAC21CF584319105D2
:1034800009F4A6C27CF48131910509F484C22CF4BC
:10349000029708F40BC20C948B25429709F435C6A9
:1034A0000C948B258631910509F4B7C20CF4B1C296
:1034B0008731910509F4BAC2489709F4CCC20C943B
:1034C0008B258E31910509F454C3ACF48B319105F1
:1034D00009F4F4C20CF4E4C28C31910509F441C33F
:1034E0004D9711F00C948B258091AC118E7F8093B9
:1034F000AC110C94AB258032910509F498C30CF4FF
:10350000D4C38A32910509F47AC48B34910511F041
:103510000C948B250E9464B80C94AB258A369105D7
:1035200009F4DCC4CCF58435910509F4EEC5FCF44E
:103530008135910509F4CEC54CF48D34910511F017
:103540000C948B250E949AB80C94AB25823591057A
:1035500009F4D4C58335910511F00C948B25809125
:1035600046038F7E8062809346030C94AB258C3596
:10357000910509F41AC634F48535910509F4F2C5AC
:103580000C948B258836910509F470C48936910511
:1035900009F48EC40C948B258F36910509F4D5C49B
:1035A00084F48C36910509F415C50CF4B4C48D3639
:1035B000910509F47AC48E36910509F4B5C40C94CA
:1035C0008B258137910509F414C50CF408C58237A1
:1035D000910509F474C68337910511F00C948B257D
:1035E0008FE295E00E94D92F60E08FE195E00E9484
:1035F000ECA360E08AE095E00E94ECA361E083E048
:1036000095E00E94ECA361E088EF94E00E94ECA3B7
:1036100061E088EE94E00E94ECA360E08FED94E01E
:103620000E94ECA361E085ED94E00E94ECA361E0D0
:103630008BEC94E00E94ECA361E083EC94E00E94A8
:10364000ECA361E085EB94E00E94ECA360E087EAE4
:1036500094E00E94ECA360E088E994E00E94ECA36F
:1036600060E08AE894E00E94ECA360E084E794E0E4
:103670000E94ECA360E083E694E00E94ECA360E08B
:1036800084E594E00E94ECA360E08FE394E00E9464
:10369000ECA361E08CE294E00E94ECA360E08FE197
:1036A00094E00E94ECA360E08BE094E00E94ECA325
:1036B0000C94AB258C3231E0930711F40C94B223B7
:1036C0000CF071C0893C910509F4F8C68CF58C3872
:1036D000910509F4B5C4BCF48737910509F43EC6D9
:1036E0000CF402C68837910509F43BC68937910569
:1036F00011F00C948B251092DB021092DC020E94D8
:1037000022420C94AB258B39910509F4BDC434F4E5
:103710008139910509F42DC60C948B258E3B9105BA
:1037200009F4AFC4883C910509F47EC60C948B253E
:10373000833D910509F465C7F4F48C3C910509F4C7
:10374000FFC634F48B3C910509F4DBC60C948B2541
:103750008D3C910509F428C78E3C910511F00C941D
:103760008B254CE6C42E41E0D42E50E8E52E52E0E5
:10377000F52E10E034C78D3D910509F452C734F49D
:103780008C3D910509F440C70C948B25823E910530
:1037900009F49DC78232914011F00C948B250E9450
:1037A00013A50C94AB258C3AA1E09A0711F40C9464
:1037B000F924E4F58139E1E09E0711F40C948E249C
:1037C000BCF48E3221E0920711F40C9447240CF4DF
:1037D000DEC78F3241E0940711F40C948B248039BA
:1037E000914011F00C948B250E94B3C80C94AB252A
:1037F0008A39A1E09A0709F4F9C35CF4823991404F
:1038000011F00C948B250E943E900E94F2400C9483
:10381000AB25843AF1E09F0711F40C949424853A87
:10382000914011F40C9497240C948B25883F31E03F
:10383000930711F40C946225FCF4853F51E0950741
:1038400011F40C945C254CF4843F914011F00C94DD
:103850008B250E94A2B30C94AB25863FE1E09E0726
:1038600011F40C945F25873F914011F00C948B2547
:103870000E94F0A60C94AB25833523E0920711F447
:103880000C947A253CF48C30924011F40C947225FF
:103890000C948B25803A53E0950709F4F9C1873ED3
:1038A000934011F40C947D250C948B25A090BC02C0
:1038B000B090BD0280E50E94F990882359F00E94E3
:1038C00003A56B017C0111E0672B682B692B31F498
:1038D00010E004C010E0C12CD12C760183E50E94D9
:1038E000F990882311F40C94282C0E94799020E000
:1038F00030E04AE754E40E9499F00E949DF86B0181
:103900007C0111110BC0672B682B692B39F4A114B2
:10391000B10421F0F5018081811102C010E001C0E5
:1039200011E00E94B3C8112329F061E0C5010E9493
:1039300052BC05C060E08CEE96E00E94D8BB83E0EC
:1039400080934A0381E08093BB02C114D104E10457
:10395000F10431F00E94A937C60ED71EE81EF91EE9
:103960008091BB02882311F40C94312CC114D10432
:10397000E104F10411F40C942D2C0E94A937DC0110
:10398000CB018C199D09AE09BF09B7FF02C00C9489
:103990002D2C0C94312C8091B70284FF02C00C9422
:1039A000362C8091B90287FF02C00C94362C80918E
:1039B000BA02837011F00C94362C60E083EE96E02E
:1039C0000E94D8BB5E985E9815985E980C94AB25C3
:1039D00082ED96E00E94D92F8FEE9FE00E941E8C10
:1039E0008BE1EFEEFFE0DE01119601900D928A95DA
:1039F000E1F760E070E0CE0101960E945A4FCE01DF
:103A000001960E94128E83EC96E00E94D92F0C94AE
:103A1000AB250E94594C0C94AB250E949D4B809184
:103A2000AC11877F8093AC110C94AB25E091BC0264
:103A3000F091BD028081882329F0803209F4108240
:103A40003196F8CF60E08091BC029091BD020E9457
:103A50002E4E0C94AB250E94752F882321F00E94D6
:103A6000AC4B0E9464B80E94DC850C94AB2580911D
:103A7000AC1182FF03C08B7F8093AC118091FF0655
:103A8000813089F782E08093FF060E94A937609316
:103A9000B3027093B4028093B5029093B602E3CF61
:103AA0008091AC1183FD02C00C94AB2583E50E948C
:103AB000F99081110C94482C0C94AB2583E40E945E
:103AC000B090882319F181E996E00E94D92F809166
:103AD000990F882391F0BE016F5F7F4F86E99FE0C9
:103AE0000E94E58A8E010F5F1F4FD8018D918D01D5
:103AF000882339F00E94D22FF8CF87E896E00E9401
:103B0000D92F8AE00E94D22F0C94AB258091AC1162
:103B100082FF21C080EA96E00E94D92F6091A8110F
:103B20007091A9118091AA119091AB114AE00E9465
:103B3000CD308FE20E94D22F6091A4117091A51117
:103B40008091A6119091A7114AE00E94CD300E9469
:103B500074320C94AB2582EB96E00E94D92F0C9422
:103B6000AB258091BC029091BD020E94E14D0C9466
:103B7000AB258091AC1183FD02C00C94AB250E9453
:103B8000CCDC8091AC1183FD02C00C94AB2540913C
:103B9000BC025091BD02BE01645E7F4F80E00E9476
:103BA000E4C58C01009709F4D6C76C8D7D8D198210
:103BB0001C8222E0AC01CE0101960E94188E811178
:103BC00002C0F12C14C0CE0101960E9452C5882378
:103BD000C1F361E0CE0101960E948D8A009789F3BE
:103BE00025EEFC0120831C820E941586F82ECE0152
:103BF00001960E94128EB801FF2081F089E796E0BD
:103C00000E94E82F8AE00E94D22F1092A8111092F1
:103C1000A9111092AA111092AB119DC781E696E0EE
:103C20000E94E82F8FE690E20E94D92F94C78091DE
:103C3000AC1182FD0E94B3C88091AC1183FF8BC789
:103C400060E080E50E942191182F682F8091BC02CE
:103C50009091BD020E942E4E83E50E94F990882328
:103C600081F00E944190AB01BC014093A811509398
:103C7000A9116093AA117093AB1186E99FE00E948D
:103C800008880E94AC4B111166C70E9464B863C7D4
:103C90002091BC023091BD029091AC119260909342
:103CA000AC11C9010E94E14D56C70E9415B87B01B5
:103CB0008C0120E831E541E050E00E9489F6C9011D
:103CC0006DE671E00E94D1F64B015C01C801B701BD
:103CD00020E13EE040E050E00E9489F6CA01B901CF
:103CE00028E130E040E050E00E9489F6762E672E11
:103CF000C62ED72E8CE3282E312C412C512CC801F6
:103D0000B701A20191010E9489F6F62EE72ECA01A1
:103D1000B901A20191010E9489F6CB018E010F5FCA
:103D20001F4F8114910499F0EF92FF927F936F934C
:103D30006F927F92BF92AF929F928F9280E496E0B3
:103D40009F938F931F930F930E94CBEF13C0A114E7
:103D5000B104B1F0EF92FF927F936F936F927F92D5
:103D6000BF92AF9284E496E09F938F931F930F933B
:103D70000E94CBEF0FB6F894DEBF0FBECDBF30C0B0
:103D8000CD2879F0EF92FF927F936F936F927F929D
:103D900088E496E09F938F931F930F930E94CBEF3D
:103DA000E9CF892B69F0EF92FF927F936F938CE4B8
:103DB00096E09F938F931F930F930E94CBEFDACFE0
:103DC000EF92FF9280E596E09F938F931F930F935E
:103DD0000E94CBEF0F900F900F900F900F900F90CD
:103DE00060E0C8010E9452BC0E94FF2FB80184E528
:103DF00096E00E94E82F8AE00E94D22FACC683E5AD
:103E00000E94F990882309F4A6C60E945190F82ECA
:103E10006FEF7FEF80E50E9406918C0197FD9BC6B6
:103E2000843019F4F0922C0796C660E089E40E9471
:103E3000219181110C94592C802F0E94A7E28111AD
:103E400063C40C94592C8091FF06813009F083C61D
:103E500082E08093FF060E94A9376093B3027093BB
:103E6000B4028093B5029093B60275C68091F00BB0
:103E700083FD71C60E94DAA487FD6DC683E50E94AA
:103E8000F990882379F00E9479900E9496F8CB01EE
:103E90000E9472630E94AA65811104C00E949AB8B0
:103EA0000E94DC850E94AB5856C60E948BAF53C659
:103EB0000E94DAA4182F87FD0AC084EF92E00E94C6
:103EC000D92F812F0E9482638AE00E94D22F2196EF
:103ED000BFAD2197B0934A030C94802D60E080E53C
:103EE0000E941591811137C681E40E94B090882309
:103EF00021F060912C0770E002C06FEF70E083E565
:103F00000E94D9A38F3F910519F010F08FEF90E038
:103F100080932C0720C660E080E50E9415918111F6
:103F20001AC610922C0717C68EE40E94F9908823B7
:103F300009F411C60E9441906093AF027093B002E1
:103F40008093B1029093B20206C683E50E94B090BE
:103F5000882331F060E083E50E9415918093F00B97
:103F60000E94FF2F8AE296E00E94D92F8091F00BE9
:103F7000882369F105EBE02E02E0F02E00E010E06E
:103F800020E08091F00B90E0A0E0B0E0002E04C0B3
:103F9000B695A795979587950A94D2F780FF0EC09E
:103FA000DD24D394D20E222319F08CE20E94D22F6A
:103FB000F701859194910E94D92F2D2D0F5F1F4FEE
:103FC000E2E0EE0EF11C05301105D9F69ACD86E23D
:103FD00096E095CD1092BB0210920701BCC541E05E
:103FE00060E070E088E196E00E9403300E94412F7B
:103FF000B2C583E50E94F990882371F00E94519028
:10400000282F30E02D3331051CF480930601A3C521
:104010008CE3809306019FC50E94FF2FC09006018C
:10402000D12CE12CF12C81E196E00E94D92F4AE0BD
:10403000C701B6010E94CD308AE00E94D22F8BC505
:104040008091F00B83FD87C583E50E94F99088235A
:1040500079F00E9479900E9496F86337710514F008
:1040600063E770E07093AD026093AC020E941F6141
:104070000E94AA6581116FC50E949AB80E94DC85D2
:104080006AC50E94B6AD67C583E50E94F990882392
:1040900009F461C50E945190182F90E0CD970CF063
:1040A0001CE31093A3020E94A9376B017C01212F0E
:1040B00030E0A8EEB3E00E94B6F6C60ED71EE81EAA
:1040C000F91EC0929F02D092A002E092A102F0924B
:1040D000A20241C50E94BD650E949AB80E94C3C851
:1040E0000E94722F68EE73E080E090E00E94092F3A
:1040F00060E08CEF95E00E94D8BB2DC5809146030F
:104100008F7D80618093460326C583E50E94F990E8
:10411000882399F00E94799020E030E04AE754E447
:104120000E9499F00E949DF8609302017093030130
:1041300080930401909305010EC58091B70284FF1E
:1041400002C00C94672C8091B90287FF02C00C94C6
:10415000672C8091BA02837011F00C94672C0E9436
:10416000C3C8F9C483E50E94B090882309F4F3C45E
:104170000E94A93760933203709333038093340312
:10418000909335030E94799020E030E04AE754E4B0
:104190000E9499F00E949DF860939B0270939C028C
:1041A00080939D0290939E02D6C40E94DAA487FD5C
:1041B000D2C49091B70294FD04C09091B90297FFC8
:1041C0000AC0BCE6CB2EB1E0DB2E11EFE12E1BE0E6
:1041D000F12E10E009C09091BA02937091F7682F08
:1041E00081E00E94B5A6B7C4D6018D916D010E94F1
:1041F000F990882309F459C0133009F04FC00E9488
:1042000079904B015C0120E030E040EA51E40E94EB
:1042100033F087FF3AC0A50194016091110C7091B1
:10422000120C8091130C9091140C0E9424F82B0115
:104230003C019B01AC016091210C7091220C80919A
:10424000230C9091240C0E9499F06093210C7093A0
:10425000220C8093230C9093240C60912007709182
:10426000210780912207909123070E9438F0A30133
:1042700092010E9499F00E949DF86093200770932C
:10428000210780932207909323078092110C90922C
:10429000120CA092130CB092140C07C00E947990DB
:1042A000F701648B758B868B978B1F5FF4E0EF0EA5
:1042B000F11C143009F098CF0E9430594CC40E9470
:1042C000B3C80E94F24047C48091BC029091BD02E5
:1042D000009709F4C8CBDC012C91222309F4C3CB4D
:1042E00060E00E9452BC37C40091BC021091BD0234
:1042F00094E0F12C40E0915021F1F8018081282FC9
:104300002B7F213421F421812133D9F407C080355A
:10431000C1F4818180538A3048F013C0813421F088
:10432000853421F441E002C0FF24F39498012E5F0C
:104330003F4F89012F5F3F4FF80180818032C9F3E1
:10434000DACF41110E94FF2FFF2021F087E094E097
:104350000E94D92FC8010E947A32FDC30E940542F3
:10436000FAC381E08093DB028093DC020E94224248
:10437000F2C360E070E083E50E9406918C01112792
:10438000023011053CF00E94FB2F85EE93E00E9465
:10439000D92FE1C388E40E94F9908823A9F00E94F4
:1043A00075908A3A91053CF08530F1E09F072CF03A
:1043B00084E091E002C08AEA90E0F801EE0FFF1F6E
:1043C000E956FD4F9183808386E40E94F99088230B
:1043D00081F00E94759097FD07C08F3F910529F0ED
:1043E00024F08FEF90E001C080E0F801EB56FD4F24
:1043F000808382E40E94F990882309F4ACC30E9470
:1044000075908530910534F0843791052CF083E761
:1044100090E002C085E090E0000F111FF801EF5618
:10442000FD4F9183808397C30E94DAA4182F87FDE4
:1044300092C384E40E94B0908823E9F10E947990AD
:104440006B017C0101E020E030E0A9010E9433F023
:10445000811101C000E00093900220E030E0A9014A
:10446000C701B6010E9433F0882329F124E012022B
:10447000F0011124E457FD4FC082D182E282F38221
:1044800020E030E0A90160918C0270918D02809152
:104490008E0290918F020E9433F081110CC080E057
:1044A00090E0A0EEBFE380938C0290938D02A093E6
:1044B0008E02B0938F020E944EC84DC30E94DAA4B0
:1044C00087FD49C37CE6E72E71E0F72E01EF1BE084
:1044D000D7018D917D010E94B090882359F00E94F0
:1044E00079900E949DF8F8016083718382839383A1
:1044F0000E94E9580C5F1F4FFCE001301F0741F795
:104500002AC30E94DAA487FD26C36CE6E62E61E08A
:10451000F62E01EF1BE0D7018D917D010E94B09036
:10452000882339F00E947990F80164A375A386A3CB
:1045300097A30C5F1F4FFCE001301F0761F70BC30F
:104540008091B80287FF02C00C948C2C8091B90234
:104550008E7011F00C948C2C4091250C5091260CEF
:104560006091270C7091280C85ED93E00E946332D6
:104570004091290C50912A0C60912B0C70912C0CBD
:1045800082ED93E00E94633240912D0C50912E0CED
:1045900060912F0C7091300C8FEC93E00E9463328D
:1045A0008AE00E94D22FD7C28091B70281FF02C059
:1045B0000C94D22C8091B80281FF02C00C94D22CB2
:1045C0008091B9028C7011F00C94D22CC4C21F5F80
:1045D000F4E0EF0EF11C133011F40C94FA18D6012C
:1045E0008D916D010E94B090882389F30E9479908B
:1045F000F7016083718382839383812F0E948BCC28
:10460000E6CF0E94C6A5A7C283E50E94F990882341
:1046100009F4A1C20E94759090930A018093090148
:104620009AC20E94DAA4F82E87FD95C283E50E9403
:10463000F9900F2D0F2C000C110B882369F10E94AB
:104640007590F801EE0FFF1FE050FF4F91838083BC
:10465000000F111F000F111F9801265D3E4F7901B9
:10466000BC01990F880B990B0E943AF02AE037EDB4
:1046700043E25CE30E9499F0F801E458FD4F208189
:104680003181428153810E9499F0D7016D937D93CE
:104690008D939C9313975FC20E94FF2F85E40E9425
:1046A000D22F80E38F0D0E94D22F000F111FF8012F
:1046B000E050FF4F6081718188EA93E00E9456319B
:1046C00085E20E94D22F8AE00E94D22F44C280E568
:1046D0000E94B090882309F43EC260E070E080E55B
:1046E0000E940691F82E6FEF7FEF83E50E940691FE
:1046F0008C010196039708F02EC2F7FC2CC28F2D77
:104700000E94A7E2882339F00E94FB2F81E396E004
:104710000E94D92F20C20E94B3C860E08F2D0E9452
:104720003F6E0F3FBFEF1B0731F00130110571F0F5
:1047300000E010E00DC08F2D0E94E76D31E020E019
:10474000892B09F030E0032F122F02C001E010E0A6
:104750008F2D0E94E76D8017910709F4FCC10E941C
:104760009B32F6CF64E071E083E50E94D9A38C010F
:1047700068EE73E080E50E94D9A38938E3E19E07E3
:1047800010F088E893E1B8010E94ABBBE4C160E09F
:1047900085E40E941591811173C080E50E94B0905C
:1047A000882351F00E94799060938A0F70938B0F49
:1047B00080938C0F90938D0F89E40E94B090882392
:1047C00081F00E9479902CEA35EC47E25EE30E948A
:1047D00099F060938E0F70938F0F8093900F90934A
:1047E000910F84E40E94B090882381F00E94799018
:1047F0002CEA35EC47E25EE30E9424F86093920FC6
:104800007093930F8093940F9093950F0E94FF2FB6
:1048100040918A0F50918B0F60918C0F70918D0F8A
:1048200084EA93E00E9463322CEA35EC47E25EE3CF
:1048300060918E0F70918F0F8091900F9091910FDA
:104840000E9424F8AB01BC0180EA93E00E9463322D
:104850002CEA35EC47E25EE36091920F7091930F82
:104860008091940F9091950F0E9499F0AB01BC013B
:104870008CE993E00E9463328AE00E94D22F6BC1E0
:104880000E94FB2F8AE893E00E94D92F64C183E540
:104890000E94B090182F882371F00E9479900E9496
:1048A00096F870932F0160932E0121E0672B09F099
:1048B00020E020933D0780E50E94B090882359F0C6
:1048C00020912E0130912F01232B11F00E94659031
:1048D00080933D0740C111113EC10E94FF2F87E721
:1048E00093E00E94D92F80913D07882319F085EF2E
:1048F0009BE102C08EE593E00E94D92F60912E01CA
:1049000070912F0186E693E00E94563182E693E093
:104910000E94D92F20C10E94B9A91DC181E00E9427
:1049200007580E94F24017C10E94589314C16FEFBC
:104930007FEF89E40E940691182F6FEF7FEF8AE4E2
:104940000E940691082F8AE50E94B090F82E8111EE
:1049500005C081E50E94B090D82E01C0D12C17FD72
:1049600006C007FD04C0F11009C0D11007C00E94A5
:10497000FB2F8EE393E00E94D92FEDC0143010F48A
:10498000043038F00E94FB2F8FEF96E00E94D92F61
:10499000E2C0E12E110FFF08002E000C110B0E9447
:1049A0007990EE0CFF1CEE0CFF1CDD2071F0F7017E
:1049B000E00FF11FEE0FFF1FEE0FFF1FE45CFD4F36
:1049C000208131814281538103C020E030E0A90180
:1049D0000E0D1F1D000F111F000F111F045C1D4F36
:1049E0000E942AF7D8016D937D938D939C93139722
:1049F000B2C00E94F1DC8111AEC00DE912E0E0E02E
:104A0000F7E0F9A3E8A39E012F5F3F4F19019BEC4C
:104A1000C92E92E0D92E7901F801659175918591A1
:104A20009491A8A1B9A18D909D90AD90BD90B9A38E
:104A3000A8A3A50194010E9429F72B013C01F701CD
:104A4000608371838283938320E030E040EA51ECFD
:104A50000E948AF987FD0AC020E030E040EA51E474
:104A6000C301B2010E9433F0181634F4F6018491A8
:104A7000181614F40C942B2DD7018D909D90AD90A9
:104A8000BD907D0120E030E040EA51ECC501B40169
:104A90000E948AF987FF02C00C94362D20E030E096
:104AA00040EA51E4C501B4010E9433F0181614F035
:104AB0000C944A2D0C94362D0E9411494CC00E9432
:104AC0005B4249C020933B020E94734310923B0219
:104AD000882309F440C00E94FF2F87EF92E00E94D4
:104AE000D92F39C08091AC1182FF35C0806480938A
:104AF000AC1131C00E945EB22EC081E080930B01E8
:104B000010923A0260E083E50E942191811123C056
:104B10000E94C3B120C00E94E3DC1DC00091470386
:104B2000109148030023B9F00E94FF2F84E50E94F2
:104B3000D22FB8017727072E000C880B990B0E9403
:104B40003A3180E20E94D22F8AE893E00E94D92F66
:104B500002C00E94E3DC0E94B3B12196FFAD219711
:104B6000F0934A03CDC711E022E02216310409F088
:104B700010E020E030E0A901C701B6010E9433F047
:104B8000881F8827881F1813A4C080E090E0A0E841
:104B9000BFE388A799A7AAA7BBA728A139A14AA1C3
:104BA0005BA1C501B4010E9429F720E030E040E09C
:104BB0005FE30E9499F068A379A38AA39BA32CA129
:104BC0003DA14EA15FA1C301B2010E9429F720E0DF
:104BD00030E040E05FE30E9499F06CA37DA38EA3D8
:104BE0009FA328A139A14AA15BA1CA01B9010E94D2
:104BF00099F04B015C012CA13DA14EA15FA1CA011E
:104C0000B9010E9499F09B01AC01C501B4010E9459
:104C10002AF70E94D8F94B015C019B01AC01C70146
:104C2000B6010E9429F72B013C01A5019401C7019F
:104C3000B6010E942AF79B01AC01C301B2010E9498
:104C400099F06B017C0120E030E0A9010E948AF913
:104C500087FD07C0C701B6010E94D8F92B013C01AE
:104C600003C0412C512C32016CA17DA18EA19FA1CA
:104C70009058A50194010E9424F828A539A54AA5B9
:104C80005BA50E9499F0A30192010E9499F028A1CE
:104C900039A14AA15BA10E942AF76B017C01A50101
:104CA000940168A179A18AA19BA10E9424F828A55A
:104CB00039A54AA55BA50E9499F0A30192010E9423
:104CC00099F02CA13DA14EA15FA10E942AF70C945E
:104CD0003D1780E090E0A0E8BFEB5BCF0E94FB2F88
:104CE00087E697E00E94D92F36CF20E030E0A90177
:104CF000C701B6010E9433F0882381F318A619A6D4
:104D00001AA61BA6A7019601505828A339A34AA3A7
:104D10005BA388A599A5AAA5BBA5B0588CA39DA304
:104D2000AEA3BFA3CA01B9010E9499F04B015C0177
:104D30002CA13DA14EA15FA1CA01B9010E9499F029
:104D40009B01AC01C501B4010E942AF70E94D8F969
:104D50006CAF7DAF8EAF9FAF209100073091010700
:104D600040910207509103072CA73DA74EA75FA7CC
:104D7000A70196016CA57DA58EA59FA50E942AF787
:104D800025966CAF7DAF8EAF9FAF259780910407BE
:104D900090910507A0910607B091070788AB99ABE2
:104DA000AAABBBAB28A539A54AA55BA5BC01CD0123
:104DB0000E942AF729966CAF7DAF8EAF9FAF2997DF
:104DC00020913603309137034091380350913903D5
:104DD0002CAB3DAB4EAB5FAB25962CAD3DAD4EAD98
:104DE0005FAD25976CA97DA98EA99FA90E9429F77F
:104DF0006B017C0180913A0390913B03A0913C03AD
:104E0000B0913D0388AF99AFAAAFBBAF29962CAD47
:104E10003DAD4EAD5FAD2997BC01CD010E9429F794
:104E20004B015C01A701960168A179A18AA19BA110
:104E30000E9499F02B013C01A50194016CA17DA178
:104E40008EA19FA10E9499F09B01AC01C301B20108
:104E50000E942AF72B013C01A501940168A179A1C8
:104E60008AA19BA10E9499F04B015C01A7019601C8
:104E70006CA17DA18EA19FA10E9499F09B01AC0124
:104E8000C501B4010E9429F7A30192010E94A9F76C
:104E90006B017C0120E030E0A9010E9433F087FF24
:104EA0000AC02BED3FE049EC50E4C701B6010E9477
:104EB0002AF76B017C012BED3FE049EC50E4C70180
:104EC000B6010E9424F820E030E040EC51E40E945A
:104ED00099F00E9408F80E949DF88B01672B11F44D
:104EE00001E010E092E02916310451F42BED3FE08F
:104EF00049EC50E4C701B6010E9429F76B017C011F
:104F000020E030E0A901C701B6010E9433F0811111
:104F100022C02CA93DA94EA95FA96CA57DA58EA58F
:104F20009FA50E9433F0811116C028AD39AD4AAD5E
:104F30005BAD68A979A98AA99BA90E9433F0811168
:104F40000AC008E110E07BEDC72E7FE0D72E79EC98
:104F5000E72E70E4F72E2091080730910907409161
:104F60000A0750910B0728AB39AB4AAB5BAB60919A
:104F70003E0370913F0380914003909141030E9452
:104F800029F72B013C01A70196016CAD7DAD8EADDB
:104F90009FAD0E9499F04B015C0120E030E0A90137
:104FA000C301B2010E9433F08823C9F0A501940126
:104FB000C501B4010E9499F04B015C01A30192016B
:104FC000C301B2010E9499F09B01AC01C501B4017B
:104FD0000E942AF70E94D8F94B015C010DC020E025
:104FE00030E0A901C501B4010E948AF987FF04C01D
:104FF000B7FAB094B7F8B0942FE632E143E85AE339
:10500000C501B4010E9433F087FDFDC180914203C8
:1050100090914303A0914403B091450388AF99AFA9
:10502000AAAFBBAF20910C0730910D0740910E073E
:1050300050910F072CAB3DAB4EAB5FAB2AE037ED89
:1050400043E25CE3609167017091680180916901BE
:1050500090916A010E9499F06CA77DA78EA79FA7E7
:105060006091090170910A01072E000C880B990BC1
:105070000E943AF09B01AC016CA57DA58EA59FA571
:105080000E9499F06C8F7D8F8E8F9F8FC501B40128
:105090000E94CCF80E949DF81B016017710708F46C
:1050A0001801B10180E090E00E9438F04B015C01F2
:1050B0009B01AC01C701B6010E9424F86CA77DA733
:1050C0008EA79FA7A5019401C301B2010E9424F8F5
:1050D0002D966CAF7DAF8EAF9FAF2D972CA93DA9BC
:1050E0004EA95FA968AD79AD8AAD9BAD0E9429F745
:1050F000A50194010E9424F861966CAF7DAF8EAF3C
:105100009FAF61972CA53DA54EA55FA5CA01B9012A
:105110000E9499F020E030E040E05FE30E9499F0C7
:105120009B01AC0160E070E080E89FE30E9429F7FA
:1051300068AF79AF8AAF9BAF88A999A9AAA9BBA983
:1051400089879A87AB87BC872CA93DA94EA95FA9FF
:105150002D873E874F87588B0E94A9379B01AC0152
:1051600028533F4F4F4F5F4F2CAF3DAF4EAF5FAF18
:1051700048A059A06AA07BA041E050E059AB48ABE1
:1051800059E15CAB88A999A98215930508F00FC174
:105190000E943E670E94A937DC01CB012CAD3DADDA
:1051A0004EAD5FAD821B930BA40BB50BB7FD0EC0CC
:1051B0000E94A9379B01AC0128533F4F4F4F5F4FCF
:1051C0002CAF3DAF4EAF5FAF0E949B323CA9315038
:1051D0003CAB3323E9F12CA13DA14EA15FA168AD09
:1051E00079AD8AAD9BAD0E9499F06B017C01920173
:1051F000A3016CA57DA58EA59FA50E9499F0A7018E
:1052000096010E942AF77B018C019201A30168ADEF
:1052100079AD8AAD9BAD0E9499F04B015C012CA148
:105220003DA14EA15FA16CA57DA58EA59FA50E9465
:1052300099F09B01AC01C501B4010E9429F72B0133
:105240003C01C701D8018CA39DA3AEA3BFA34FC04F
:1052500048A959A9BA0180E090E00E9438F02CA535
:105260003DA54EA55FA50E9499F04B015C010E94EF
:105270001FF86B017C01C501B4010E94CAF94B0102
:105280005C01A701960168A179A18AA19BA10E9456
:1052900099F02B013C0128A539A54AA55BA5C501BC
:1052A000B4010E9499F0A30192010E942AF72B01F8
:1052B0003C01A501940168A179A18AA19BA10E944A
:1052C00099F04B015C0128A539A54AA55BA5C7014A
:1052D000B6010E9499F09B01AC01C501B4010E9486
:1052E00029F76CA37DA38EA39FA359E15CAB920128
:1052F000A30125966CAD7DAD8EAD9FAD25970E9427
:105300002AF769837A838B839C832CA13DA14EA1CC
:105310005FA129966CAD7DAD8EAD9FAD29970E94A2
:105320002AF76D837E838F8398872D962CAD3DADB4
:105330004EAD5FAD2D9769857A858B859C850E94E2
:105340002AF769877A878B879C8761962CAD3DAD5C
:105350004EAD5FAD61976D857E858F8598890E9482
:105360002AF76D877E878F87988BCE0101960E94E2
:10537000D4CDC12CD12C60E8E62E6FE3F62E8E0141
:10538000045E1F4F9E01235F3F4FAE01475F5F4F9B
:10539000BE016B5F7F4FCE0101960E94348588234A
:1053A00031F088A999A9019699AB88ABEBCE80E141
:1053B000E6E3F3E0DE01119601900D928A95E1F7A4
:1053C000CE0101960E94D4CDC12CD12C50E8E52EFF
:1053D0005FE3F52E8E01045E1F4F9E01235F3F4F5A
:1053E000AE01475F5F4FBE016B5F7F4FCE010196FD
:1053F0000E94348580E1FE013196A0E0B7E0019083
:105400000D928A95E1F70E94A93760933203709359
:10541000330380933403909335039DCB0E94B3C82C
:1054200080E00E9424930E9406D181E08093DB02F9
:105430000E94224288E50E94B090182F89E50E94C0
:10544000B090082F8AE50E94B0901013EFC1181792
:1054500011F0312EECC13324339411E091E098A780
:1054600080E1E0E0F7E0A6E3B3E001900D928A95D9
:10547000E1F782E50E94F990882369F00E94799013
:105480006B017C0120E030E0A9010E9433F0882309
:1054900009F43FC006C0C12CD12C40EAE42E40E400
:1054A000F42E111103C0332009F40FC180913A1377
:1054B00082FD09C0609108077091090780910A0771
:1054C00090910B0703C060E070E0CB01A70196014B
:1054D0000E942AF760933E0370933F03809340033A
:1054E00090934103209108073091090740910A07E2
:1054F00050910B070E948AF918165CF419821A82DF
:105500001B821C82BE016F5F7F4F8EE393E00E947F
:1055100025D1112309F4D4C0332009F4CEC0109250
:1055200000071092010710920207109203071092D1
:1055300004071092050710920607109207070E94B1
:10554000F040EBECF2E0A491A8ABE9EAF2E0C59000
:10555000D590E590F490EDEAF2E085909590A590D5
:10556000B490A5019401C701B6010E948AF91816EA
:105570002CF4A7019601C501B40104C0A501940152
:10558000C701B6010E9424F82B013C01E3ECF2E0D4
:10559000259135914591549128A339A34AA35BA342
:1055A000EFEBF2E085919591A591B4918CA39DA329
:1055B000AEA3BFA39C01AD0168A179A18AA19BA163
:1055C0000E948AF9181634F42CA09DA19CA70EA164
:1055D0001FA105C028A0A9A1ACA70AA11BA1A301D6
:1055E0009201C301B2010E9499F020E030E040E84E
:1055F0005FE30E942AF70E94D8F9222D3CA5A8015A
:105600000E9499F069837A838B839C83ECECF2E0AF
:105610001491409008075090090760900A07709015
:105620000B0720E030E040EC5FE3C501B4010E94CD
:1056300099F04B015C01612F110F770B880B990BCF
:105640000E943AF09B01AC01C501B4010E9499F09F
:105650004B015C0120E030E040EC5FE3C701B601A4
:105660000E9499F06B017C01B8A96B2FBB0F770BDF
:10567000880B990B0E943AF09B01AC01C701B6015F
:105680000E9499F0FE0131966F0183017201A5011C
:1056900094010E94A63F0E9431421092000710928E
:1056A000010710920207109203071092040710924C
:1056B0000507109206071092070780E00E94ABCC06
:1056C000332019F081E00E94ABCCF8A5FF2309F448
:1056D0009FC080913A138370833051F060E080E581
:1056E00097E00E94D8BB0E94FF2F81E497E0AAC0F8
:1056F0000E94F040209108073091090740910A0765
:1057000050910B0728A339A34AA35BA32091471309
:10571000309148134091491350914A1360E070E072
:105720008AEE92E40E9429F74B015C0160933603F4
:1057300070933703809338039093390320914B1370
:1057400030914C1340914D1350914E1360E070E036
:105750008AEE92E40E9429F72B013C0160933A0300
:1057600070933B0380933C0390933D0320914F1330
:1057700030915013409151135091521368A179A167
:105780008AA19BA10E9429F760933E0370933F0377
:10579000809340039093410327E137EB41ED58EBB1
:1057A000C301B2010E948AF987FD43C027E030E0BF
:1057B0004BE653E4C301B2010E9433F01816CCF15A
:1057C00027E137EB41ED58EBC501B4010E948AF99E
:1057D00087FD2FC027E030E04BE653E4C501B4015C
:1057E0000E9433F018162CF119821A821B821C8237
:1057F000DE0111966D01E8A0F9A00AA11BA1A30189
:105800009201C501B4010E94A63F82E00E94ABCC88
:105810000E94F0408091DC028093DB020E94EDD078
:1058200083E0809308010E94F24095C9302E88A73A
:1058300017CE60E080E397E00E94D8BB0E94FF2F64
:105840008EE197E00E94D92FE3CF0E94A09583C9F3
:1058500011110C948E1C0C94871C0E949B320C948A
:10586000B01C0E94DC851092BB0275C988E50E94BD
:10587000B09081115E9889E50E94B09081115E9888
:105880008AE50E94B090882309F465C9159863C918
:105890000E944190AB01BC014093A8115093A91103
:1058A0006093AA117093AB1186E99FE00E9408886B
:1058B00052C961E0802F0E943F6E6F2D802F0E94A1
:1058C000106E6F2D70E0802F0E947B6E44C90E9485
:1058D000B3C888E50E94B090882331F05E9A809129
:1058E0003A138E7F80933A1389E50E94B090882303
:1058F00031F05E9A80913A138D7F80933A138AE556
:105900000E94B090882309F426C9159A80913A1311
:105910008B7F80933A131FC983E50E94F9908823F7
:1059200091F00E9479906093250C7093260C8093DF
:10593000270C9093280C60932D0C70932E0C809361
:105940002F0C9093300C80E50E94F990882351F041
:105950000E9479906093250C7093260C8093270CFD
:105960009093280C82E50E94F990882351F00E94C0
:1059700079906093290C70932A0C80932B0C909350
:105980002C0C84E50E94F990882309F4E4C80E9455
:10599000799060932D0C70932E0C80932F0C909324
:1059A000300CD9C882E40E94B090882351F00E9444
:1059B00003A56093010C7093020C8093030C9093E9
:1059C000040C83E50E94B090882351F00E947990E6
:1059D0006093310C7093320C8093330C9093340CA1
:1059E00084E50E94B090882351F00E9479906093E2
:1059F000350C7093360C8093370C9093380C8AE4F6
:105A00000E94B090882309F4A6C80E9479906B0187
:105A10007C012AE037ED43E25CE30E948AF987FDCE
:105A200013C02AE939E949E95EE3C701B6010E94DA
:105A300033F018164CF0C0921007D0921107E09284
:105A40001207F092130787C80E94FB2F80EB93E0A8
:105A50000E94D92F80C8B7FAB094B7F8B094F70174
:105A600080829182A282B3820C943C250E94FB2FFB
:105A700080E293E00E94D92F61E082E193E00E94EE
:105A8000D8BB0E948BD868E270E088EC90E00E945E
:105A9000ABBB61C80C5F1F4FFFEFCF1ADF0A22E0DC
:105AA000093A120711F00C940C2580E8E82E82E0E8
:105AB000F82E10E0F10181919191A191B1911F0116
:105AC000F70181939193A193B1937F01812F0E945C
:105AD0008BCC1F5F133071F70E94F24060E082E0D0
